
clock_hate.elf:     file format elf32-littlearm

Sections:
Idx Name          Size      VMA       LMA       File off  Algn
  0 .isr_vector   00000188  08000000  08000000  00010000  2**0
                  CONTENTS, ALLOC, LOAD, READONLY, DATA
  1 .text         00007328  08000190  08000190  00010190  2**4
                  CONTENTS, ALLOC, LOAD, READONLY, CODE
  2 .rodata       0000043c  080074b8  080074b8  000174b8  2**3
                  CONTENTS, ALLOC, LOAD, READONLY, DATA
  3 .ARM.extab    00000000  080078f4  080078f4  000201dc  2**0
                  CONTENTS
  4 .ARM          00000000  080078f4  080078f4  000201dc  2**0
                  CONTENTS
  5 .preinit_array 00000000  080078f4  080078f4  000201dc  2**0
                  CONTENTS, ALLOC, LOAD, DATA
  6 .init_array   00000004  080078f4  080078f4  000178f4  2**2
                  CONTENTS, ALLOC, LOAD, DATA
  7 .fini_array   00000004  080078f8  080078f8  000178f8  2**2
                  CONTENTS, ALLOC, LOAD, DATA
  8 .data         000001dc  20000000  080078fc  00020000  2**2
                  CONTENTS, ALLOC, LOAD, DATA
  9 .ccmram       00000000  10000000  10000000  000201dc  2**0
                  CONTENTS
 10 .bss          00000120  200001dc  200001dc  000201dc  2**2
                  ALLOC
 11 ._user_heap_stack 00000604  200002fc  200002fc  000201dc  2**0
                  ALLOC
 12 .ARM.attributes 00000030  00000000  00000000  000201dc  2**0
                  CONTENTS, READONLY
 13 .debug_info   0000cd53  00000000  00000000  0002020c  2**0
                  CONTENTS, READONLY, DEBUGGING, OCTETS
 14 .debug_abbrev 00001d11  00000000  00000000  0002cf5f  2**0
                  CONTENTS, READONLY, DEBUGGING, OCTETS
 15 .debug_aranges 00000a70  00000000  00000000  0002ec70  2**3
                  CONTENTS, READONLY, DEBUGGING, OCTETS
 16 .debug_ranges 000009a8  00000000  00000000  0002f6e0  2**3
                  CONTENTS, READONLY, DEBUGGING, OCTETS
 17 .debug_macro  0001b799  00000000  00000000  00030088  2**0
                  CONTENTS, READONLY, DEBUGGING, OCTETS
 18 .debug_line   0000de7f  00000000  00000000  0004b821  2**0
                  CONTENTS, READONLY, DEBUGGING, OCTETS
 19 .debug_str    0009d06e  00000000  00000000  000596a0  2**0
                  CONTENTS, READONLY, DEBUGGING, OCTETS
 20 .comment      00000050  00000000  00000000  000f670e  2**0
                  CONTENTS, READONLY
 21 .debug_frame  00003c24  00000000  00000000  000f6760  2**2
                  CONTENTS, READONLY, DEBUGGING, OCTETS

Disassembly of section .text:

08000190 <__do_global_dtors_aux>:
 8000190:	b510      	push	{r4, lr}
 8000192:	4c05      	ldr	r4, [pc, #20]	; (80001a8 <__do_global_dtors_aux+0x18>)
 8000194:	7823      	ldrb	r3, [r4, #0]
 8000196:	b933      	cbnz	r3, 80001a6 <__do_global_dtors_aux+0x16>
 8000198:	4b04      	ldr	r3, [pc, #16]	; (80001ac <__do_global_dtors_aux+0x1c>)
 800019a:	b113      	cbz	r3, 80001a2 <__do_global_dtors_aux+0x12>
 800019c:	4804      	ldr	r0, [pc, #16]	; (80001b0 <__do_global_dtors_aux+0x20>)
 800019e:	f3af 8000 	nop.w
 80001a2:	2301      	movs	r3, #1
 80001a4:	7023      	strb	r3, [r4, #0]
 80001a6:	bd10      	pop	{r4, pc}
 80001a8:	200001dc 	.word	0x200001dc
 80001ac:	00000000 	.word	0x00000000
 80001b0:	080074a0 	.word	0x080074a0

080001b4 <frame_dummy>:
 80001b4:	b508      	push	{r3, lr}
 80001b6:	4b03      	ldr	r3, [pc, #12]	; (80001c4 <frame_dummy+0x10>)
 80001b8:	b11b      	cbz	r3, 80001c2 <frame_dummy+0xe>
 80001ba:	4903      	ldr	r1, [pc, #12]	; (80001c8 <frame_dummy+0x14>)
 80001bc:	4803      	ldr	r0, [pc, #12]	; (80001cc <frame_dummy+0x18>)
 80001be:	f3af 8000 	nop.w
 80001c2:	bd08      	pop	{r3, pc}
 80001c4:	00000000 	.word	0x00000000
 80001c8:	200001e0 	.word	0x200001e0
 80001cc:	080074a0 	.word	0x080074a0

080001d0 <strlen>:
 80001d0:	4603      	mov	r3, r0
 80001d2:	f813 2b01 	ldrb.w	r2, [r3], #1
 80001d6:	2a00      	cmp	r2, #0
 80001d8:	d1fb      	bne.n	80001d2 <strlen+0x2>
 80001da:	1a18      	subs	r0, r3, r0
 80001dc:	3801      	subs	r0, #1
 80001de:	4770      	bx	lr

080001e0 <memchr>:
 80001e0:	f001 01ff 	and.w	r1, r1, #255	; 0xff
 80001e4:	2a10      	cmp	r2, #16
 80001e6:	db2b      	blt.n	8000240 <memchr+0x60>
 80001e8:	f010 0f07 	tst.w	r0, #7
 80001ec:	d008      	beq.n	8000200 <memchr+0x20>
 80001ee:	f810 3b01 	ldrb.w	r3, [r0], #1
 80001f2:	3a01      	subs	r2, #1
 80001f4:	428b      	cmp	r3, r1
 80001f6:	d02d      	beq.n	8000254 <memchr+0x74>
 80001f8:	f010 0f07 	tst.w	r0, #7
 80001fc:	b342      	cbz	r2, 8000250 <memchr+0x70>
 80001fe:	d1f6      	bne.n	80001ee <memchr+0xe>
 8000200:	b4f0      	push	{r4, r5, r6, r7}
 8000202:	ea41 2101 	orr.w	r1, r1, r1, lsl #8
 8000206:	ea41 4101 	orr.w	r1, r1, r1, lsl #16
 800020a:	f022 0407 	bic.w	r4, r2, #7
 800020e:	f07f 0700 	mvns.w	r7, #0
 8000212:	2300      	movs	r3, #0
 8000214:	e8f0 5602 	ldrd	r5, r6, [r0], #8
 8000218:	3c08      	subs	r4, #8
 800021a:	ea85 0501 	eor.w	r5, r5, r1
 800021e:	ea86 0601 	eor.w	r6, r6, r1
 8000222:	fa85 f547 	uadd8	r5, r5, r7
 8000226:	faa3 f587 	sel	r5, r3, r7
 800022a:	fa86 f647 	uadd8	r6, r6, r7
 800022e:	faa5 f687 	sel	r6, r5, r7
 8000232:	b98e      	cbnz	r6, 8000258 <memchr+0x78>
 8000234:	d1ee      	bne.n	8000214 <memchr+0x34>
 8000236:	bcf0      	pop	{r4, r5, r6, r7}
 8000238:	f001 01ff 	and.w	r1, r1, #255	; 0xff
 800023c:	f002 0207 	and.w	r2, r2, #7
 8000240:	b132      	cbz	r2, 8000250 <memchr+0x70>
 8000242:	f810 3b01 	ldrb.w	r3, [r0], #1
 8000246:	3a01      	subs	r2, #1
 8000248:	ea83 0301 	eor.w	r3, r3, r1
 800024c:	b113      	cbz	r3, 8000254 <memchr+0x74>
 800024e:	d1f8      	bne.n	8000242 <memchr+0x62>
 8000250:	2000      	movs	r0, #0
 8000252:	4770      	bx	lr
 8000254:	3801      	subs	r0, #1
 8000256:	4770      	bx	lr
 8000258:	2d00      	cmp	r5, #0
 800025a:	bf06      	itte	eq
 800025c:	4635      	moveq	r5, r6
 800025e:	3803      	subeq	r0, #3
 8000260:	3807      	subne	r0, #7
 8000262:	f015 0f01 	tst.w	r5, #1
 8000266:	d107      	bne.n	8000278 <memchr+0x98>
 8000268:	3001      	adds	r0, #1
 800026a:	f415 7f80 	tst.w	r5, #256	; 0x100
 800026e:	bf02      	ittt	eq
 8000270:	3001      	addeq	r0, #1
 8000272:	f415 3fc0 	tsteq.w	r5, #98304	; 0x18000
 8000276:	3001      	addeq	r0, #1
 8000278:	bcf0      	pop	{r4, r5, r6, r7}
 800027a:	3801      	subs	r0, #1
 800027c:	4770      	bx	lr
 800027e:	bf00      	nop

08000280 <__aeabi_drsub>:
 8000280:	f081 4100 	eor.w	r1, r1, #2147483648	; 0x80000000
 8000284:	e002      	b.n	800028c <__adddf3>
 8000286:	bf00      	nop

08000288 <__aeabi_dsub>:
 8000288:	f083 4300 	eor.w	r3, r3, #2147483648	; 0x80000000

0800028c <__adddf3>:
 800028c:	b530      	push	{r4, r5, lr}
 800028e:	ea4f 0441 	mov.w	r4, r1, lsl #1
 8000292:	ea4f 0543 	mov.w	r5, r3, lsl #1
 8000296:	ea94 0f05 	teq	r4, r5
 800029a:	bf08      	it	eq
 800029c:	ea90 0f02 	teqeq	r0, r2
 80002a0:	bf1f      	itttt	ne
 80002a2:	ea54 0c00 	orrsne.w	ip, r4, r0
 80002a6:	ea55 0c02 	orrsne.w	ip, r5, r2
 80002aa:	ea7f 5c64 	mvnsne.w	ip, r4, asr #21
 80002ae:	ea7f 5c65 	mvnsne.w	ip, r5, asr #21
 80002b2:	f000 80e2 	beq.w	800047a <__adddf3+0x1ee>
 80002b6:	ea4f 5454 	mov.w	r4, r4, lsr #21
 80002ba:	ebd4 5555 	rsbs	r5, r4, r5, lsr #21
 80002be:	bfb8      	it	lt
 80002c0:	426d      	neglt	r5, r5
 80002c2:	dd0c      	ble.n	80002de <__adddf3+0x52>
 80002c4:	442c      	add	r4, r5
 80002c6:	ea80 0202 	eor.w	r2, r0, r2
 80002ca:	ea81 0303 	eor.w	r3, r1, r3
 80002ce:	ea82 0000 	eor.w	r0, r2, r0
 80002d2:	ea83 0101 	eor.w	r1, r3, r1
 80002d6:	ea80 0202 	eor.w	r2, r0, r2
 80002da:	ea81 0303 	eor.w	r3, r1, r3
 80002de:	2d36      	cmp	r5, #54	; 0x36
 80002e0:	bf88      	it	hi
 80002e2:	bd30      	pophi	{r4, r5, pc}
 80002e4:	f011 4f00 	tst.w	r1, #2147483648	; 0x80000000
 80002e8:	ea4f 3101 	mov.w	r1, r1, lsl #12
 80002ec:	f44f 1c80 	mov.w	ip, #1048576	; 0x100000
 80002f0:	ea4c 3111 	orr.w	r1, ip, r1, lsr #12
 80002f4:	d002      	beq.n	80002fc <__adddf3+0x70>
 80002f6:	4240      	negs	r0, r0
 80002f8:	eb61 0141 	sbc.w	r1, r1, r1, lsl #1
 80002fc:	f013 4f00 	tst.w	r3, #2147483648	; 0x80000000
 8000300:	ea4f 3303 	mov.w	r3, r3, lsl #12
 8000304:	ea4c 3313 	orr.w	r3, ip, r3, lsr #12
 8000308:	d002      	beq.n	8000310 <__adddf3+0x84>
 800030a:	4252      	negs	r2, r2
 800030c:	eb63 0343 	sbc.w	r3, r3, r3, lsl #1
 8000310:	ea94 0f05 	teq	r4, r5
 8000314:	f000 80a7 	beq.w	8000466 <__adddf3+0x1da>
 8000318:	f1a4 0401 	sub.w	r4, r4, #1
 800031c:	f1d5 0e20 	rsbs	lr, r5, #32
 8000320:	db0d      	blt.n	800033e <__adddf3+0xb2>
 8000322:	fa02 fc0e 	lsl.w	ip, r2, lr
 8000326:	fa22 f205 	lsr.w	r2, r2, r5
 800032a:	1880      	adds	r0, r0, r2
 800032c:	f141 0100 	adc.w	r1, r1, #0
 8000330:	fa03 f20e 	lsl.w	r2, r3, lr
 8000334:	1880      	adds	r0, r0, r2
 8000336:	fa43 f305 	asr.w	r3, r3, r5
 800033a:	4159      	adcs	r1, r3
 800033c:	e00e      	b.n	800035c <__adddf3+0xd0>
 800033e:	f1a5 0520 	sub.w	r5, r5, #32
 8000342:	f10e 0e20 	add.w	lr, lr, #32
 8000346:	2a01      	cmp	r2, #1
 8000348:	fa03 fc0e 	lsl.w	ip, r3, lr
 800034c:	bf28      	it	cs
 800034e:	f04c 0c02 	orrcs.w	ip, ip, #2
 8000352:	fa43 f305 	asr.w	r3, r3, r5
 8000356:	18c0      	adds	r0, r0, r3
 8000358:	eb51 71e3 	adcs.w	r1, r1, r3, asr #31
 800035c:	f001 4500 	and.w	r5, r1, #2147483648	; 0x80000000
 8000360:	d507      	bpl.n	8000372 <__adddf3+0xe6>
 8000362:	f04f 0e00 	mov.w	lr, #0
 8000366:	f1dc 0c00 	rsbs	ip, ip, #0
 800036a:	eb7e 0000 	sbcs.w	r0, lr, r0
 800036e:	eb6e 0101 	sbc.w	r1, lr, r1
 8000372:	f5b1 1f80 	cmp.w	r1, #1048576	; 0x100000
 8000376:	d31b      	bcc.n	80003b0 <__adddf3+0x124>
 8000378:	f5b1 1f00 	cmp.w	r1, #2097152	; 0x200000
 800037c:	d30c      	bcc.n	8000398 <__adddf3+0x10c>
 800037e:	0849      	lsrs	r1, r1, #1
 8000380:	ea5f 0030 	movs.w	r0, r0, rrx
 8000384:	ea4f 0c3c 	mov.w	ip, ip, rrx
 8000388:	f104 0401 	add.w	r4, r4, #1
 800038c:	ea4f 5244 	mov.w	r2, r4, lsl #21
 8000390:	f512 0f80 	cmn.w	r2, #4194304	; 0x400000
 8000394:	f080 809a 	bcs.w	80004cc <__adddf3+0x240>
 8000398:	f1bc 4f00 	cmp.w	ip, #2147483648	; 0x80000000
 800039c:	bf08      	it	eq
 800039e:	ea5f 0c50 	movseq.w	ip, r0, lsr #1
 80003a2:	f150 0000 	adcs.w	r0, r0, #0
 80003a6:	eb41 5104 	adc.w	r1, r1, r4, lsl #20
 80003aa:	ea41 0105 	orr.w	r1, r1, r5
 80003ae:	bd30      	pop	{r4, r5, pc}
 80003b0:	ea5f 0c4c 	movs.w	ip, ip, lsl #1
 80003b4:	4140      	adcs	r0, r0
 80003b6:	eb41 0101 	adc.w	r1, r1, r1
 80003ba:	3c01      	subs	r4, #1
 80003bc:	bf28      	it	cs
 80003be:	f5b1 1f80 	cmpcs.w	r1, #1048576	; 0x100000
 80003c2:	d2e9      	bcs.n	8000398 <__adddf3+0x10c>
 80003c4:	f091 0f00 	teq	r1, #0
 80003c8:	bf04      	itt	eq
 80003ca:	4601      	moveq	r1, r0
 80003cc:	2000      	moveq	r0, #0
 80003ce:	fab1 f381 	clz	r3, r1
 80003d2:	bf08      	it	eq
 80003d4:	3320      	addeq	r3, #32
 80003d6:	f1a3 030b 	sub.w	r3, r3, #11
 80003da:	f1b3 0220 	subs.w	r2, r3, #32
 80003de:	da0c      	bge.n	80003fa <__adddf3+0x16e>
 80003e0:	320c      	adds	r2, #12
 80003e2:	dd08      	ble.n	80003f6 <__adddf3+0x16a>
 80003e4:	f102 0c14 	add.w	ip, r2, #20
 80003e8:	f1c2 020c 	rsb	r2, r2, #12
 80003ec:	fa01 f00c 	lsl.w	r0, r1, ip
 80003f0:	fa21 f102 	lsr.w	r1, r1, r2
 80003f4:	e00c      	b.n	8000410 <__adddf3+0x184>
 80003f6:	f102 0214 	add.w	r2, r2, #20
 80003fa:	bfd8      	it	le
 80003fc:	f1c2 0c20 	rsble	ip, r2, #32
 8000400:	fa01 f102 	lsl.w	r1, r1, r2
 8000404:	fa20 fc0c 	lsr.w	ip, r0, ip
 8000408:	bfdc      	itt	le
 800040a:	ea41 010c 	orrle.w	r1, r1, ip
 800040e:	4090      	lslle	r0, r2
 8000410:	1ae4      	subs	r4, r4, r3
 8000412:	bfa2      	ittt	ge
 8000414:	eb01 5104 	addge.w	r1, r1, r4, lsl #20
 8000418:	4329      	orrge	r1, r5
 800041a:	bd30      	popge	{r4, r5, pc}
 800041c:	ea6f 0404 	mvn.w	r4, r4
 8000420:	3c1f      	subs	r4, #31
 8000422:	da1c      	bge.n	800045e <__adddf3+0x1d2>
 8000424:	340c      	adds	r4, #12
 8000426:	dc0e      	bgt.n	8000446 <__adddf3+0x1ba>
 8000428:	f104 0414 	add.w	r4, r4, #20
 800042c:	f1c4 0220 	rsb	r2, r4, #32
 8000430:	fa20 f004 	lsr.w	r0, r0, r4
 8000434:	fa01 f302 	lsl.w	r3, r1, r2
 8000438:	ea40 0003 	orr.w	r0, r0, r3
 800043c:	fa21 f304 	lsr.w	r3, r1, r4
 8000440:	ea45 0103 	orr.w	r1, r5, r3
 8000444:	bd30      	pop	{r4, r5, pc}
 8000446:	f1c4 040c 	rsb	r4, r4, #12
 800044a:	f1c4 0220 	rsb	r2, r4, #32
 800044e:	fa20 f002 	lsr.w	r0, r0, r2
 8000452:	fa01 f304 	lsl.w	r3, r1, r4
 8000456:	ea40 0003 	orr.w	r0, r0, r3
 800045a:	4629      	mov	r1, r5
 800045c:	bd30      	pop	{r4, r5, pc}
 800045e:	fa21 f004 	lsr.w	r0, r1, r4
 8000462:	4629      	mov	r1, r5
 8000464:	bd30      	pop	{r4, r5, pc}
 8000466:	f094 0f00 	teq	r4, #0
 800046a:	f483 1380 	eor.w	r3, r3, #1048576	; 0x100000
 800046e:	bf06      	itte	eq
 8000470:	f481 1180 	eoreq.w	r1, r1, #1048576	; 0x100000
 8000474:	3401      	addeq	r4, #1
 8000476:	3d01      	subne	r5, #1
 8000478:	e74e      	b.n	8000318 <__adddf3+0x8c>
 800047a:	ea7f 5c64 	mvns.w	ip, r4, asr #21
 800047e:	bf18      	it	ne
 8000480:	ea7f 5c65 	mvnsne.w	ip, r5, asr #21
 8000484:	d029      	beq.n	80004da <__adddf3+0x24e>
 8000486:	ea94 0f05 	teq	r4, r5
 800048a:	bf08      	it	eq
 800048c:	ea90 0f02 	teqeq	r0, r2
 8000490:	d005      	beq.n	800049e <__adddf3+0x212>
 8000492:	ea54 0c00 	orrs.w	ip, r4, r0
 8000496:	bf04      	itt	eq
 8000498:	4619      	moveq	r1, r3
 800049a:	4610      	moveq	r0, r2
 800049c:	bd30      	pop	{r4, r5, pc}
 800049e:	ea91 0f03 	teq	r1, r3
 80004a2:	bf1e      	ittt	ne
 80004a4:	2100      	movne	r1, #0
 80004a6:	2000      	movne	r0, #0
 80004a8:	bd30      	popne	{r4, r5, pc}
 80004aa:	ea5f 5c54 	movs.w	ip, r4, lsr #21
 80004ae:	d105      	bne.n	80004bc <__adddf3+0x230>
 80004b0:	0040      	lsls	r0, r0, #1
 80004b2:	4149      	adcs	r1, r1
 80004b4:	bf28      	it	cs
 80004b6:	f041 4100 	orrcs.w	r1, r1, #2147483648	; 0x80000000
 80004ba:	bd30      	pop	{r4, r5, pc}
 80004bc:	f514 0480 	adds.w	r4, r4, #4194304	; 0x400000
 80004c0:	bf3c      	itt	cc
 80004c2:	f501 1180 	addcc.w	r1, r1, #1048576	; 0x100000
 80004c6:	bd30      	popcc	{r4, r5, pc}
 80004c8:	f001 4500 	and.w	r5, r1, #2147483648	; 0x80000000
 80004cc:	f045 41fe 	orr.w	r1, r5, #2130706432	; 0x7f000000
 80004d0:	f441 0170 	orr.w	r1, r1, #15728640	; 0xf00000
 80004d4:	f04f 0000 	mov.w	r0, #0
 80004d8:	bd30      	pop	{r4, r5, pc}
 80004da:	ea7f 5c64 	mvns.w	ip, r4, asr #21
 80004de:	bf1a      	itte	ne
 80004e0:	4619      	movne	r1, r3
 80004e2:	4610      	movne	r0, r2
 80004e4:	ea7f 5c65 	mvnseq.w	ip, r5, asr #21
 80004e8:	bf1c      	itt	ne
 80004ea:	460b      	movne	r3, r1
 80004ec:	4602      	movne	r2, r0
 80004ee:	ea50 3401 	orrs.w	r4, r0, r1, lsl #12
 80004f2:	bf06      	itte	eq
 80004f4:	ea52 3503 	orrseq.w	r5, r2, r3, lsl #12
 80004f8:	ea91 0f03 	teqeq	r1, r3
 80004fc:	f441 2100 	orrne.w	r1, r1, #524288	; 0x80000
 8000500:	bd30      	pop	{r4, r5, pc}
 8000502:	bf00      	nop

08000504 <__aeabi_ui2d>:
 8000504:	f090 0f00 	teq	r0, #0
 8000508:	bf04      	itt	eq
 800050a:	2100      	moveq	r1, #0
 800050c:	4770      	bxeq	lr
 800050e:	b530      	push	{r4, r5, lr}
 8000510:	f44f 6480 	mov.w	r4, #1024	; 0x400
 8000514:	f104 0432 	add.w	r4, r4, #50	; 0x32
 8000518:	f04f 0500 	mov.w	r5, #0
 800051c:	f04f 0100 	mov.w	r1, #0
 8000520:	e750      	b.n	80003c4 <__adddf3+0x138>
 8000522:	bf00      	nop

08000524 <__aeabi_i2d>:
 8000524:	f090 0f00 	teq	r0, #0
 8000528:	bf04      	itt	eq
 800052a:	2100      	moveq	r1, #0
 800052c:	4770      	bxeq	lr
 800052e:	b530      	push	{r4, r5, lr}
 8000530:	f44f 6480 	mov.w	r4, #1024	; 0x400
 8000534:	f104 0432 	add.w	r4, r4, #50	; 0x32
 8000538:	f010 4500 	ands.w	r5, r0, #2147483648	; 0x80000000
 800053c:	bf48      	it	mi
 800053e:	4240      	negmi	r0, r0
 8000540:	f04f 0100 	mov.w	r1, #0
 8000544:	e73e      	b.n	80003c4 <__adddf3+0x138>
 8000546:	bf00      	nop

08000548 <__aeabi_f2d>:
 8000548:	0042      	lsls	r2, r0, #1
 800054a:	ea4f 01e2 	mov.w	r1, r2, asr #3
 800054e:	ea4f 0131 	mov.w	r1, r1, rrx
 8000552:	ea4f 7002 	mov.w	r0, r2, lsl #28
 8000556:	bf1f      	itttt	ne
 8000558:	f012 437f 	andsne.w	r3, r2, #4278190080	; 0xff000000
 800055c:	f093 4f7f 	teqne	r3, #4278190080	; 0xff000000
 8000560:	f081 5160 	eorne.w	r1, r1, #939524096	; 0x38000000
 8000564:	4770      	bxne	lr
 8000566:	f032 427f 	bics.w	r2, r2, #4278190080	; 0xff000000
 800056a:	bf08      	it	eq
 800056c:	4770      	bxeq	lr
 800056e:	f093 4f7f 	teq	r3, #4278190080	; 0xff000000
 8000572:	bf04      	itt	eq
 8000574:	f441 2100 	orreq.w	r1, r1, #524288	; 0x80000
 8000578:	4770      	bxeq	lr
 800057a:	b530      	push	{r4, r5, lr}
 800057c:	f44f 7460 	mov.w	r4, #896	; 0x380
 8000580:	f001 4500 	and.w	r5, r1, #2147483648	; 0x80000000
 8000584:	f021 4100 	bic.w	r1, r1, #2147483648	; 0x80000000
 8000588:	e71c      	b.n	80003c4 <__adddf3+0x138>
 800058a:	bf00      	nop

0800058c <__aeabi_ul2d>:
 800058c:	ea50 0201 	orrs.w	r2, r0, r1
 8000590:	bf08      	it	eq
 8000592:	4770      	bxeq	lr
 8000594:	b530      	push	{r4, r5, lr}
 8000596:	f04f 0500 	mov.w	r5, #0
 800059a:	e00a      	b.n	80005b2 <__aeabi_l2d+0x16>

0800059c <__aeabi_l2d>:
 800059c:	ea50 0201 	orrs.w	r2, r0, r1
 80005a0:	bf08      	it	eq
 80005a2:	4770      	bxeq	lr
 80005a4:	b530      	push	{r4, r5, lr}
 80005a6:	f011 4500 	ands.w	r5, r1, #2147483648	; 0x80000000
 80005aa:	d502      	bpl.n	80005b2 <__aeabi_l2d+0x16>
 80005ac:	4240      	negs	r0, r0
 80005ae:	eb61 0141 	sbc.w	r1, r1, r1, lsl #1
 80005b2:	f44f 6480 	mov.w	r4, #1024	; 0x400
 80005b6:	f104 0432 	add.w	r4, r4, #50	; 0x32
 80005ba:	ea5f 5c91 	movs.w	ip, r1, lsr #22
 80005be:	f43f aed8 	beq.w	8000372 <__adddf3+0xe6>
 80005c2:	f04f 0203 	mov.w	r2, #3
 80005c6:	ea5f 0cdc 	movs.w	ip, ip, lsr #3
 80005ca:	bf18      	it	ne
 80005cc:	3203      	addne	r2, #3
 80005ce:	ea5f 0cdc 	movs.w	ip, ip, lsr #3
 80005d2:	bf18      	it	ne
 80005d4:	3203      	addne	r2, #3
 80005d6:	eb02 02dc 	add.w	r2, r2, ip, lsr #3
 80005da:	f1c2 0320 	rsb	r3, r2, #32
 80005de:	fa00 fc03 	lsl.w	ip, r0, r3
 80005e2:	fa20 f002 	lsr.w	r0, r0, r2
 80005e6:	fa01 fe03 	lsl.w	lr, r1, r3
 80005ea:	ea40 000e 	orr.w	r0, r0, lr
 80005ee:	fa21 f102 	lsr.w	r1, r1, r2
 80005f2:	4414      	add	r4, r2
 80005f4:	e6bd      	b.n	8000372 <__adddf3+0xe6>
 80005f6:	bf00      	nop

080005f8 <__aeabi_dmul>:
 80005f8:	b570      	push	{r4, r5, r6, lr}
 80005fa:	f04f 0cff 	mov.w	ip, #255	; 0xff
 80005fe:	f44c 6ce0 	orr.w	ip, ip, #1792	; 0x700
 8000602:	ea1c 5411 	ands.w	r4, ip, r1, lsr #20
 8000606:	bf1d      	ittte	ne
 8000608:	ea1c 5513 	andsne.w	r5, ip, r3, lsr #20
 800060c:	ea94 0f0c 	teqne	r4, ip
 8000610:	ea95 0f0c 	teqne	r5, ip
 8000614:	f000 f8de 	bleq	80007d4 <__aeabi_dmul+0x1dc>
 8000618:	442c      	add	r4, r5
 800061a:	ea81 0603 	eor.w	r6, r1, r3
 800061e:	ea21 514c 	bic.w	r1, r1, ip, lsl #21
 8000622:	ea23 534c 	bic.w	r3, r3, ip, lsl #21
 8000626:	ea50 3501 	orrs.w	r5, r0, r1, lsl #12
 800062a:	bf18      	it	ne
 800062c:	ea52 3503 	orrsne.w	r5, r2, r3, lsl #12
 8000630:	f441 1180 	orr.w	r1, r1, #1048576	; 0x100000
 8000634:	f443 1380 	orr.w	r3, r3, #1048576	; 0x100000
 8000638:	d038      	beq.n	80006ac <__aeabi_dmul+0xb4>
 800063a:	fba0 ce02 	umull	ip, lr, r0, r2
 800063e:	f04f 0500 	mov.w	r5, #0
 8000642:	fbe1 e502 	umlal	lr, r5, r1, r2
 8000646:	f006 4200 	and.w	r2, r6, #2147483648	; 0x80000000
 800064a:	fbe0 e503 	umlal	lr, r5, r0, r3
 800064e:	f04f 0600 	mov.w	r6, #0
 8000652:	fbe1 5603 	umlal	r5, r6, r1, r3
 8000656:	f09c 0f00 	teq	ip, #0
 800065a:	bf18      	it	ne
 800065c:	f04e 0e01 	orrne.w	lr, lr, #1
 8000660:	f1a4 04ff 	sub.w	r4, r4, #255	; 0xff
 8000664:	f5b6 7f00 	cmp.w	r6, #512	; 0x200
 8000668:	f564 7440 	sbc.w	r4, r4, #768	; 0x300
 800066c:	d204      	bcs.n	8000678 <__aeabi_dmul+0x80>
 800066e:	ea5f 0e4e 	movs.w	lr, lr, lsl #1
 8000672:	416d      	adcs	r5, r5
 8000674:	eb46 0606 	adc.w	r6, r6, r6
 8000678:	ea42 21c6 	orr.w	r1, r2, r6, lsl #11
 800067c:	ea41 5155 	orr.w	r1, r1, r5, lsr #21
 8000680:	ea4f 20c5 	mov.w	r0, r5, lsl #11
 8000684:	ea40 505e 	orr.w	r0, r0, lr, lsr #21
 8000688:	ea4f 2ece 	mov.w	lr, lr, lsl #11
 800068c:	f1b4 0cfd 	subs.w	ip, r4, #253	; 0xfd
 8000690:	bf88      	it	hi
 8000692:	f5bc 6fe0 	cmphi.w	ip, #1792	; 0x700
 8000696:	d81e      	bhi.n	80006d6 <__aeabi_dmul+0xde>
 8000698:	f1be 4f00 	cmp.w	lr, #2147483648	; 0x80000000
 800069c:	bf08      	it	eq
 800069e:	ea5f 0e50 	movseq.w	lr, r0, lsr #1
 80006a2:	f150 0000 	adcs.w	r0, r0, #0
 80006a6:	eb41 5104 	adc.w	r1, r1, r4, lsl #20
 80006aa:	bd70      	pop	{r4, r5, r6, pc}
 80006ac:	f006 4600 	and.w	r6, r6, #2147483648	; 0x80000000
 80006b0:	ea46 0101 	orr.w	r1, r6, r1
 80006b4:	ea40 0002 	orr.w	r0, r0, r2
 80006b8:	ea81 0103 	eor.w	r1, r1, r3
 80006bc:	ebb4 045c 	subs.w	r4, r4, ip, lsr #1
 80006c0:	bfc2      	ittt	gt
 80006c2:	ebd4 050c 	rsbsgt	r5, r4, ip
 80006c6:	ea41 5104 	orrgt.w	r1, r1, r4, lsl #20
 80006ca:	bd70      	popgt	{r4, r5, r6, pc}
 80006cc:	f441 1180 	orr.w	r1, r1, #1048576	; 0x100000
 80006d0:	f04f 0e00 	mov.w	lr, #0
 80006d4:	3c01      	subs	r4, #1
 80006d6:	f300 80ab 	bgt.w	8000830 <__aeabi_dmul+0x238>
 80006da:	f114 0f36 	cmn.w	r4, #54	; 0x36
 80006de:	bfde      	ittt	le
 80006e0:	2000      	movle	r0, #0
 80006e2:	f001 4100 	andle.w	r1, r1, #2147483648	; 0x80000000
 80006e6:	bd70      	pople	{r4, r5, r6, pc}
 80006e8:	f1c4 0400 	rsb	r4, r4, #0
 80006ec:	3c20      	subs	r4, #32
 80006ee:	da35      	bge.n	800075c <__aeabi_dmul+0x164>
 80006f0:	340c      	adds	r4, #12
 80006f2:	dc1b      	bgt.n	800072c <__aeabi_dmul+0x134>
 80006f4:	f104 0414 	add.w	r4, r4, #20
 80006f8:	f1c4 0520 	rsb	r5, r4, #32
 80006fc:	fa00 f305 	lsl.w	r3, r0, r5
 8000700:	fa20 f004 	lsr.w	r0, r0, r4
 8000704:	fa01 f205 	lsl.w	r2, r1, r5
 8000708:	ea40 0002 	orr.w	r0, r0, r2
 800070c:	f001 4200 	and.w	r2, r1, #2147483648	; 0x80000000
 8000710:	f021 4100 	bic.w	r1, r1, #2147483648	; 0x80000000
 8000714:	eb10 70d3 	adds.w	r0, r0, r3, lsr #31
 8000718:	fa21 f604 	lsr.w	r6, r1, r4
 800071c:	eb42 0106 	adc.w	r1, r2, r6
 8000720:	ea5e 0e43 	orrs.w	lr, lr, r3, lsl #1
 8000724:	bf08      	it	eq
 8000726:	ea20 70d3 	biceq.w	r0, r0, r3, lsr #31
 800072a:	bd70      	pop	{r4, r5, r6, pc}
 800072c:	f1c4 040c 	rsb	r4, r4, #12
 8000730:	f1c4 0520 	rsb	r5, r4, #32
 8000734:	fa00 f304 	lsl.w	r3, r0, r4
 8000738:	fa20 f005 	lsr.w	r0, r0, r5
 800073c:	fa01 f204 	lsl.w	r2, r1, r4
 8000740:	ea40 0002 	orr.w	r0, r0, r2
 8000744:	f001 4100 	and.w	r1, r1, #2147483648	; 0x80000000
 8000748:	eb10 70d3 	adds.w	r0, r0, r3, lsr #31
 800074c:	f141 0100 	adc.w	r1, r1, #0
 8000750:	ea5e 0e43 	orrs.w	lr, lr, r3, lsl #1
 8000754:	bf08      	it	eq
 8000756:	ea20 70d3 	biceq.w	r0, r0, r3, lsr #31
 800075a:	bd70      	pop	{r4, r5, r6, pc}
 800075c:	f1c4 0520 	rsb	r5, r4, #32
 8000760:	fa00 f205 	lsl.w	r2, r0, r5
 8000764:	ea4e 0e02 	orr.w	lr, lr, r2
 8000768:	fa20 f304 	lsr.w	r3, r0, r4
 800076c:	fa01 f205 	lsl.w	r2, r1, r5
 8000770:	ea43 0302 	orr.w	r3, r3, r2
 8000774:	fa21 f004 	lsr.w	r0, r1, r4
 8000778:	f001 4100 	and.w	r1, r1, #2147483648	; 0x80000000
 800077c:	fa21 f204 	lsr.w	r2, r1, r4
 8000780:	ea20 0002 	bic.w	r0, r0, r2
 8000784:	eb00 70d3 	add.w	r0, r0, r3, lsr #31
 8000788:	ea5e 0e43 	orrs.w	lr, lr, r3, lsl #1
 800078c:	bf08      	it	eq
 800078e:	ea20 70d3 	biceq.w	r0, r0, r3, lsr #31
 8000792:	bd70      	pop	{r4, r5, r6, pc}
 8000794:	f094 0f00 	teq	r4, #0
 8000798:	d10f      	bne.n	80007ba <__aeabi_dmul+0x1c2>
 800079a:	f001 4600 	and.w	r6, r1, #2147483648	; 0x80000000
 800079e:	0040      	lsls	r0, r0, #1
 80007a0:	eb41 0101 	adc.w	r1, r1, r1
 80007a4:	f411 1f80 	tst.w	r1, #1048576	; 0x100000
 80007a8:	bf08      	it	eq
 80007aa:	3c01      	subeq	r4, #1
 80007ac:	d0f7      	beq.n	800079e <__aeabi_dmul+0x1a6>
 80007ae:	ea41 0106 	orr.w	r1, r1, r6
 80007b2:	f095 0f00 	teq	r5, #0
 80007b6:	bf18      	it	ne
 80007b8:	4770      	bxne	lr
 80007ba:	f003 4600 	and.w	r6, r3, #2147483648	; 0x80000000
 80007be:	0052      	lsls	r2, r2, #1
 80007c0:	eb43 0303 	adc.w	r3, r3, r3
 80007c4:	f413 1f80 	tst.w	r3, #1048576	; 0x100000
 80007c8:	bf08      	it	eq
 80007ca:	3d01      	subeq	r5, #1
 80007cc:	d0f7      	beq.n	80007be <__aeabi_dmul+0x1c6>
 80007ce:	ea43 0306 	orr.w	r3, r3, r6
 80007d2:	4770      	bx	lr
 80007d4:	ea94 0f0c 	teq	r4, ip
 80007d8:	ea0c 5513 	and.w	r5, ip, r3, lsr #20
 80007dc:	bf18      	it	ne
 80007de:	ea95 0f0c 	teqne	r5, ip
 80007e2:	d00c      	beq.n	80007fe <__aeabi_dmul+0x206>
 80007e4:	ea50 0641 	orrs.w	r6, r0, r1, lsl #1
 80007e8:	bf18      	it	ne
 80007ea:	ea52 0643 	orrsne.w	r6, r2, r3, lsl #1
 80007ee:	d1d1      	bne.n	8000794 <__aeabi_dmul+0x19c>
 80007f0:	ea81 0103 	eor.w	r1, r1, r3
 80007f4:	f001 4100 	and.w	r1, r1, #2147483648	; 0x80000000
 80007f8:	f04f 0000 	mov.w	r0, #0
 80007fc:	bd70      	pop	{r4, r5, r6, pc}
 80007fe:	ea50 0641 	orrs.w	r6, r0, r1, lsl #1
 8000802:	bf06      	itte	eq
 8000804:	4610      	moveq	r0, r2
 8000806:	4619      	moveq	r1, r3
 8000808:	ea52 0643 	orrsne.w	r6, r2, r3, lsl #1
 800080c:	d019      	beq.n	8000842 <__aeabi_dmul+0x24a>
 800080e:	ea94 0f0c 	teq	r4, ip
 8000812:	d102      	bne.n	800081a <__aeabi_dmul+0x222>
 8000814:	ea50 3601 	orrs.w	r6, r0, r1, lsl #12
 8000818:	d113      	bne.n	8000842 <__aeabi_dmul+0x24a>
 800081a:	ea95 0f0c 	teq	r5, ip
 800081e:	d105      	bne.n	800082c <__aeabi_dmul+0x234>
 8000820:	ea52 3603 	orrs.w	r6, r2, r3, lsl #12
 8000824:	bf1c      	itt	ne
 8000826:	4610      	movne	r0, r2
 8000828:	4619      	movne	r1, r3
 800082a:	d10a      	bne.n	8000842 <__aeabi_dmul+0x24a>
 800082c:	ea81 0103 	eor.w	r1, r1, r3
 8000830:	f001 4100 	and.w	r1, r1, #2147483648	; 0x80000000
 8000834:	f041 41fe 	orr.w	r1, r1, #2130706432	; 0x7f000000
 8000838:	f441 0170 	orr.w	r1, r1, #15728640	; 0xf00000
 800083c:	f04f 0000 	mov.w	r0, #0
 8000840:	bd70      	pop	{r4, r5, r6, pc}
 8000842:	f041 41fe 	orr.w	r1, r1, #2130706432	; 0x7f000000
 8000846:	f441 0178 	orr.w	r1, r1, #16252928	; 0xf80000
 800084a:	bd70      	pop	{r4, r5, r6, pc}

0800084c <__aeabi_ddiv>:
 800084c:	b570      	push	{r4, r5, r6, lr}
 800084e:	f04f 0cff 	mov.w	ip, #255	; 0xff
 8000852:	f44c 6ce0 	orr.w	ip, ip, #1792	; 0x700
 8000856:	ea1c 5411 	ands.w	r4, ip, r1, lsr #20
 800085a:	bf1d      	ittte	ne
 800085c:	ea1c 5513 	andsne.w	r5, ip, r3, lsr #20
 8000860:	ea94 0f0c 	teqne	r4, ip
 8000864:	ea95 0f0c 	teqne	r5, ip
 8000868:	f000 f8a7 	bleq	80009ba <__aeabi_ddiv+0x16e>
 800086c:	eba4 0405 	sub.w	r4, r4, r5
 8000870:	ea81 0e03 	eor.w	lr, r1, r3
 8000874:	ea52 3503 	orrs.w	r5, r2, r3, lsl #12
 8000878:	ea4f 3101 	mov.w	r1, r1, lsl #12
 800087c:	f000 8088 	beq.w	8000990 <__aeabi_ddiv+0x144>
 8000880:	ea4f 3303 	mov.w	r3, r3, lsl #12
 8000884:	f04f 5580 	mov.w	r5, #268435456	; 0x10000000
 8000888:	ea45 1313 	orr.w	r3, r5, r3, lsr #4
 800088c:	ea43 6312 	orr.w	r3, r3, r2, lsr #24
 8000890:	ea4f 2202 	mov.w	r2, r2, lsl #8
 8000894:	ea45 1511 	orr.w	r5, r5, r1, lsr #4
 8000898:	ea45 6510 	orr.w	r5, r5, r0, lsr #24
 800089c:	ea4f 2600 	mov.w	r6, r0, lsl #8
 80008a0:	f00e 4100 	and.w	r1, lr, #2147483648	; 0x80000000
 80008a4:	429d      	cmp	r5, r3
 80008a6:	bf08      	it	eq
 80008a8:	4296      	cmpeq	r6, r2
 80008aa:	f144 04fd 	adc.w	r4, r4, #253	; 0xfd
 80008ae:	f504 7440 	add.w	r4, r4, #768	; 0x300
 80008b2:	d202      	bcs.n	80008ba <__aeabi_ddiv+0x6e>
 80008b4:	085b      	lsrs	r3, r3, #1
 80008b6:	ea4f 0232 	mov.w	r2, r2, rrx
 80008ba:	1ab6      	subs	r6, r6, r2
 80008bc:	eb65 0503 	sbc.w	r5, r5, r3
 80008c0:	085b      	lsrs	r3, r3, #1
 80008c2:	ea4f 0232 	mov.w	r2, r2, rrx
 80008c6:	f44f 1080 	mov.w	r0, #1048576	; 0x100000
 80008ca:	f44f 2c00 	mov.w	ip, #524288	; 0x80000
 80008ce:	ebb6 0e02 	subs.w	lr, r6, r2
 80008d2:	eb75 0e03 	sbcs.w	lr, r5, r3
 80008d6:	bf22      	ittt	cs
 80008d8:	1ab6      	subcs	r6, r6, r2
 80008da:	4675      	movcs	r5, lr
 80008dc:	ea40 000c 	orrcs.w	r0, r0, ip
 80008e0:	085b      	lsrs	r3, r3, #1
 80008e2:	ea4f 0232 	mov.w	r2, r2, rrx
 80008e6:	ebb6 0e02 	subs.w	lr, r6, r2
 80008ea:	eb75 0e03 	sbcs.w	lr, r5, r3
 80008ee:	bf22      	ittt	cs
 80008f0:	1ab6      	subcs	r6, r6, r2
 80008f2:	4675      	movcs	r5, lr
 80008f4:	ea40 005c 	orrcs.w	r0, r0, ip, lsr #1
 80008f8:	085b      	lsrs	r3, r3, #1
 80008fa:	ea4f 0232 	mov.w	r2, r2, rrx
 80008fe:	ebb6 0e02 	subs.w	lr, r6, r2
 8000902:	eb75 0e03 	sbcs.w	lr, r5, r3
 8000906:	bf22      	ittt	cs
 8000908:	1ab6      	subcs	r6, r6, r2
 800090a:	4675      	movcs	r5, lr
 800090c:	ea40 009c 	orrcs.w	r0, r0, ip, lsr #2
 8000910:	085b      	lsrs	r3, r3, #1
 8000912:	ea4f 0232 	mov.w	r2, r2, rrx
 8000916:	ebb6 0e02 	subs.w	lr, r6, r2
 800091a:	eb75 0e03 	sbcs.w	lr, r5, r3
 800091e:	bf22      	ittt	cs
 8000920:	1ab6      	subcs	r6, r6, r2
 8000922:	4675      	movcs	r5, lr
 8000924:	ea40 00dc 	orrcs.w	r0, r0, ip, lsr #3
 8000928:	ea55 0e06 	orrs.w	lr, r5, r6
 800092c:	d018      	beq.n	8000960 <__aeabi_ddiv+0x114>
 800092e:	ea4f 1505 	mov.w	r5, r5, lsl #4
 8000932:	ea45 7516 	orr.w	r5, r5, r6, lsr #28
 8000936:	ea4f 1606 	mov.w	r6, r6, lsl #4
 800093a:	ea4f 03c3 	mov.w	r3, r3, lsl #3
 800093e:	ea43 7352 	orr.w	r3, r3, r2, lsr #29
 8000942:	ea4f 02c2 	mov.w	r2, r2, lsl #3
 8000946:	ea5f 1c1c 	movs.w	ip, ip, lsr #4
 800094a:	d1c0      	bne.n	80008ce <__aeabi_ddiv+0x82>
 800094c:	f411 1f80 	tst.w	r1, #1048576	; 0x100000
 8000950:	d10b      	bne.n	800096a <__aeabi_ddiv+0x11e>
 8000952:	ea41 0100 	orr.w	r1, r1, r0
 8000956:	f04f 0000 	mov.w	r0, #0
 800095a:	f04f 4c00 	mov.w	ip, #2147483648	; 0x80000000
 800095e:	e7b6      	b.n	80008ce <__aeabi_ddiv+0x82>
 8000960:	f411 1f80 	tst.w	r1, #1048576	; 0x100000
 8000964:	bf04      	itt	eq
 8000966:	4301      	orreq	r1, r0
 8000968:	2000      	moveq	r0, #0
 800096a:	f1b4 0cfd 	subs.w	ip, r4, #253	; 0xfd
 800096e:	bf88      	it	hi
 8000970:	f5bc 6fe0 	cmphi.w	ip, #1792	; 0x700
 8000974:	f63f aeaf 	bhi.w	80006d6 <__aeabi_dmul+0xde>
 8000978:	ebb5 0c03 	subs.w	ip, r5, r3
 800097c:	bf04      	itt	eq
 800097e:	ebb6 0c02 	subseq.w	ip, r6, r2
 8000982:	ea5f 0c50 	movseq.w	ip, r0, lsr #1
 8000986:	f150 0000 	adcs.w	r0, r0, #0
 800098a:	eb41 5104 	adc.w	r1, r1, r4, lsl #20
 800098e:	bd70      	pop	{r4, r5, r6, pc}
 8000990:	f00e 4e00 	and.w	lr, lr, #2147483648	; 0x80000000
 8000994:	ea4e 3111 	orr.w	r1, lr, r1, lsr #12
 8000998:	eb14 045c 	adds.w	r4, r4, ip, lsr #1
 800099c:	bfc2      	ittt	gt
 800099e:	ebd4 050c 	rsbsgt	r5, r4, ip
 80009a2:	ea41 5104 	orrgt.w	r1, r1, r4, lsl #20
 80009a6:	bd70      	popgt	{r4, r5, r6, pc}
 80009a8:	f441 1180 	orr.w	r1, r1, #1048576	; 0x100000
 80009ac:	f04f 0e00 	mov.w	lr, #0
 80009b0:	3c01      	subs	r4, #1
 80009b2:	e690      	b.n	80006d6 <__aeabi_dmul+0xde>
 80009b4:	ea45 0e06 	orr.w	lr, r5, r6
 80009b8:	e68d      	b.n	80006d6 <__aeabi_dmul+0xde>
 80009ba:	ea0c 5513 	and.w	r5, ip, r3, lsr #20
 80009be:	ea94 0f0c 	teq	r4, ip
 80009c2:	bf08      	it	eq
 80009c4:	ea95 0f0c 	teqeq	r5, ip
 80009c8:	f43f af3b 	beq.w	8000842 <__aeabi_dmul+0x24a>
 80009cc:	ea94 0f0c 	teq	r4, ip
 80009d0:	d10a      	bne.n	80009e8 <__aeabi_ddiv+0x19c>
 80009d2:	ea50 3401 	orrs.w	r4, r0, r1, lsl #12
 80009d6:	f47f af34 	bne.w	8000842 <__aeabi_dmul+0x24a>
 80009da:	ea95 0f0c 	teq	r5, ip
 80009de:	f47f af25 	bne.w	800082c <__aeabi_dmul+0x234>
 80009e2:	4610      	mov	r0, r2
 80009e4:	4619      	mov	r1, r3
 80009e6:	e72c      	b.n	8000842 <__aeabi_dmul+0x24a>
 80009e8:	ea95 0f0c 	teq	r5, ip
 80009ec:	d106      	bne.n	80009fc <__aeabi_ddiv+0x1b0>
 80009ee:	ea52 3503 	orrs.w	r5, r2, r3, lsl #12
 80009f2:	f43f aefd 	beq.w	80007f0 <__aeabi_dmul+0x1f8>
 80009f6:	4610      	mov	r0, r2
 80009f8:	4619      	mov	r1, r3
 80009fa:	e722      	b.n	8000842 <__aeabi_dmul+0x24a>
 80009fc:	ea50 0641 	orrs.w	r6, r0, r1, lsl #1
 8000a00:	bf18      	it	ne
 8000a02:	ea52 0643 	orrsne.w	r6, r2, r3, lsl #1
 8000a06:	f47f aec5 	bne.w	8000794 <__aeabi_dmul+0x19c>
 8000a0a:	ea50 0441 	orrs.w	r4, r0, r1, lsl #1
 8000a0e:	f47f af0d 	bne.w	800082c <__aeabi_dmul+0x234>
 8000a12:	ea52 0543 	orrs.w	r5, r2, r3, lsl #1
 8000a16:	f47f aeeb 	bne.w	80007f0 <__aeabi_dmul+0x1f8>
 8000a1a:	e712      	b.n	8000842 <__aeabi_dmul+0x24a>

08000a1c <__gedf2>:
 8000a1c:	f04f 3cff 	mov.w	ip, #4294967295
 8000a20:	e006      	b.n	8000a30 <__cmpdf2+0x4>
 8000a22:	bf00      	nop

08000a24 <__ledf2>:
 8000a24:	f04f 0c01 	mov.w	ip, #1
 8000a28:	e002      	b.n	8000a30 <__cmpdf2+0x4>
 8000a2a:	bf00      	nop

08000a2c <__cmpdf2>:
 8000a2c:	f04f 0c01 	mov.w	ip, #1
 8000a30:	f84d cd04 	str.w	ip, [sp, #-4]!
 8000a34:	ea4f 0c41 	mov.w	ip, r1, lsl #1
 8000a38:	ea7f 5c6c 	mvns.w	ip, ip, asr #21
 8000a3c:	ea4f 0c43 	mov.w	ip, r3, lsl #1
 8000a40:	bf18      	it	ne
 8000a42:	ea7f 5c6c 	mvnsne.w	ip, ip, asr #21
 8000a46:	d01b      	beq.n	8000a80 <__cmpdf2+0x54>
 8000a48:	b001      	add	sp, #4
 8000a4a:	ea50 0c41 	orrs.w	ip, r0, r1, lsl #1
 8000a4e:	bf0c      	ite	eq
 8000a50:	ea52 0c43 	orrseq.w	ip, r2, r3, lsl #1
 8000a54:	ea91 0f03 	teqne	r1, r3
 8000a58:	bf02      	ittt	eq
 8000a5a:	ea90 0f02 	teqeq	r0, r2
 8000a5e:	2000      	moveq	r0, #0
 8000a60:	4770      	bxeq	lr
 8000a62:	f110 0f00 	cmn.w	r0, #0
 8000a66:	ea91 0f03 	teq	r1, r3
 8000a6a:	bf58      	it	pl
 8000a6c:	4299      	cmppl	r1, r3
 8000a6e:	bf08      	it	eq
 8000a70:	4290      	cmpeq	r0, r2
 8000a72:	bf2c      	ite	cs
 8000a74:	17d8      	asrcs	r0, r3, #31
 8000a76:	ea6f 70e3 	mvncc.w	r0, r3, asr #31
 8000a7a:	f040 0001 	orr.w	r0, r0, #1
 8000a7e:	4770      	bx	lr
 8000a80:	ea4f 0c41 	mov.w	ip, r1, lsl #1
 8000a84:	ea7f 5c6c 	mvns.w	ip, ip, asr #21
 8000a88:	d102      	bne.n	8000a90 <__cmpdf2+0x64>
 8000a8a:	ea50 3c01 	orrs.w	ip, r0, r1, lsl #12
 8000a8e:	d107      	bne.n	8000aa0 <__cmpdf2+0x74>
 8000a90:	ea4f 0c43 	mov.w	ip, r3, lsl #1
 8000a94:	ea7f 5c6c 	mvns.w	ip, ip, asr #21
 8000a98:	d1d6      	bne.n	8000a48 <__cmpdf2+0x1c>
 8000a9a:	ea52 3c03 	orrs.w	ip, r2, r3, lsl #12
 8000a9e:	d0d3      	beq.n	8000a48 <__cmpdf2+0x1c>
 8000aa0:	f85d 0b04 	ldr.w	r0, [sp], #4
 8000aa4:	4770      	bx	lr
 8000aa6:	bf00      	nop

08000aa8 <__aeabi_cdrcmple>:
 8000aa8:	4684      	mov	ip, r0
 8000aaa:	4610      	mov	r0, r2
 8000aac:	4662      	mov	r2, ip
 8000aae:	468c      	mov	ip, r1
 8000ab0:	4619      	mov	r1, r3
 8000ab2:	4663      	mov	r3, ip
 8000ab4:	e000      	b.n	8000ab8 <__aeabi_cdcmpeq>
 8000ab6:	bf00      	nop

08000ab8 <__aeabi_cdcmpeq>:
 8000ab8:	b501      	push	{r0, lr}
 8000aba:	f7ff ffb7 	bl	8000a2c <__cmpdf2>
 8000abe:	2800      	cmp	r0, #0
 8000ac0:	bf48      	it	mi
 8000ac2:	f110 0f00 	cmnmi.w	r0, #0
 8000ac6:	bd01      	pop	{r0, pc}

08000ac8 <__aeabi_dcmpeq>:
 8000ac8:	f84d ed08 	str.w	lr, [sp, #-8]!
 8000acc:	f7ff fff4 	bl	8000ab8 <__aeabi_cdcmpeq>
 8000ad0:	bf0c      	ite	eq
 8000ad2:	2001      	moveq	r0, #1
 8000ad4:	2000      	movne	r0, #0
 8000ad6:	f85d fb08 	ldr.w	pc, [sp], #8
 8000ada:	bf00      	nop

08000adc <__aeabi_dcmplt>:
 8000adc:	f84d ed08 	str.w	lr, [sp, #-8]!
 8000ae0:	f7ff ffea 	bl	8000ab8 <__aeabi_cdcmpeq>
 8000ae4:	bf34      	ite	cc
 8000ae6:	2001      	movcc	r0, #1
 8000ae8:	2000      	movcs	r0, #0
 8000aea:	f85d fb08 	ldr.w	pc, [sp], #8
 8000aee:	bf00      	nop

08000af0 <__aeabi_dcmple>:
 8000af0:	f84d ed08 	str.w	lr, [sp, #-8]!
 8000af4:	f7ff ffe0 	bl	8000ab8 <__aeabi_cdcmpeq>
 8000af8:	bf94      	ite	ls
 8000afa:	2001      	movls	r0, #1
 8000afc:	2000      	movhi	r0, #0
 8000afe:	f85d fb08 	ldr.w	pc, [sp], #8
 8000b02:	bf00      	nop

08000b04 <__aeabi_dcmpge>:
 8000b04:	f84d ed08 	str.w	lr, [sp, #-8]!
 8000b08:	f7ff ffce 	bl	8000aa8 <__aeabi_cdrcmple>
 8000b0c:	bf94      	ite	ls
 8000b0e:	2001      	movls	r0, #1
 8000b10:	2000      	movhi	r0, #0
 8000b12:	f85d fb08 	ldr.w	pc, [sp], #8
 8000b16:	bf00      	nop

08000b18 <__aeabi_dcmpgt>:
 8000b18:	f84d ed08 	str.w	lr, [sp, #-8]!
 8000b1c:	f7ff ffc4 	bl	8000aa8 <__aeabi_cdrcmple>
 8000b20:	bf34      	ite	cc
 8000b22:	2001      	movcc	r0, #1
 8000b24:	2000      	movcs	r0, #0
 8000b26:	f85d fb08 	ldr.w	pc, [sp], #8
 8000b2a:	bf00      	nop

08000b2c <__aeabi_dcmpun>:
 8000b2c:	ea4f 0c41 	mov.w	ip, r1, lsl #1
 8000b30:	ea7f 5c6c 	mvns.w	ip, ip, asr #21
 8000b34:	d102      	bne.n	8000b3c <__aeabi_dcmpun+0x10>
 8000b36:	ea50 3c01 	orrs.w	ip, r0, r1, lsl #12
 8000b3a:	d10a      	bne.n	8000b52 <__aeabi_dcmpun+0x26>
 8000b3c:	ea4f 0c43 	mov.w	ip, r3, lsl #1
 8000b40:	ea7f 5c6c 	mvns.w	ip, ip, asr #21
 8000b44:	d102      	bne.n	8000b4c <__aeabi_dcmpun+0x20>
 8000b46:	ea52 3c03 	orrs.w	ip, r2, r3, lsl #12
 8000b4a:	d102      	bne.n	8000b52 <__aeabi_dcmpun+0x26>
 8000b4c:	f04f 0000 	mov.w	r0, #0
 8000b50:	4770      	bx	lr
 8000b52:	f04f 0001 	mov.w	r0, #1
 8000b56:	4770      	bx	lr

08000b58 <__aeabi_d2iz>:
 8000b58:	ea4f 0241 	mov.w	r2, r1, lsl #1
 8000b5c:	f512 1200 	adds.w	r2, r2, #2097152	; 0x200000
 8000b60:	d215      	bcs.n	8000b8e <__aeabi_d2iz+0x36>
 8000b62:	d511      	bpl.n	8000b88 <__aeabi_d2iz+0x30>
 8000b64:	f46f 7378 	mvn.w	r3, #992	; 0x3e0
 8000b68:	ebb3 5262 	subs.w	r2, r3, r2, asr #21
 8000b6c:	d912      	bls.n	8000b94 <__aeabi_d2iz+0x3c>
 8000b6e:	ea4f 23c1 	mov.w	r3, r1, lsl #11
 8000b72:	f043 4300 	orr.w	r3, r3, #2147483648	; 0x80000000
 8000b76:	ea43 5350 	orr.w	r3, r3, r0, lsr #21
 8000b7a:	f011 4f00 	tst.w	r1, #2147483648	; 0x80000000
 8000b7e:	fa23 f002 	lsr.w	r0, r3, r2
 8000b82:	bf18      	it	ne
 8000b84:	4240      	negne	r0, r0
 8000b86:	4770      	bx	lr
 8000b88:	f04f 0000 	mov.w	r0, #0
 8000b8c:	4770      	bx	lr
 8000b8e:	ea50 3001 	orrs.w	r0, r0, r1, lsl #12
 8000b92:	d105      	bne.n	8000ba0 <__aeabi_d2iz+0x48>
 8000b94:	f011 4000 	ands.w	r0, r1, #2147483648	; 0x80000000
 8000b98:	bf08      	it	eq
 8000b9a:	f06f 4000 	mvneq.w	r0, #2147483648	; 0x80000000
 8000b9e:	4770      	bx	lr
 8000ba0:	f04f 0000 	mov.w	r0, #0
 8000ba4:	4770      	bx	lr
 8000ba6:	bf00      	nop

08000ba8 <__aeabi_d2f>:
 8000ba8:	ea4f 0241 	mov.w	r2, r1, lsl #1
 8000bac:	f1b2 43e0 	subs.w	r3, r2, #1879048192	; 0x70000000
 8000bb0:	bf24      	itt	cs
 8000bb2:	f5b3 1c00 	subscs.w	ip, r3, #2097152	; 0x200000
 8000bb6:	f1dc 5cfe 	rsbscs	ip, ip, #532676608	; 0x1fc00000
 8000bba:	d90d      	bls.n	8000bd8 <__aeabi_d2f+0x30>
 8000bbc:	f001 4c00 	and.w	ip, r1, #2147483648	; 0x80000000
 8000bc0:	ea4f 02c0 	mov.w	r2, r0, lsl #3
 8000bc4:	ea4c 7050 	orr.w	r0, ip, r0, lsr #29
 8000bc8:	f1b2 4f00 	cmp.w	r2, #2147483648	; 0x80000000
 8000bcc:	eb40 0083 	adc.w	r0, r0, r3, lsl #2
 8000bd0:	bf08      	it	eq
 8000bd2:	f020 0001 	biceq.w	r0, r0, #1
 8000bd6:	4770      	bx	lr
 8000bd8:	f011 4f80 	tst.w	r1, #1073741824	; 0x40000000
 8000bdc:	d121      	bne.n	8000c22 <__aeabi_d2f+0x7a>
 8000bde:	f113 7238 	adds.w	r2, r3, #48234496	; 0x2e00000
 8000be2:	bfbc      	itt	lt
 8000be4:	f001 4000 	andlt.w	r0, r1, #2147483648	; 0x80000000
 8000be8:	4770      	bxlt	lr
 8000bea:	f441 1180 	orr.w	r1, r1, #1048576	; 0x100000
 8000bee:	ea4f 5252 	mov.w	r2, r2, lsr #21
 8000bf2:	f1c2 0218 	rsb	r2, r2, #24
 8000bf6:	f1c2 0c20 	rsb	ip, r2, #32
 8000bfa:	fa10 f30c 	lsls.w	r3, r0, ip
 8000bfe:	fa20 f002 	lsr.w	r0, r0, r2
 8000c02:	bf18      	it	ne
 8000c04:	f040 0001 	orrne.w	r0, r0, #1
 8000c08:	ea4f 23c1 	mov.w	r3, r1, lsl #11
 8000c0c:	ea4f 23d3 	mov.w	r3, r3, lsr #11
 8000c10:	fa03 fc0c 	lsl.w	ip, r3, ip
 8000c14:	ea40 000c 	orr.w	r0, r0, ip
 8000c18:	fa23 f302 	lsr.w	r3, r3, r2
 8000c1c:	ea4f 0343 	mov.w	r3, r3, lsl #1
 8000c20:	e7cc      	b.n	8000bbc <__aeabi_d2f+0x14>
 8000c22:	ea7f 5362 	mvns.w	r3, r2, asr #21
 8000c26:	d107      	bne.n	8000c38 <__aeabi_d2f+0x90>
 8000c28:	ea50 3301 	orrs.w	r3, r0, r1, lsl #12
 8000c2c:	bf1e      	ittt	ne
 8000c2e:	f04f 40fe 	movne.w	r0, #2130706432	; 0x7f000000
 8000c32:	f440 0040 	orrne.w	r0, r0, #12582912	; 0xc00000
 8000c36:	4770      	bxne	lr
 8000c38:	f001 4000 	and.w	r0, r1, #2147483648	; 0x80000000
 8000c3c:	f040 40fe 	orr.w	r0, r0, #2130706432	; 0x7f000000
 8000c40:	f440 0000 	orr.w	r0, r0, #8388608	; 0x800000
 8000c44:	4770      	bx	lr
 8000c46:	bf00      	nop

08000c48 <lcd_send_cmd>:
extern I2C_HandleTypeDef hi2c1;  // change your handler here accordingly

#define SLAVE_ADDRESS_LCD 0x4E // change this according to ur setup

void lcd_send_cmd (char cmd)
{
 8000c48:	b580      	push	{r7, lr}
 8000c4a:	b086      	sub	sp, #24
 8000c4c:	af02      	add	r7, sp, #8
 8000c4e:	4603      	mov	r3, r0
 8000c50:	71fb      	strb	r3, [r7, #7]
  char data_u, data_l;
	uint8_t data_t[4];
	data_u = (cmd&0xf0);
 8000c52:	79fb      	ldrb	r3, [r7, #7]
 8000c54:	f023 030f 	bic.w	r3, r3, #15
 8000c58:	73fb      	strb	r3, [r7, #15]
	data_l = ((cmd<<4)&0xf0);
 8000c5a:	79fb      	ldrb	r3, [r7, #7]
 8000c5c:	011b      	lsls	r3, r3, #4
 8000c5e:	73bb      	strb	r3, [r7, #14]
	data_t[0] = data_u|0x0C;  //en=1, rs=0
 8000c60:	7bfb      	ldrb	r3, [r7, #15]
 8000c62:	f043 030c 	orr.w	r3, r3, #12
 8000c66:	b2db      	uxtb	r3, r3
 8000c68:	723b      	strb	r3, [r7, #8]
	data_t[1] = data_u|0x08;  //en=0, rs=0
 8000c6a:	7bfb      	ldrb	r3, [r7, #15]
 8000c6c:	f043 0308 	orr.w	r3, r3, #8
 8000c70:	b2db      	uxtb	r3, r3
 8000c72:	727b      	strb	r3, [r7, #9]
	data_t[2] = data_l|0x0C;  //en=1, rs=0
 8000c74:	7bbb      	ldrb	r3, [r7, #14]
 8000c76:	f043 030c 	orr.w	r3, r3, #12
 8000c7a:	b2db      	uxtb	r3, r3
 8000c7c:	72bb      	strb	r3, [r7, #10]
	data_t[3] = data_l|0x08;  //en=0, rs=0
 8000c7e:	7bbb      	ldrb	r3, [r7, #14]
 8000c80:	f043 0308 	orr.w	r3, r3, #8
 8000c84:	b2db      	uxtb	r3, r3
 8000c86:	72fb      	strb	r3, [r7, #11]
	HAL_I2C_Master_Transmit (&hi2c1, SLAVE_ADDRESS_LCD,(uint8_t *) data_t, 4, 100);
 8000c88:	f107 0208 	add.w	r2, r7, #8
 8000c8c:	2364      	movs	r3, #100	; 0x64
 8000c8e:	9300      	str	r3, [sp, #0]
 8000c90:	2304      	movs	r3, #4
 8000c92:	214e      	movs	r1, #78	; 0x4e
 8000c94:	4803      	ldr	r0, [pc, #12]	; (8000ca4 <lcd_send_cmd+0x5c>)
 8000c96:	f001 f83b 	bl	8001d10 <HAL_I2C_Master_Transmit>
}
 8000c9a:	bf00      	nop
 8000c9c:	3710      	adds	r7, #16
 8000c9e:	46bd      	mov	sp, r7
 8000ca0:	bd80      	pop	{r7, pc}
 8000ca2:	bf00      	nop
 8000ca4:	200001f8 	.word	0x200001f8

08000ca8 <lcd_send_data>:

void lcd_send_data (char data)
{
 8000ca8:	b580      	push	{r7, lr}
 8000caa:	b086      	sub	sp, #24
 8000cac:	af02      	add	r7, sp, #8
 8000cae:	4603      	mov	r3, r0
 8000cb0:	71fb      	strb	r3, [r7, #7]
	char data_u, data_l;
	uint8_t data_t[4];
	data_u = (data&0xf0);
 8000cb2:	79fb      	ldrb	r3, [r7, #7]
 8000cb4:	f023 030f 	bic.w	r3, r3, #15
 8000cb8:	73fb      	strb	r3, [r7, #15]
	data_l = ((data<<4)&0xf0);
 8000cba:	79fb      	ldrb	r3, [r7, #7]
 8000cbc:	011b      	lsls	r3, r3, #4
 8000cbe:	73bb      	strb	r3, [r7, #14]
	data_t[0] = data_u|0x0D;  //en=1, rs=0
 8000cc0:	7bfb      	ldrb	r3, [r7, #15]
 8000cc2:	f043 030d 	orr.w	r3, r3, #13
 8000cc6:	b2db      	uxtb	r3, r3
 8000cc8:	723b      	strb	r3, [r7, #8]
	data_t[1] = data_u|0x09;  //en=0, rs=0
 8000cca:	7bfb      	ldrb	r3, [r7, #15]
 8000ccc:	f043 0309 	orr.w	r3, r3, #9
 8000cd0:	b2db      	uxtb	r3, r3
 8000cd2:	727b      	strb	r3, [r7, #9]
	data_t[2] = data_l|0x0D;  //en=1, rs=0
 8000cd4:	7bbb      	ldrb	r3, [r7, #14]
 8000cd6:	f043 030d 	orr.w	r3, r3, #13
 8000cda:	b2db      	uxtb	r3, r3
 8000cdc:	72bb      	strb	r3, [r7, #10]
	data_t[3] = data_l|0x09;  //en=0, rs=0
 8000cde:	7bbb      	ldrb	r3, [r7, #14]
 8000ce0:	f043 0309 	orr.w	r3, r3, #9
 8000ce4:	b2db      	uxtb	r3, r3
 8000ce6:	72fb      	strb	r3, [r7, #11]
	HAL_I2C_Master_Transmit (&hi2c1, SLAVE_ADDRESS_LCD,(uint8_t *) data_t, 4, 100);
 8000ce8:	f107 0208 	add.w	r2, r7, #8
 8000cec:	2364      	movs	r3, #100	; 0x64
 8000cee:	9300      	str	r3, [sp, #0]
 8000cf0:	2304      	movs	r3, #4
 8000cf2:	214e      	movs	r1, #78	; 0x4e
 8000cf4:	4803      	ldr	r0, [pc, #12]	; (8000d04 <lcd_send_data+0x5c>)
 8000cf6:	f001 f80b 	bl	8001d10 <HAL_I2C_Master_Transmit>
}
 8000cfa:	bf00      	nop
 8000cfc:	3710      	adds	r7, #16
 8000cfe:	46bd      	mov	sp, r7
 8000d00:	bd80      	pop	{r7, pc}
 8000d02:	bf00      	nop
 8000d04:	200001f8 	.word	0x200001f8

08000d08 <lcd_put_cur>:
		lcd_send_data (' ');
	}
}

void lcd_put_cur(int row, int col)
{
 8000d08:	b580      	push	{r7, lr}
 8000d0a:	b082      	sub	sp, #8
 8000d0c:	af00      	add	r7, sp, #0
 8000d0e:	6078      	str	r0, [r7, #4]
 8000d10:	6039      	str	r1, [r7, #0]
    switch (row)
 8000d12:	687b      	ldr	r3, [r7, #4]
 8000d14:	2b00      	cmp	r3, #0
 8000d16:	d003      	beq.n	8000d20 <lcd_put_cur+0x18>
 8000d18:	687b      	ldr	r3, [r7, #4]
 8000d1a:	2b01      	cmp	r3, #1
 8000d1c:	d005      	beq.n	8000d2a <lcd_put_cur+0x22>
 8000d1e:	e009      	b.n	8000d34 <lcd_put_cur+0x2c>
    {
        case 0:
            col |= 0x80;
 8000d20:	683b      	ldr	r3, [r7, #0]
 8000d22:	f043 0380 	orr.w	r3, r3, #128	; 0x80
 8000d26:	603b      	str	r3, [r7, #0]
            break;
 8000d28:	e004      	b.n	8000d34 <lcd_put_cur+0x2c>
        case 1:
            col |= 0xC0;
 8000d2a:	683b      	ldr	r3, [r7, #0]
 8000d2c:	f043 03c0 	orr.w	r3, r3, #192	; 0xc0
 8000d30:	603b      	str	r3, [r7, #0]
            break;
 8000d32:	bf00      	nop
    }

    lcd_send_cmd (col);
 8000d34:	683b      	ldr	r3, [r7, #0]
 8000d36:	b2db      	uxtb	r3, r3
 8000d38:	4618      	mov	r0, r3
 8000d3a:	f7ff ff85 	bl	8000c48 <lcd_send_cmd>
}
 8000d3e:	bf00      	nop
 8000d40:	3708      	adds	r7, #8
 8000d42:	46bd      	mov	sp, r7
 8000d44:	bd80      	pop	{r7, pc}

08000d46 <lcd_init>:


void lcd_init (void)
{
 8000d46:	b580      	push	{r7, lr}
 8000d48:	af00      	add	r7, sp, #0
	// 4 bit initialisation
	HAL_Delay(50);  // wait for >40ms
 8000d4a:	2032      	movs	r0, #50	; 0x32
 8000d4c:	f000 fcd4 	bl	80016f8 <HAL_Delay>
	lcd_send_cmd (0x30);
 8000d50:	2030      	movs	r0, #48	; 0x30
 8000d52:	f7ff ff79 	bl	8000c48 <lcd_send_cmd>
	HAL_Delay(5);  // wait for >4.1ms
 8000d56:	2005      	movs	r0, #5
 8000d58:	f000 fcce 	bl	80016f8 <HAL_Delay>
	lcd_send_cmd (0x30);
 8000d5c:	2030      	movs	r0, #48	; 0x30
 8000d5e:	f7ff ff73 	bl	8000c48 <lcd_send_cmd>
	HAL_Delay(1);  // wait for >100us
 8000d62:	2001      	movs	r0, #1
 8000d64:	f000 fcc8 	bl	80016f8 <HAL_Delay>
	lcd_send_cmd (0x30);
 8000d68:	2030      	movs	r0, #48	; 0x30
 8000d6a:	f7ff ff6d 	bl	8000c48 <lcd_send_cmd>
	HAL_Delay(10);
 8000d6e:	200a      	movs	r0, #10
 8000d70:	f000 fcc2 	bl	80016f8 <HAL_Delay>
	lcd_send_cmd (0x20);  // 4bit mode
 8000d74:	2020      	movs	r0, #32
 8000d76:	f7ff ff67 	bl	8000c48 <lcd_send_cmd>
	HAL_Delay(10);
 8000d7a:	200a      	movs	r0, #10
 8000d7c:	f000 fcbc 	bl	80016f8 <HAL_Delay>

  // dislay initialisation
	lcd_send_cmd (0x28); // Function set --> DL=0 (4 bit mode), N = 1 (2 line display) F = 0 (5x8 characters)
 8000d80:	2028      	movs	r0, #40	; 0x28
 8000d82:	f7ff ff61 	bl	8000c48 <lcd_send_cmd>
	HAL_Delay(1);
 8000d86:	2001      	movs	r0, #1
 8000d88:	f000 fcb6 	bl	80016f8 <HAL_Delay>
	lcd_send_cmd (0x08); //Display on/off control --> D=0,C=0, B=0  ---> display off
 8000d8c:	2008      	movs	r0, #8
 8000d8e:	f7ff ff5b 	bl	8000c48 <lcd_send_cmd>
	HAL_Delay(1);
 8000d92:	2001      	movs	r0, #1
 8000d94:	f000 fcb0 	bl	80016f8 <HAL_Delay>
	lcd_send_cmd (0x01);  // clear display
 8000d98:	2001      	movs	r0, #1
 8000d9a:	f7ff ff55 	bl	8000c48 <lcd_send_cmd>
	HAL_Delay(1);
 8000d9e:	2001      	movs	r0, #1
 8000da0:	f000 fcaa 	bl	80016f8 <HAL_Delay>
	HAL_Delay(1);
 8000da4:	2001      	movs	r0, #1
 8000da6:	f000 fca7 	bl	80016f8 <HAL_Delay>
	lcd_send_cmd (0x06); //Entry mode set --> I/D = 1 (increment cursor) & S = 0 (no shift)
 8000daa:	2006      	movs	r0, #6
 8000dac:	f7ff ff4c 	bl	8000c48 <lcd_send_cmd>
	HAL_Delay(1);
 8000db0:	2001      	movs	r0, #1
 8000db2:	f000 fca1 	bl	80016f8 <HAL_Delay>
	lcd_send_cmd (0x0C); //Display on/off control --> D = 1, C and B = 0. (Cursor and blink, last two bits)
 8000db6:	200c      	movs	r0, #12
 8000db8:	f7ff ff46 	bl	8000c48 <lcd_send_cmd>
}
 8000dbc:	bf00      	nop
 8000dbe:	bd80      	pop	{r7, pc}

08000dc0 <lcd_send_string>:

void lcd_send_string (char *str)
{
 8000dc0:	b580      	push	{r7, lr}
 8000dc2:	b082      	sub	sp, #8
 8000dc4:	af00      	add	r7, sp, #0
 8000dc6:	6078      	str	r0, [r7, #4]
	while (*str) lcd_send_data (*str++);
 8000dc8:	e006      	b.n	8000dd8 <lcd_send_string+0x18>
 8000dca:	687b      	ldr	r3, [r7, #4]
 8000dcc:	1c5a      	adds	r2, r3, #1
 8000dce:	607a      	str	r2, [r7, #4]
 8000dd0:	781b      	ldrb	r3, [r3, #0]
 8000dd2:	4618      	mov	r0, r3
 8000dd4:	f7ff ff68 	bl	8000ca8 <lcd_send_data>
 8000dd8:	687b      	ldr	r3, [r7, #4]
 8000dda:	781b      	ldrb	r3, [r3, #0]
 8000ddc:	2b00      	cmp	r3, #0
 8000dde:	d1f4      	bne.n	8000dca <lcd_send_string+0xa>
}
 8000de0:	bf00      	nop
 8000de2:	bf00      	nop
 8000de4:	3708      	adds	r7, #8
 8000de6:	46bd      	mov	sp, r7
 8000de8:	bd80      	pop	{r7, pc}

08000dea <bcdToDec>:
{
  return (uint8_t)( (val/10*16) + (val%10) );
}
// Convert binary coded decimal to normal decimal numbers
int bcdToDec(uint8_t val)
{
 8000dea:	b480      	push	{r7}
 8000dec:	b083      	sub	sp, #12
 8000dee:	af00      	add	r7, sp, #0
 8000df0:	4603      	mov	r3, r0
 8000df2:	71fb      	strb	r3, [r7, #7]
  return (int)( (val/16*10) + (val%16) );
 8000df4:	79fb      	ldrb	r3, [r7, #7]
 8000df6:	091b      	lsrs	r3, r3, #4
 8000df8:	b2db      	uxtb	r3, r3
 8000dfa:	461a      	mov	r2, r3
 8000dfc:	4613      	mov	r3, r2
 8000dfe:	009b      	lsls	r3, r3, #2
 8000e00:	4413      	add	r3, r2
 8000e02:	005b      	lsls	r3, r3, #1
 8000e04:	461a      	mov	r2, r3
 8000e06:	79fb      	ldrb	r3, [r7, #7]
 8000e08:	f003 030f 	and.w	r3, r3, #15
 8000e0c:	4413      	add	r3, r2
}
 8000e0e:	4618      	mov	r0, r3
 8000e10:	370c      	adds	r7, #12
 8000e12:	46bd      	mov	sp, r7
 8000e14:	f85d 7b04 	ldr.w	r7, [sp], #4
 8000e18:	4770      	bx	lr
	...

08000e1c <Get_Time>:

	HAL_I2C_Mem_Write(&hi2c1, DS3231_ADDRESS, 0x00, 1, set_time, 7, 1000);
}

void Get_Time (void)
{
 8000e1c:	b580      	push	{r7, lr}
 8000e1e:	b086      	sub	sp, #24
 8000e20:	af04      	add	r7, sp, #16
	uint8_t get_time[7];
	HAL_I2C_Mem_Read(&hi2c1, DS3231_ADDRESS, 0x00, 1, get_time, 7, 1000);
 8000e22:	f44f 737a 	mov.w	r3, #1000	; 0x3e8
 8000e26:	9302      	str	r3, [sp, #8]
 8000e28:	2307      	movs	r3, #7
 8000e2a:	9301      	str	r3, [sp, #4]
 8000e2c:	463b      	mov	r3, r7
 8000e2e:	9300      	str	r3, [sp, #0]
 8000e30:	2301      	movs	r3, #1
 8000e32:	2200      	movs	r2, #0
 8000e34:	21d0      	movs	r1, #208	; 0xd0
 8000e36:	481f      	ldr	r0, [pc, #124]	; (8000eb4 <Get_Time+0x98>)
 8000e38:	f001 f972 	bl	8002120 <HAL_I2C_Mem_Read>
	time.seconds = bcdToDec(get_time[0]);
 8000e3c:	783b      	ldrb	r3, [r7, #0]
 8000e3e:	4618      	mov	r0, r3
 8000e40:	f7ff ffd3 	bl	8000dea <bcdToDec>
 8000e44:	4603      	mov	r3, r0
 8000e46:	b2da      	uxtb	r2, r3
 8000e48:	4b1b      	ldr	r3, [pc, #108]	; (8000eb8 <Get_Time+0x9c>)
 8000e4a:	701a      	strb	r2, [r3, #0]
	time.minutes = bcdToDec(get_time[1]);
 8000e4c:	787b      	ldrb	r3, [r7, #1]
 8000e4e:	4618      	mov	r0, r3
 8000e50:	f7ff ffcb 	bl	8000dea <bcdToDec>
 8000e54:	4603      	mov	r3, r0
 8000e56:	b2da      	uxtb	r2, r3
 8000e58:	4b17      	ldr	r3, [pc, #92]	; (8000eb8 <Get_Time+0x9c>)
 8000e5a:	705a      	strb	r2, [r3, #1]
	time.hour = bcdToDec(get_time[2]);
 8000e5c:	78bb      	ldrb	r3, [r7, #2]
 8000e5e:	4618      	mov	r0, r3
 8000e60:	f7ff ffc3 	bl	8000dea <bcdToDec>
 8000e64:	4603      	mov	r3, r0
 8000e66:	b2da      	uxtb	r2, r3
 8000e68:	4b13      	ldr	r3, [pc, #76]	; (8000eb8 <Get_Time+0x9c>)
 8000e6a:	709a      	strb	r2, [r3, #2]
	time.dayofweek = bcdToDec(get_time[3]);
 8000e6c:	78fb      	ldrb	r3, [r7, #3]
 8000e6e:	4618      	mov	r0, r3
 8000e70:	f7ff ffbb 	bl	8000dea <bcdToDec>
 8000e74:	4603      	mov	r3, r0
 8000e76:	b2da      	uxtb	r2, r3
 8000e78:	4b0f      	ldr	r3, [pc, #60]	; (8000eb8 <Get_Time+0x9c>)
 8000e7a:	70da      	strb	r2, [r3, #3]
	time.dayofmonth = bcdToDec(get_time[4]);
 8000e7c:	793b      	ldrb	r3, [r7, #4]
 8000e7e:	4618      	mov	r0, r3
 8000e80:	f7ff ffb3 	bl	8000dea <bcdToDec>
 8000e84:	4603      	mov	r3, r0
 8000e86:	b2da      	uxtb	r2, r3
 8000e88:	4b0b      	ldr	r3, [pc, #44]	; (8000eb8 <Get_Time+0x9c>)
 8000e8a:	711a      	strb	r2, [r3, #4]
	time.month = bcdToDec(get_time[5]);
 8000e8c:	797b      	ldrb	r3, [r7, #5]
 8000e8e:	4618      	mov	r0, r3
 8000e90:	f7ff ffab 	bl	8000dea <bcdToDec>
 8000e94:	4603      	mov	r3, r0
 8000e96:	b2da      	uxtb	r2, r3
 8000e98:	4b07      	ldr	r3, [pc, #28]	; (8000eb8 <Get_Time+0x9c>)
 8000e9a:	715a      	strb	r2, [r3, #5]
	time.year = bcdToDec(get_time[6]);
 8000e9c:	79bb      	ldrb	r3, [r7, #6]
 8000e9e:	4618      	mov	r0, r3
 8000ea0:	f7ff ffa3 	bl	8000dea <bcdToDec>
 8000ea4:	4603      	mov	r3, r0
 8000ea6:	b2da      	uxtb	r2, r3
 8000ea8:	4b03      	ldr	r3, [pc, #12]	; (8000eb8 <Get_Time+0x9c>)
 8000eaa:	719a      	strb	r2, [r3, #6]
}
 8000eac:	bf00      	nop
 8000eae:	3708      	adds	r7, #8
 8000eb0:	46bd      	mov	sp, r7
 8000eb2:	bd80      	pop	{r7, pc}
 8000eb4:	200001f8 	.word	0x200001f8
 8000eb8:	200002c8 	.word	0x200002c8

08000ebc <Get_Temp>:

float Get_Temp (void)
{
 8000ebc:	b5b0      	push	{r4, r5, r7, lr}
 8000ebe:	b086      	sub	sp, #24
 8000ec0:	af04      	add	r7, sp, #16
	uint8_t temp[2];

	HAL_I2C_Mem_Read(&hi2c1, DS3231_ADDRESS, 0x11, 1, temp, 2, 1000);
 8000ec2:	f44f 737a 	mov.w	r3, #1000	; 0x3e8
 8000ec6:	9302      	str	r3, [sp, #8]
 8000ec8:	2302      	movs	r3, #2
 8000eca:	9301      	str	r3, [sp, #4]
 8000ecc:	1d3b      	adds	r3, r7, #4
 8000ece:	9300      	str	r3, [sp, #0]
 8000ed0:	2301      	movs	r3, #1
 8000ed2:	2211      	movs	r2, #17
 8000ed4:	21d0      	movs	r1, #208	; 0xd0
 8000ed6:	4814      	ldr	r0, [pc, #80]	; (8000f28 <Get_Temp+0x6c>)
 8000ed8:	f001 f922 	bl	8002120 <HAL_I2C_Mem_Read>
	return ((temp[0])+(temp[1]>>6)/4.0);
 8000edc:	793b      	ldrb	r3, [r7, #4]
 8000ede:	4618      	mov	r0, r3
 8000ee0:	f7ff fb20 	bl	8000524 <__aeabi_i2d>
 8000ee4:	4604      	mov	r4, r0
 8000ee6:	460d      	mov	r5, r1
 8000ee8:	797b      	ldrb	r3, [r7, #5]
 8000eea:	099b      	lsrs	r3, r3, #6
 8000eec:	b2db      	uxtb	r3, r3
 8000eee:	4618      	mov	r0, r3
 8000ef0:	f7ff fb18 	bl	8000524 <__aeabi_i2d>
 8000ef4:	f04f 0200 	mov.w	r2, #0
 8000ef8:	4b0c      	ldr	r3, [pc, #48]	; (8000f2c <Get_Temp+0x70>)
 8000efa:	f7ff fca7 	bl	800084c <__aeabi_ddiv>
 8000efe:	4602      	mov	r2, r0
 8000f00:	460b      	mov	r3, r1
 8000f02:	4620      	mov	r0, r4
 8000f04:	4629      	mov	r1, r5
 8000f06:	f7ff f9c1 	bl	800028c <__adddf3>
 8000f0a:	4602      	mov	r2, r0
 8000f0c:	460b      	mov	r3, r1
 8000f0e:	4610      	mov	r0, r2
 8000f10:	4619      	mov	r1, r3
 8000f12:	f7ff fe49 	bl	8000ba8 <__aeabi_d2f>
 8000f16:	4603      	mov	r3, r0
 8000f18:	ee07 3a90 	vmov	s15, r3
}
 8000f1c:	eeb0 0a67 	vmov.f32	s0, s15
 8000f20:	3708      	adds	r7, #8
 8000f22:	46bd      	mov	sp, r7
 8000f24:	bdb0      	pop	{r4, r5, r7, pc}
 8000f26:	bf00      	nop
 8000f28:	200001f8 	.word	0x200001f8
 8000f2c:	40100000 	.word	0x40100000

08000f30 <force_temp_conv>:

void force_temp_conv (void)
{
 8000f30:	b580      	push	{r7, lr}
 8000f32:	b086      	sub	sp, #24
 8000f34:	af04      	add	r7, sp, #16
	uint8_t status=0;
 8000f36:	2300      	movs	r3, #0
 8000f38:	71fb      	strb	r3, [r7, #7]
	uint8_t control=0;
 8000f3a:	2300      	movs	r3, #0
 8000f3c:	71bb      	strb	r3, [r7, #6]
	HAL_I2C_Mem_Read(&hi2c1, DS3231_ADDRESS, 0x0F, 1, &status, 1, 100);  // read status register
 8000f3e:	2364      	movs	r3, #100	; 0x64
 8000f40:	9302      	str	r3, [sp, #8]
 8000f42:	2301      	movs	r3, #1
 8000f44:	9301      	str	r3, [sp, #4]
 8000f46:	1dfb      	adds	r3, r7, #7
 8000f48:	9300      	str	r3, [sp, #0]
 8000f4a:	2301      	movs	r3, #1
 8000f4c:	220f      	movs	r2, #15
 8000f4e:	21d0      	movs	r1, #208	; 0xd0
 8000f50:	4813      	ldr	r0, [pc, #76]	; (8000fa0 <force_temp_conv+0x70>)
 8000f52:	f001 f8e5 	bl	8002120 <HAL_I2C_Mem_Read>
	if (!(status&0x04))
 8000f56:	79fb      	ldrb	r3, [r7, #7]
 8000f58:	f003 0304 	and.w	r3, r3, #4
 8000f5c:	2b00      	cmp	r3, #0
 8000f5e:	d11b      	bne.n	8000f98 <force_temp_conv+0x68>
	{
		HAL_I2C_Mem_Read(&hi2c1, DS3231_ADDRESS, 0x0E, 1, &control, 1, 100);  // read control register
 8000f60:	2364      	movs	r3, #100	; 0x64
 8000f62:	9302      	str	r3, [sp, #8]
 8000f64:	2301      	movs	r3, #1
 8000f66:	9301      	str	r3, [sp, #4]
 8000f68:	1dbb      	adds	r3, r7, #6
 8000f6a:	9300      	str	r3, [sp, #0]
 8000f6c:	2301      	movs	r3, #1
 8000f6e:	220e      	movs	r2, #14
 8000f70:	21d0      	movs	r1, #208	; 0xd0
 8000f72:	480b      	ldr	r0, [pc, #44]	; (8000fa0 <force_temp_conv+0x70>)
 8000f74:	f001 f8d4 	bl	8002120 <HAL_I2C_Mem_Read>
		HAL_I2C_Mem_Write(&hi2c1, DS3231_ADDRESS, 0x0E, 1, (uint8_t *)(control|(0x20)), 1, 100);
 8000f78:	79bb      	ldrb	r3, [r7, #6]
 8000f7a:	f043 0320 	orr.w	r3, r3, #32
 8000f7e:	b2db      	uxtb	r3, r3
 8000f80:	461a      	mov	r2, r3
 8000f82:	2364      	movs	r3, #100	; 0x64
 8000f84:	9302      	str	r3, [sp, #8]
 8000f86:	2301      	movs	r3, #1
 8000f88:	9301      	str	r3, [sp, #4]
 8000f8a:	9200      	str	r2, [sp, #0]
 8000f8c:	2301      	movs	r3, #1
 8000f8e:	220e      	movs	r2, #14
 8000f90:	21d0      	movs	r1, #208	; 0xd0
 8000f92:	4803      	ldr	r0, [pc, #12]	; (8000fa0 <force_temp_conv+0x70>)
 8000f94:	f000 ffb0 	bl	8001ef8 <HAL_I2C_Mem_Write>
	}
}
 8000f98:	bf00      	nop
 8000f9a:	3708      	adds	r7, #8
 8000f9c:	46bd      	mov	sp, r7
 8000f9e:	bd80      	pop	{r7, pc}
 8000fa0:	200001f8 	.word	0x200001f8

08000fa4 <main>:
/**
  * @brief  The application entry point.
  * @retval int
  */
int main(void)
{
 8000fa4:	b580      	push	{r7, lr}
 8000fa6:	b082      	sub	sp, #8
 8000fa8:	af02      	add	r7, sp, #8
  /* USER CODE END 1 */

  /* MCU Configuration--------------------------------------------------------*/

  /* Reset of all peripherals, Initializes the Flash interface and the Systick. */
  HAL_Init();
 8000faa:	f000 fb3f 	bl	800162c <HAL_Init>
  /* USER CODE BEGIN Init */

  /* USER CODE END Init */

  /* Configure the system clock */
  SystemClock_Config();
 8000fae:	f000 f861 	bl	8001074 <SystemClock_Config>
  /* USER CODE BEGIN SysInit */

  /* USER CODE END SysInit */

  /* Initialize all configured peripherals */
  MX_GPIO_Init();
 8000fb2:	f000 f92d 	bl	8001210 <MX_GPIO_Init>
  MX_USART2_UART_Init();
 8000fb6:	f000 f8fb 	bl	80011b0 <MX_USART2_UART_Init>
  MX_I2C1_Init();
 8000fba:	f000 f8b9 	bl	8001130 <MX_I2C1_Init>
  /* USER CODE BEGIN 2 */

  lcd_init ();
 8000fbe:	f7ff fec2 	bl	8000d46 <lcd_init>
  {
    /* USER CODE END WHILE */

    /* USER CODE BEGIN 3 */

	  Get_Time();
 8000fc2:	f7ff ff2b 	bl	8000e1c <Get_Time>
	  sprintf (buffer, "%02d:%02d:%02d", time.hour, time.minutes, time.seconds);
 8000fc6:	4b25      	ldr	r3, [pc, #148]	; (800105c <main+0xb8>)
 8000fc8:	789b      	ldrb	r3, [r3, #2]
 8000fca:	461a      	mov	r2, r3
 8000fcc:	4b23      	ldr	r3, [pc, #140]	; (800105c <main+0xb8>)
 8000fce:	785b      	ldrb	r3, [r3, #1]
 8000fd0:	4619      	mov	r1, r3
 8000fd2:	4b22      	ldr	r3, [pc, #136]	; (800105c <main+0xb8>)
 8000fd4:	781b      	ldrb	r3, [r3, #0]
 8000fd6:	9300      	str	r3, [sp, #0]
 8000fd8:	460b      	mov	r3, r1
 8000fda:	4921      	ldr	r1, [pc, #132]	; (8001060 <main+0xbc>)
 8000fdc:	4821      	ldr	r0, [pc, #132]	; (8001064 <main+0xc0>)
 8000fde:	f003 ffe7 	bl	8004fb0 <siprintf>
	  lcd_put_cur (0,0);
 8000fe2:	2100      	movs	r1, #0
 8000fe4:	2000      	movs	r0, #0
 8000fe6:	f7ff fe8f 	bl	8000d08 <lcd_put_cur>
	  lcd_send_string(buffer);
 8000fea:	481e      	ldr	r0, [pc, #120]	; (8001064 <main+0xc0>)
 8000fec:	f7ff fee8 	bl	8000dc0 <lcd_send_string>

	  sprintf (buffer, "%02d-%02d-20%02d", time.dayofmonth, time.month, time.year);
 8000ff0:	4b1a      	ldr	r3, [pc, #104]	; (800105c <main+0xb8>)
 8000ff2:	791b      	ldrb	r3, [r3, #4]
 8000ff4:	461a      	mov	r2, r3
 8000ff6:	4b19      	ldr	r3, [pc, #100]	; (800105c <main+0xb8>)
 8000ff8:	795b      	ldrb	r3, [r3, #5]
 8000ffa:	4619      	mov	r1, r3
 8000ffc:	4b17      	ldr	r3, [pc, #92]	; (800105c <main+0xb8>)
 8000ffe:	799b      	ldrb	r3, [r3, #6]
 8001000:	9300      	str	r3, [sp, #0]
 8001002:	460b      	mov	r3, r1
 8001004:	4918      	ldr	r1, [pc, #96]	; (8001068 <main+0xc4>)
 8001006:	4817      	ldr	r0, [pc, #92]	; (8001064 <main+0xc0>)
 8001008:	f003 ffd2 	bl	8004fb0 <siprintf>
	  lcd_put_cur(1, 0);
 800100c:	2100      	movs	r1, #0
 800100e:	2001      	movs	r0, #1
 8001010:	f7ff fe7a 	bl	8000d08 <lcd_put_cur>
	  lcd_send_string(buffer);
 8001014:	4813      	ldr	r0, [pc, #76]	; (8001064 <main+0xc0>)
 8001016:	f7ff fed3 	bl	8000dc0 <lcd_send_string>

	  force_temp_conv();
 800101a:	f7ff ff89 	bl	8000f30 <force_temp_conv>

	  TEMP = Get_Temp();
 800101e:	f7ff ff4d 	bl	8000ebc <Get_Temp>
 8001022:	eef0 7a40 	vmov.f32	s15, s0
 8001026:	4b11      	ldr	r3, [pc, #68]	; (800106c <main+0xc8>)
 8001028:	edc3 7a00 	vstr	s15, [r3]

	  lcd_put_cur(0, 10);
 800102c:	210a      	movs	r1, #10
 800102e:	2000      	movs	r0, #0
 8001030:	f7ff fe6a 	bl	8000d08 <lcd_put_cur>

	  sprintf (buffer, "%f", TEMP);
 8001034:	4b0d      	ldr	r3, [pc, #52]	; (800106c <main+0xc8>)
 8001036:	681b      	ldr	r3, [r3, #0]
 8001038:	4618      	mov	r0, r3
 800103a:	f7ff fa85 	bl	8000548 <__aeabi_f2d>
 800103e:	4602      	mov	r2, r0
 8001040:	460b      	mov	r3, r1
 8001042:	490b      	ldr	r1, [pc, #44]	; (8001070 <main+0xcc>)
 8001044:	4807      	ldr	r0, [pc, #28]	; (8001064 <main+0xc0>)
 8001046:	f003 ffb3 	bl	8004fb0 <siprintf>

	  lcd_send_string(buffer);
 800104a:	4806      	ldr	r0, [pc, #24]	; (8001064 <main+0xc0>)
 800104c:	f7ff feb8 	bl	8000dc0 <lcd_send_string>

	  HAL_Delay(500);
 8001050:	f44f 70fa 	mov.w	r0, #500	; 0x1f4
 8001054:	f000 fb50 	bl	80016f8 <HAL_Delay>
	  Get_Time();
 8001058:	e7b3      	b.n	8000fc2 <main+0x1e>
 800105a:	bf00      	nop
 800105c:	200002c8 	.word	0x200002c8
 8001060:	080074b8 	.word	0x080074b8
 8001064:	200002d4 	.word	0x200002d4
 8001068:	080074c8 	.word	0x080074c8
 800106c:	200002d0 	.word	0x200002d0
 8001070:	080074dc 	.word	0x080074dc

08001074 <SystemClock_Config>:
/**
  * @brief System Clock Configuration
  * @retval None
  */
void SystemClock_Config(void)
{
 8001074:	b580      	push	{r7, lr}
 8001076:	b096      	sub	sp, #88	; 0x58
 8001078:	af00      	add	r7, sp, #0
  RCC_OscInitTypeDef RCC_OscInitStruct = {0};
 800107a:	f107 0330 	add.w	r3, r7, #48	; 0x30
 800107e:	2228      	movs	r2, #40	; 0x28
 8001080:	2100      	movs	r1, #0
 8001082:	4618      	mov	r0, r3
 8001084:	f003 fb22 	bl	80046cc <memset>
  RCC_ClkInitTypeDef RCC_ClkInitStruct = {0};
 8001088:	f107 031c 	add.w	r3, r7, #28
 800108c:	2200      	movs	r2, #0
 800108e:	601a      	str	r2, [r3, #0]
 8001090:	605a      	str	r2, [r3, #4]
 8001092:	609a      	str	r2, [r3, #8]
 8001094:	60da      	str	r2, [r3, #12]
 8001096:	611a      	str	r2, [r3, #16]
  RCC_PeriphCLKInitTypeDef PeriphClkInit = {0};
 8001098:	1d3b      	adds	r3, r7, #4
 800109a:	2200      	movs	r2, #0
 800109c:	601a      	str	r2, [r3, #0]
 800109e:	605a      	str	r2, [r3, #4]
 80010a0:	609a      	str	r2, [r3, #8]
 80010a2:	60da      	str	r2, [r3, #12]
 80010a4:	611a      	str	r2, [r3, #16]
 80010a6:	615a      	str	r2, [r3, #20]

  /** Initializes the RCC Oscillators according to the specified parameters
  * in the RCC_OscInitTypeDef structure.
  */
  RCC_OscInitStruct.OscillatorType = RCC_OSCILLATORTYPE_HSI|RCC_OSCILLATORTYPE_HSE;
 80010a8:	2303      	movs	r3, #3
 80010aa:	633b      	str	r3, [r7, #48]	; 0x30
  RCC_OscInitStruct.HSEState = RCC_HSE_ON;
 80010ac:	f44f 3380 	mov.w	r3, #65536	; 0x10000
 80010b0:	637b      	str	r3, [r7, #52]	; 0x34
  RCC_OscInitStruct.HSEPredivValue = RCC_HSE_PREDIV_DIV1;
 80010b2:	2300      	movs	r3, #0
 80010b4:	63bb      	str	r3, [r7, #56]	; 0x38
  RCC_OscInitStruct.HSIState = RCC_HSI_ON;
 80010b6:	2301      	movs	r3, #1
 80010b8:	643b      	str	r3, [r7, #64]	; 0x40
  RCC_OscInitStruct.HSICalibrationValue = RCC_HSICALIBRATION_DEFAULT;
 80010ba:	2310      	movs	r3, #16
 80010bc:	647b      	str	r3, [r7, #68]	; 0x44
  RCC_OscInitStruct.PLL.PLLState = RCC_PLL_ON;
 80010be:	2302      	movs	r3, #2
 80010c0:	64fb      	str	r3, [r7, #76]	; 0x4c
  RCC_OscInitStruct.PLL.PLLSource = RCC_PLLSOURCE_HSE;
 80010c2:	f44f 3380 	mov.w	r3, #65536	; 0x10000
 80010c6:	653b      	str	r3, [r7, #80]	; 0x50
  RCC_OscInitStruct.PLL.PLLMUL = RCC_PLL_MUL9;
 80010c8:	f44f 13e0 	mov.w	r3, #1835008	; 0x1c0000
 80010cc:	657b      	str	r3, [r7, #84]	; 0x54
  if (HAL_RCC_OscConfig(&RCC_OscInitStruct) != HAL_OK)
 80010ce:	f107 0330 	add.w	r3, r7, #48	; 0x30
 80010d2:	4618      	mov	r0, r3
 80010d4:	f001 fc02 	bl	80028dc <HAL_RCC_OscConfig>
 80010d8:	4603      	mov	r3, r0
 80010da:	2b00      	cmp	r3, #0
 80010dc:	d001      	beq.n	80010e2 <SystemClock_Config+0x6e>
  {
    Error_Handler();
 80010de:	f000 f8c7 	bl	8001270 <Error_Handler>
  }

  /** Initializes the CPU, AHB and APB buses clocks
  */
  RCC_ClkInitStruct.ClockType = RCC_CLOCKTYPE_HCLK|RCC_CLOCKTYPE_SYSCLK
 80010e2:	230f      	movs	r3, #15
 80010e4:	61fb      	str	r3, [r7, #28]
                              |RCC_CLOCKTYPE_PCLK1|RCC_CLOCKTYPE_PCLK2;
  RCC_ClkInitStruct.SYSCLKSource = RCC_SYSCLKSOURCE_PLLCLK;
 80010e6:	2302      	movs	r3, #2
 80010e8:	623b      	str	r3, [r7, #32]
  RCC_ClkInitStruct.AHBCLKDivider = RCC_SYSCLK_DIV1;
 80010ea:	2300      	movs	r3, #0
 80010ec:	627b      	str	r3, [r7, #36]	; 0x24
  RCC_ClkInitStruct.APB1CLKDivider = RCC_HCLK_DIV2;
 80010ee:	f44f 6380 	mov.w	r3, #1024	; 0x400
 80010f2:	62bb      	str	r3, [r7, #40]	; 0x28
  RCC_ClkInitStruct.APB2CLKDivider = RCC_HCLK_DIV1;
 80010f4:	2300      	movs	r3, #0
 80010f6:	62fb      	str	r3, [r7, #44]	; 0x2c

  if (HAL_RCC_ClockConfig(&RCC_ClkInitStruct, FLASH_LATENCY_2) != HAL_OK)
 80010f8:	f107 031c 	add.w	r3, r7, #28
 80010fc:	2102      	movs	r1, #2
 80010fe:	4618      	mov	r0, r3
 8001100:	f002 fc2a 	bl	8003958 <HAL_RCC_ClockConfig>
 8001104:	4603      	mov	r3, r0
 8001106:	2b00      	cmp	r3, #0
 8001108:	d001      	beq.n	800110e <SystemClock_Config+0x9a>
  {
    Error_Handler();
 800110a:	f000 f8b1 	bl	8001270 <Error_Handler>
  }
  PeriphClkInit.PeriphClockSelection = RCC_PERIPHCLK_I2C1;
 800110e:	2320      	movs	r3, #32
 8001110:	607b      	str	r3, [r7, #4]
  PeriphClkInit.I2c1ClockSelection = RCC_I2C1CLKSOURCE_HSI;
 8001112:	2300      	movs	r3, #0
 8001114:	613b      	str	r3, [r7, #16]
  if (HAL_RCCEx_PeriphCLKConfig(&PeriphClkInit) != HAL_OK)
 8001116:	1d3b      	adds	r3, r7, #4
 8001118:	4618      	mov	r0, r3
 800111a:	f002 fe53 	bl	8003dc4 <HAL_RCCEx_PeriphCLKConfig>
 800111e:	4603      	mov	r3, r0
 8001120:	2b00      	cmp	r3, #0
 8001122:	d001      	beq.n	8001128 <SystemClock_Config+0xb4>
  {
    Error_Handler();
 8001124:	f000 f8a4 	bl	8001270 <Error_Handler>
  }
}
 8001128:	bf00      	nop
 800112a:	3758      	adds	r7, #88	; 0x58
 800112c:	46bd      	mov	sp, r7
 800112e:	bd80      	pop	{r7, pc}

08001130 <MX_I2C1_Init>:
  * @brief I2C1 Initialization Function
  * @param None
  * @retval None
  */
static void MX_I2C1_Init(void)
{
 8001130:	b580      	push	{r7, lr}
 8001132:	af00      	add	r7, sp, #0
  /* USER CODE END I2C1_Init 0 */

  /* USER CODE BEGIN I2C1_Init 1 */

  /* USER CODE END I2C1_Init 1 */
  hi2c1.Instance = I2C1;
 8001134:	4b1b      	ldr	r3, [pc, #108]	; (80011a4 <MX_I2C1_Init+0x74>)
 8001136:	4a1c      	ldr	r2, [pc, #112]	; (80011a8 <MX_I2C1_Init+0x78>)
 8001138:	601a      	str	r2, [r3, #0]
  hi2c1.Init.Timing = 0x2000090E;
 800113a:	4b1a      	ldr	r3, [pc, #104]	; (80011a4 <MX_I2C1_Init+0x74>)
 800113c:	4a1b      	ldr	r2, [pc, #108]	; (80011ac <MX_I2C1_Init+0x7c>)
 800113e:	605a      	str	r2, [r3, #4]
  hi2c1.Init.OwnAddress1 = 0;
 8001140:	4b18      	ldr	r3, [pc, #96]	; (80011a4 <MX_I2C1_Init+0x74>)
 8001142:	2200      	movs	r2, #0
 8001144:	609a      	str	r2, [r3, #8]
  hi2c1.Init.AddressingMode = I2C_ADDRESSINGMODE_7BIT;
 8001146:	4b17      	ldr	r3, [pc, #92]	; (80011a4 <MX_I2C1_Init+0x74>)
 8001148:	2201      	movs	r2, #1
 800114a:	60da      	str	r2, [r3, #12]
  hi2c1.Init.DualAddressMode = I2C_DUALADDRESS_DISABLE;
 800114c:	4b15      	ldr	r3, [pc, #84]	; (80011a4 <MX_I2C1_Init+0x74>)
 800114e:	2200      	movs	r2, #0
 8001150:	611a      	str	r2, [r3, #16]
  hi2c1.Init.OwnAddress2 = 0;
 8001152:	4b14      	ldr	r3, [pc, #80]	; (80011a4 <MX_I2C1_Init+0x74>)
 8001154:	2200      	movs	r2, #0
 8001156:	615a      	str	r2, [r3, #20]
  hi2c1.Init.OwnAddress2Masks = I2C_OA2_NOMASK;
 8001158:	4b12      	ldr	r3, [pc, #72]	; (80011a4 <MX_I2C1_Init+0x74>)
 800115a:	2200      	movs	r2, #0
 800115c:	619a      	str	r2, [r3, #24]
  hi2c1.Init.GeneralCallMode = I2C_GENERALCALL_DISABLE;
 800115e:	4b11      	ldr	r3, [pc, #68]	; (80011a4 <MX_I2C1_Init+0x74>)
 8001160:	2200      	movs	r2, #0
 8001162:	61da      	str	r2, [r3, #28]
  hi2c1.Init.NoStretchMode = I2C_NOSTRETCH_DISABLE;
 8001164:	4b0f      	ldr	r3, [pc, #60]	; (80011a4 <MX_I2C1_Init+0x74>)
 8001166:	2200      	movs	r2, #0
 8001168:	621a      	str	r2, [r3, #32]
  if (HAL_I2C_Init(&hi2c1) != HAL_OK)
 800116a:	480e      	ldr	r0, [pc, #56]	; (80011a4 <MX_I2C1_Init+0x74>)
 800116c:	f000 fd40 	bl	8001bf0 <HAL_I2C_Init>
 8001170:	4603      	mov	r3, r0
 8001172:	2b00      	cmp	r3, #0
 8001174:	d001      	beq.n	800117a <MX_I2C1_Init+0x4a>
  {
    Error_Handler();
 8001176:	f000 f87b 	bl	8001270 <Error_Handler>
  }

  /** Configure Analogue filter
  */
  if (HAL_I2CEx_ConfigAnalogFilter(&hi2c1, I2C_ANALOGFILTER_ENABLE) != HAL_OK)
 800117a:	2100      	movs	r1, #0
 800117c:	4809      	ldr	r0, [pc, #36]	; (80011a4 <MX_I2C1_Init+0x74>)
 800117e:	f001 fb15 	bl	80027ac <HAL_I2CEx_ConfigAnalogFilter>
 8001182:	4603      	mov	r3, r0
 8001184:	2b00      	cmp	r3, #0
 8001186:	d001      	beq.n	800118c <MX_I2C1_Init+0x5c>
  {
    Error_Handler();
 8001188:	f000 f872 	bl	8001270 <Error_Handler>
  }

  /** Configure Digital filter
  */
  if (HAL_I2CEx_ConfigDigitalFilter(&hi2c1, 0) != HAL_OK)
 800118c:	2100      	movs	r1, #0
 800118e:	4805      	ldr	r0, [pc, #20]	; (80011a4 <MX_I2C1_Init+0x74>)
 8001190:	f001 fb57 	bl	8002842 <HAL_I2CEx_ConfigDigitalFilter>
 8001194:	4603      	mov	r3, r0
 8001196:	2b00      	cmp	r3, #0
 8001198:	d001      	beq.n	800119e <MX_I2C1_Init+0x6e>
  {
    Error_Handler();
 800119a:	f000 f869 	bl	8001270 <Error_Handler>
  }
  /* USER CODE BEGIN I2C1_Init 2 */

  /* USER CODE END I2C1_Init 2 */

}
 800119e:	bf00      	nop
 80011a0:	bd80      	pop	{r7, pc}
 80011a2:	bf00      	nop
 80011a4:	200001f8 	.word	0x200001f8
 80011a8:	40005400 	.word	0x40005400
 80011ac:	2000090e 	.word	0x2000090e

080011b0 <MX_USART2_UART_Init>:
  * @brief USART2 Initialization Function
  * @param None
  * @retval None
  */
static void MX_USART2_UART_Init(void)
{
 80011b0:	b580      	push	{r7, lr}
 80011b2:	af00      	add	r7, sp, #0
  /* USER CODE END USART2_Init 0 */

  /* USER CODE BEGIN USART2_Init 1 */

  /* USER CODE END USART2_Init 1 */
  huart2.Instance = USART2;
 80011b4:	4b14      	ldr	r3, [pc, #80]	; (8001208 <MX_USART2_UART_Init+0x58>)
 80011b6:	4a15      	ldr	r2, [pc, #84]	; (800120c <MX_USART2_UART_Init+0x5c>)
 80011b8:	601a      	str	r2, [r3, #0]
  huart2.Init.BaudRate = 38400;
 80011ba:	4b13      	ldr	r3, [pc, #76]	; (8001208 <MX_USART2_UART_Init+0x58>)
 80011bc:	f44f 4216 	mov.w	r2, #38400	; 0x9600
 80011c0:	605a      	str	r2, [r3, #4]
  huart2.Init.WordLength = UART_WORDLENGTH_8B;
 80011c2:	4b11      	ldr	r3, [pc, #68]	; (8001208 <MX_USART2_UART_Init+0x58>)
 80011c4:	2200      	movs	r2, #0
 80011c6:	609a      	str	r2, [r3, #8]
  huart2.Init.StopBits = UART_STOPBITS_1;
 80011c8:	4b0f      	ldr	r3, [pc, #60]	; (8001208 <MX_USART2_UART_Init+0x58>)
 80011ca:	2200      	movs	r2, #0
 80011cc:	60da      	str	r2, [r3, #12]
  huart2.Init.Parity = UART_PARITY_NONE;
 80011ce:	4b0e      	ldr	r3, [pc, #56]	; (8001208 <MX_USART2_UART_Init+0x58>)
 80011d0:	2200      	movs	r2, #0
 80011d2:	611a      	str	r2, [r3, #16]
  huart2.Init.Mode = UART_MODE_TX_RX;
 80011d4:	4b0c      	ldr	r3, [pc, #48]	; (8001208 <MX_USART2_UART_Init+0x58>)
 80011d6:	220c      	movs	r2, #12
 80011d8:	615a      	str	r2, [r3, #20]
  huart2.Init.HwFlowCtl = UART_HWCONTROL_NONE;
 80011da:	4b0b      	ldr	r3, [pc, #44]	; (8001208 <MX_USART2_UART_Init+0x58>)
 80011dc:	2200      	movs	r2, #0
 80011de:	619a      	str	r2, [r3, #24]
  huart2.Init.OverSampling = UART_OVERSAMPLING_16;
 80011e0:	4b09      	ldr	r3, [pc, #36]	; (8001208 <MX_USART2_UART_Init+0x58>)
 80011e2:	2200      	movs	r2, #0
 80011e4:	61da      	str	r2, [r3, #28]
  huart2.Init.OneBitSampling = UART_ONE_BIT_SAMPLE_DISABLE;
 80011e6:	4b08      	ldr	r3, [pc, #32]	; (8001208 <MX_USART2_UART_Init+0x58>)
 80011e8:	2200      	movs	r2, #0
 80011ea:	621a      	str	r2, [r3, #32]
  huart2.AdvancedInit.AdvFeatureInit = UART_ADVFEATURE_NO_INIT;
 80011ec:	4b06      	ldr	r3, [pc, #24]	; (8001208 <MX_USART2_UART_Init+0x58>)
 80011ee:	2200      	movs	r2, #0
 80011f0:	625a      	str	r2, [r3, #36]	; 0x24
  if (HAL_UART_Init(&huart2) != HAL_OK)
 80011f2:	4805      	ldr	r0, [pc, #20]	; (8001208 <MX_USART2_UART_Init+0x58>)
 80011f4:	f002 ff0c 	bl	8004010 <HAL_UART_Init>
 80011f8:	4603      	mov	r3, r0
 80011fa:	2b00      	cmp	r3, #0
 80011fc:	d001      	beq.n	8001202 <MX_USART2_UART_Init+0x52>
  {
    Error_Handler();
 80011fe:	f000 f837 	bl	8001270 <Error_Handler>
  }
  /* USER CODE BEGIN USART2_Init 2 */

  /* USER CODE END USART2_Init 2 */

}
 8001202:	bf00      	nop
 8001204:	bd80      	pop	{r7, pc}
 8001206:	bf00      	nop
 8001208:	20000244 	.word	0x20000244
 800120c:	40004400 	.word	0x40004400

08001210 <MX_GPIO_Init>:
  * @brief GPIO Initialization Function
  * @param None
  * @retval None
  */
static void MX_GPIO_Init(void)
{
 8001210:	b480      	push	{r7}
 8001212:	b085      	sub	sp, #20
 8001214:	af00      	add	r7, sp, #0

  /* GPIO Ports Clock Enable */
  __HAL_RCC_GPIOF_CLK_ENABLE();
 8001216:	4b15      	ldr	r3, [pc, #84]	; (800126c <MX_GPIO_Init+0x5c>)
 8001218:	695b      	ldr	r3, [r3, #20]
 800121a:	4a14      	ldr	r2, [pc, #80]	; (800126c <MX_GPIO_Init+0x5c>)
 800121c:	f443 0380 	orr.w	r3, r3, #4194304	; 0x400000
 8001220:	6153      	str	r3, [r2, #20]
 8001222:	4b12      	ldr	r3, [pc, #72]	; (800126c <MX_GPIO_Init+0x5c>)
 8001224:	695b      	ldr	r3, [r3, #20]
 8001226:	f403 0380 	and.w	r3, r3, #4194304	; 0x400000
 800122a:	60fb      	str	r3, [r7, #12]
 800122c:	68fb      	ldr	r3, [r7, #12]
  __HAL_RCC_GPIOA_CLK_ENABLE();
 800122e:	4b0f      	ldr	r3, [pc, #60]	; (800126c <MX_GPIO_Init+0x5c>)
 8001230:	695b      	ldr	r3, [r3, #20]
 8001232:	4a0e      	ldr	r2, [pc, #56]	; (800126c <MX_GPIO_Init+0x5c>)
 8001234:	f443 3300 	orr.w	r3, r3, #131072	; 0x20000
 8001238:	6153      	str	r3, [r2, #20]
 800123a:	4b0c      	ldr	r3, [pc, #48]	; (800126c <MX_GPIO_Init+0x5c>)
 800123c:	695b      	ldr	r3, [r3, #20]
 800123e:	f403 3300 	and.w	r3, r3, #131072	; 0x20000
 8001242:	60bb      	str	r3, [r7, #8]
 8001244:	68bb      	ldr	r3, [r7, #8]
  __HAL_RCC_GPIOB_CLK_ENABLE();
 8001246:	4b09      	ldr	r3, [pc, #36]	; (800126c <MX_GPIO_Init+0x5c>)
 8001248:	695b      	ldr	r3, [r3, #20]
 800124a:	4a08      	ldr	r2, [pc, #32]	; (800126c <MX_GPIO_Init+0x5c>)
 800124c:	f443 2380 	orr.w	r3, r3, #262144	; 0x40000
 8001250:	6153      	str	r3, [r2, #20]
 8001252:	4b06      	ldr	r3, [pc, #24]	; (800126c <MX_GPIO_Init+0x5c>)
 8001254:	695b      	ldr	r3, [r3, #20]
 8001256:	f403 2380 	and.w	r3, r3, #262144	; 0x40000
 800125a:	607b      	str	r3, [r7, #4]
 800125c:	687b      	ldr	r3, [r7, #4]

}
 800125e:	bf00      	nop
 8001260:	3714      	adds	r7, #20
 8001262:	46bd      	mov	sp, r7
 8001264:	f85d 7b04 	ldr.w	r7, [sp], #4
 8001268:	4770      	bx	lr
 800126a:	bf00      	nop
 800126c:	40021000 	.word	0x40021000

08001270 <Error_Handler>:
/**
  * @brief  This function is executed in case of error occurrence.
  * @retval None
  */
void Error_Handler(void)
{
 8001270:	b480      	push	{r7}
 8001272:	af00      	add	r7, sp, #0
  \details Disables IRQ interrupts by setting the I-bit in the CPSR.
           Can only be executed in Privileged modes.
 */
__STATIC_FORCEINLINE void __disable_irq(void)
{
  __ASM volatile ("cpsid i" : : : "memory");
 8001274:	b672      	cpsid	i
}
 8001276:	bf00      	nop
  /* USER CODE BEGIN Error_Handler_Debug */
  /* User can add his own implementation to report the HAL error return state */
  __disable_irq();
  while (1)
 8001278:	e7fe      	b.n	8001278 <Error_Handler+0x8>
	...

0800127c <HAL_MspInit>:
/* USER CODE END 0 */
/**
  * Initializes the Global MSP.
  */
void HAL_MspInit(void)
{
 800127c:	b480      	push	{r7}
 800127e:	b083      	sub	sp, #12
 8001280:	af00      	add	r7, sp, #0
  /* USER CODE BEGIN MspInit 0 */

  /* USER CODE END MspInit 0 */

  __HAL_RCC_SYSCFG_CLK_ENABLE();
 8001282:	4b0f      	ldr	r3, [pc, #60]	; (80012c0 <HAL_MspInit+0x44>)
 8001284:	699b      	ldr	r3, [r3, #24]
 8001286:	4a0e      	ldr	r2, [pc, #56]	; (80012c0 <HAL_MspInit+0x44>)
 8001288:	f043 0301 	orr.w	r3, r3, #1
 800128c:	6193      	str	r3, [r2, #24]
 800128e:	4b0c      	ldr	r3, [pc, #48]	; (80012c0 <HAL_MspInit+0x44>)
 8001290:	699b      	ldr	r3, [r3, #24]
 8001292:	f003 0301 	and.w	r3, r3, #1
 8001296:	607b      	str	r3, [r7, #4]
 8001298:	687b      	ldr	r3, [r7, #4]
  __HAL_RCC_PWR_CLK_ENABLE();
 800129a:	4b09      	ldr	r3, [pc, #36]	; (80012c0 <HAL_MspInit+0x44>)
 800129c:	69db      	ldr	r3, [r3, #28]
 800129e:	4a08      	ldr	r2, [pc, #32]	; (80012c0 <HAL_MspInit+0x44>)
 80012a0:	f043 5380 	orr.w	r3, r3, #268435456	; 0x10000000
 80012a4:	61d3      	str	r3, [r2, #28]
 80012a6:	4b06      	ldr	r3, [pc, #24]	; (80012c0 <HAL_MspInit+0x44>)
 80012a8:	69db      	ldr	r3, [r3, #28]
 80012aa:	f003 5380 	and.w	r3, r3, #268435456	; 0x10000000
 80012ae:	603b      	str	r3, [r7, #0]
 80012b0:	683b      	ldr	r3, [r7, #0]
  /* System interrupt init*/

  /* USER CODE BEGIN MspInit 1 */

  /* USER CODE END MspInit 1 */
}
 80012b2:	bf00      	nop
 80012b4:	370c      	adds	r7, #12
 80012b6:	46bd      	mov	sp, r7
 80012b8:	f85d 7b04 	ldr.w	r7, [sp], #4
 80012bc:	4770      	bx	lr
 80012be:	bf00      	nop
 80012c0:	40021000 	.word	0x40021000

080012c4 <HAL_I2C_MspInit>:
* This function configures the hardware resources used in this example
* @param hi2c: I2C handle pointer
* @retval None
*/
void HAL_I2C_MspInit(I2C_HandleTypeDef* hi2c)
{
 80012c4:	b580      	push	{r7, lr}
 80012c6:	b08a      	sub	sp, #40	; 0x28
 80012c8:	af00      	add	r7, sp, #0
 80012ca:	6078      	str	r0, [r7, #4]
  GPIO_InitTypeDef GPIO_InitStruct = {0};
 80012cc:	f107 0314 	add.w	r3, r7, #20
 80012d0:	2200      	movs	r2, #0
 80012d2:	601a      	str	r2, [r3, #0]
 80012d4:	605a      	str	r2, [r3, #4]
 80012d6:	609a      	str	r2, [r3, #8]
 80012d8:	60da      	str	r2, [r3, #12]
 80012da:	611a      	str	r2, [r3, #16]
  if(hi2c->Instance==I2C1)
 80012dc:	687b      	ldr	r3, [r7, #4]
 80012de:	681b      	ldr	r3, [r3, #0]
 80012e0:	4a17      	ldr	r2, [pc, #92]	; (8001340 <HAL_I2C_MspInit+0x7c>)
 80012e2:	4293      	cmp	r3, r2
 80012e4:	d127      	bne.n	8001336 <HAL_I2C_MspInit+0x72>
  {
  /* USER CODE BEGIN I2C1_MspInit 0 */

  /* USER CODE END I2C1_MspInit 0 */

    __HAL_RCC_GPIOB_CLK_ENABLE();
 80012e6:	4b17      	ldr	r3, [pc, #92]	; (8001344 <HAL_I2C_MspInit+0x80>)
 80012e8:	695b      	ldr	r3, [r3, #20]
 80012ea:	4a16      	ldr	r2, [pc, #88]	; (8001344 <HAL_I2C_MspInit+0x80>)
 80012ec:	f443 2380 	orr.w	r3, r3, #262144	; 0x40000
 80012f0:	6153      	str	r3, [r2, #20]
 80012f2:	4b14      	ldr	r3, [pc, #80]	; (8001344 <HAL_I2C_MspInit+0x80>)
 80012f4:	695b      	ldr	r3, [r3, #20]
 80012f6:	f403 2380 	and.w	r3, r3, #262144	; 0x40000
 80012fa:	613b      	str	r3, [r7, #16]
 80012fc:	693b      	ldr	r3, [r7, #16]
    /**I2C1 GPIO Configuration
    PB6     ------> I2C1_SCL
    PB7     ------> I2C1_SDA
    */
    GPIO_InitStruct.Pin = GPIO_PIN_6|GPIO_PIN_7;
 80012fe:	23c0      	movs	r3, #192	; 0xc0
 8001300:	617b      	str	r3, [r7, #20]
    GPIO_InitStruct.Mode = GPIO_MODE_AF_OD;
 8001302:	2312      	movs	r3, #18
 8001304:	61bb      	str	r3, [r7, #24]
    GPIO_InitStruct.Pull = GPIO_NOPULL;
 8001306:	2300      	movs	r3, #0
 8001308:	61fb      	str	r3, [r7, #28]
    GPIO_InitStruct.Speed = GPIO_SPEED_FREQ_HIGH;
 800130a:	2303      	movs	r3, #3
 800130c:	623b      	str	r3, [r7, #32]
    GPIO_InitStruct.Alternate = GPIO_AF4_I2C1;
 800130e:	2304      	movs	r3, #4
 8001310:	627b      	str	r3, [r7, #36]	; 0x24
    HAL_GPIO_Init(GPIOB, &GPIO_InitStruct);
 8001312:	f107 0314 	add.w	r3, r7, #20
 8001316:	4619      	mov	r1, r3
 8001318:	480b      	ldr	r0, [pc, #44]	; (8001348 <HAL_I2C_MspInit+0x84>)
 800131a:	f000 faf7 	bl	800190c <HAL_GPIO_Init>

    /* Peripheral clock enable */
    __HAL_RCC_I2C1_CLK_ENABLE();
 800131e:	4b09      	ldr	r3, [pc, #36]	; (8001344 <HAL_I2C_MspInit+0x80>)
 8001320:	69db      	ldr	r3, [r3, #28]
 8001322:	4a08      	ldr	r2, [pc, #32]	; (8001344 <HAL_I2C_MspInit+0x80>)
 8001324:	f443 1300 	orr.w	r3, r3, #2097152	; 0x200000
 8001328:	61d3      	str	r3, [r2, #28]
 800132a:	4b06      	ldr	r3, [pc, #24]	; (8001344 <HAL_I2C_MspInit+0x80>)
 800132c:	69db      	ldr	r3, [r3, #28]
 800132e:	f403 1300 	and.w	r3, r3, #2097152	; 0x200000
 8001332:	60fb      	str	r3, [r7, #12]
 8001334:	68fb      	ldr	r3, [r7, #12]
  /* USER CODE BEGIN I2C1_MspInit 1 */

  /* USER CODE END I2C1_MspInit 1 */
  }

}
 8001336:	bf00      	nop
 8001338:	3728      	adds	r7, #40	; 0x28
 800133a:	46bd      	mov	sp, r7
 800133c:	bd80      	pop	{r7, pc}
 800133e:	bf00      	nop
 8001340:	40005400 	.word	0x40005400
 8001344:	40021000 	.word	0x40021000
 8001348:	48000400 	.word	0x48000400

0800134c <HAL_UART_MspInit>:
* This function configures the hardware resources used in this example
* @param huart: UART handle pointer
* @retval None
*/
void HAL_UART_MspInit(UART_HandleTypeDef* huart)
{
 800134c:	b580      	push	{r7, lr}
 800134e:	b08a      	sub	sp, #40	; 0x28
 8001350:	af00      	add	r7, sp, #0
 8001352:	6078      	str	r0, [r7, #4]
  GPIO_InitTypeDef GPIO_InitStruct = {0};
 8001354:	f107 0314 	add.w	r3, r7, #20
 8001358:	2200      	movs	r2, #0
 800135a:	601a      	str	r2, [r3, #0]
 800135c:	605a      	str	r2, [r3, #4]
 800135e:	609a      	str	r2, [r3, #8]
 8001360:	60da      	str	r2, [r3, #12]
 8001362:	611a      	str	r2, [r3, #16]
  if(huart->Instance==USART2)
 8001364:	687b      	ldr	r3, [r7, #4]
 8001366:	681b      	ldr	r3, [r3, #0]
 8001368:	4a18      	ldr	r2, [pc, #96]	; (80013cc <HAL_UART_MspInit+0x80>)
 800136a:	4293      	cmp	r3, r2
 800136c:	d129      	bne.n	80013c2 <HAL_UART_MspInit+0x76>
  {
  /* USER CODE BEGIN USART2_MspInit 0 */

  /* USER CODE END USART2_MspInit 0 */
    /* Peripheral clock enable */
    __HAL_RCC_USART2_CLK_ENABLE();
 800136e:	4b18      	ldr	r3, [pc, #96]	; (80013d0 <HAL_UART_MspInit+0x84>)
 8001370:	69db      	ldr	r3, [r3, #28]
 8001372:	4a17      	ldr	r2, [pc, #92]	; (80013d0 <HAL_UART_MspInit+0x84>)
 8001374:	f443 3300 	orr.w	r3, r3, #131072	; 0x20000
 8001378:	61d3      	str	r3, [r2, #28]
 800137a:	4b15      	ldr	r3, [pc, #84]	; (80013d0 <HAL_UART_MspInit+0x84>)
 800137c:	69db      	ldr	r3, [r3, #28]
 800137e:	f403 3300 	and.w	r3, r3, #131072	; 0x20000
 8001382:	613b      	str	r3, [r7, #16]
 8001384:	693b      	ldr	r3, [r7, #16]

    __HAL_RCC_GPIOA_CLK_ENABLE();
 8001386:	4b12      	ldr	r3, [pc, #72]	; (80013d0 <HAL_UART_MspInit+0x84>)
 8001388:	695b      	ldr	r3, [r3, #20]
 800138a:	4a11      	ldr	r2, [pc, #68]	; (80013d0 <HAL_UART_MspInit+0x84>)
 800138c:	f443 3300 	orr.w	r3, r3, #131072	; 0x20000
 8001390:	6153      	str	r3, [r2, #20]
 8001392:	4b0f      	ldr	r3, [pc, #60]	; (80013d0 <HAL_UART_MspInit+0x84>)
 8001394:	695b      	ldr	r3, [r3, #20]
 8001396:	f403 3300 	and.w	r3, r3, #131072	; 0x20000
 800139a:	60fb      	str	r3, [r7, #12]
 800139c:	68fb      	ldr	r3, [r7, #12]
    /**USART2 GPIO Configuration
    PA2     ------> USART2_TX
    PA15     ------> USART2_RX
    */
    GPIO_InitStruct.Pin = VCP_TX_Pin|VCP_RX_Pin;
 800139e:	f248 0304 	movw	r3, #32772	; 0x8004
 80013a2:	617b      	str	r3, [r7, #20]
    GPIO_InitStruct.Mode = GPIO_MODE_AF_PP;
 80013a4:	2302      	movs	r3, #2
 80013a6:	61bb      	str	r3, [r7, #24]
    GPIO_InitStruct.Pull = GPIO_NOPULL;
 80013a8:	2300      	movs	r3, #0
 80013aa:	61fb      	str	r3, [r7, #28]
    GPIO_InitStruct.Speed = GPIO_SPEED_FREQ_HIGH;
 80013ac:	2303      	movs	r3, #3
 80013ae:	623b      	str	r3, [r7, #32]
    GPIO_InitStruct.Alternate = GPIO_AF7_USART2;
 80013b0:	2307      	movs	r3, #7
 80013b2:	627b      	str	r3, [r7, #36]	; 0x24
    HAL_GPIO_Init(GPIOA, &GPIO_InitStruct);
 80013b4:	f107 0314 	add.w	r3, r7, #20
 80013b8:	4619      	mov	r1, r3
 80013ba:	f04f 4090 	mov.w	r0, #1207959552	; 0x48000000
 80013be:	f000 faa5 	bl	800190c <HAL_GPIO_Init>
  /* USER CODE BEGIN USART2_MspInit 1 */

  /* USER CODE END USART2_MspInit 1 */
  }

}
 80013c2:	bf00      	nop
 80013c4:	3728      	adds	r7, #40	; 0x28
 80013c6:	46bd      	mov	sp, r7
 80013c8:	bd80      	pop	{r7, pc}
 80013ca:	bf00      	nop
 80013cc:	40004400 	.word	0x40004400
 80013d0:	40021000 	.word	0x40021000

080013d4 <NMI_Handler>:
/******************************************************************************/
/**
  * @brief This function handles Non maskable interrupt.
  */
void NMI_Handler(void)
{
 80013d4:	b480      	push	{r7}
 80013d6:	af00      	add	r7, sp, #0
  /* USER CODE BEGIN NonMaskableInt_IRQn 0 */

  /* USER CODE END NonMaskableInt_IRQn 0 */
  /* USER CODE BEGIN NonMaskableInt_IRQn 1 */
  while (1)
 80013d8:	e7fe      	b.n	80013d8 <NMI_Handler+0x4>

080013da <HardFault_Handler>:

/**
  * @brief This function handles Hard fault interrupt.
  */
void HardFault_Handler(void)
{
 80013da:	b480      	push	{r7}
 80013dc:	af00      	add	r7, sp, #0
  /* USER CODE BEGIN HardFault_IRQn 0 */

  /* USER CODE END HardFault_IRQn 0 */
  while (1)
 80013de:	e7fe      	b.n	80013de <HardFault_Handler+0x4>

080013e0 <MemManage_Handler>:

/**
  * @brief This function handles Memory management fault.
  */
void MemManage_Handler(void)
{
 80013e0:	b480      	push	{r7}
 80013e2:	af00      	add	r7, sp, #0
  /* USER CODE BEGIN MemoryManagement_IRQn 0 */

  /* USER CODE END MemoryManagement_IRQn 0 */
  while (1)
 80013e4:	e7fe      	b.n	80013e4 <MemManage_Handler+0x4>

080013e6 <BusFault_Handler>:

/**
  * @brief This function handles Pre-fetch fault, memory access fault.
  */
void BusFault_Handler(void)
{
 80013e6:	b480      	push	{r7}
 80013e8:	af00      	add	r7, sp, #0
  /* USER CODE BEGIN BusFault_IRQn 0 */

  /* USER CODE END BusFault_IRQn 0 */
  while (1)
 80013ea:	e7fe      	b.n	80013ea <BusFault_Handler+0x4>

080013ec <UsageFault_Handler>:

/**
  * @brief This function handles Undefined instruction or illegal state.
  */
void UsageFault_Handler(void)
{
 80013ec:	b480      	push	{r7}
 80013ee:	af00      	add	r7, sp, #0
  /* USER CODE BEGIN UsageFault_IRQn 0 */

  /* USER CODE END UsageFault_IRQn 0 */
  while (1)
 80013f0:	e7fe      	b.n	80013f0 <UsageFault_Handler+0x4>

080013f2 <SVC_Handler>:

/**
  * @brief This function handles System service call via SWI instruction.
  */
void SVC_Handler(void)
{
 80013f2:	b480      	push	{r7}
 80013f4:	af00      	add	r7, sp, #0

  /* USER CODE END SVCall_IRQn 0 */
  /* USER CODE BEGIN SVCall_IRQn 1 */

  /* USER CODE END SVCall_IRQn 1 */
}
 80013f6:	bf00      	nop
 80013f8:	46bd      	mov	sp, r7
 80013fa:	f85d 7b04 	ldr.w	r7, [sp], #4
 80013fe:	4770      	bx	lr

08001400 <DebugMon_Handler>:

/**
  * @brief This function handles Debug monitor.
  */
void DebugMon_Handler(void)
{
 8001400:	b480      	push	{r7}
 8001402:	af00      	add	r7, sp, #0

  /* USER CODE END DebugMonitor_IRQn 0 */
  /* USER CODE BEGIN DebugMonitor_IRQn 1 */

  /* USER CODE END DebugMonitor_IRQn 1 */
}
 8001404:	bf00      	nop
 8001406:	46bd      	mov	sp, r7
 8001408:	f85d 7b04 	ldr.w	r7, [sp], #4
 800140c:	4770      	bx	lr

0800140e <PendSV_Handler>:

/**
  * @brief This function handles Pendable request for system service.
  */
void PendSV_Handler(void)
{
 800140e:	b480      	push	{r7}
 8001410:	af00      	add	r7, sp, #0

  /* USER CODE END PendSV_IRQn 0 */
  /* USER CODE BEGIN PendSV_IRQn 1 */

  /* USER CODE END PendSV_IRQn 1 */
}
 8001412:	bf00      	nop
 8001414:	46bd      	mov	sp, r7
 8001416:	f85d 7b04 	ldr.w	r7, [sp], #4
 800141a:	4770      	bx	lr

0800141c <SysTick_Handler>:

/**
  * @brief This function handles System tick timer.
  */
void SysTick_Handler(void)
{
 800141c:	b580      	push	{r7, lr}
 800141e:	af00      	add	r7, sp, #0
  /* USER CODE BEGIN SysTick_IRQn 0 */

  /* USER CODE END SysTick_IRQn 0 */
  HAL_IncTick();
 8001420:	f000 f94a 	bl	80016b8 <HAL_IncTick>
  /* USER CODE BEGIN SysTick_IRQn 1 */

  /* USER CODE END SysTick_IRQn 1 */
}
 8001424:	bf00      	nop
 8001426:	bd80      	pop	{r7, pc}

08001428 <_getpid>:
void initialise_monitor_handles()
{
}

int _getpid(void)
{
 8001428:	b480      	push	{r7}
 800142a:	af00      	add	r7, sp, #0
  return 1;
 800142c:	2301      	movs	r3, #1
}
 800142e:	4618      	mov	r0, r3
 8001430:	46bd      	mov	sp, r7
 8001432:	f85d 7b04 	ldr.w	r7, [sp], #4
 8001436:	4770      	bx	lr

08001438 <_kill>:

int _kill(int pid, int sig)
{
 8001438:	b580      	push	{r7, lr}
 800143a:	b082      	sub	sp, #8
 800143c:	af00      	add	r7, sp, #0
 800143e:	6078      	str	r0, [r7, #4]
 8001440:	6039      	str	r1, [r7, #0]
  (void)pid;
  (void)sig;
  errno = EINVAL;
 8001442:	f003 f919 	bl	8004678 <__errno>
 8001446:	4603      	mov	r3, r0
 8001448:	2216      	movs	r2, #22
 800144a:	601a      	str	r2, [r3, #0]
  return -1;
 800144c:	f04f 33ff 	mov.w	r3, #4294967295
}
 8001450:	4618      	mov	r0, r3
 8001452:	3708      	adds	r7, #8
 8001454:	46bd      	mov	sp, r7
 8001456:	bd80      	pop	{r7, pc}

08001458 <_exit>:

void _exit (int status)
{
 8001458:	b580      	push	{r7, lr}
 800145a:	b082      	sub	sp, #8
 800145c:	af00      	add	r7, sp, #0
 800145e:	6078      	str	r0, [r7, #4]
  _kill(status, -1);
 8001460:	f04f 31ff 	mov.w	r1, #4294967295
 8001464:	6878      	ldr	r0, [r7, #4]
 8001466:	f7ff ffe7 	bl	8001438 <_kill>
  while (1) {}    /* Make sure we hang here */
 800146a:	e7fe      	b.n	800146a <_exit+0x12>

0800146c <_read>:
}

__attribute__((weak)) int _read(int file, char *ptr, int len)
{
 800146c:	b580      	push	{r7, lr}
 800146e:	b086      	sub	sp, #24
 8001470:	af00      	add	r7, sp, #0
 8001472:	60f8      	str	r0, [r7, #12]
 8001474:	60b9      	str	r1, [r7, #8]
 8001476:	607a      	str	r2, [r7, #4]
  (void)file;
  int DataIdx;

  for (DataIdx = 0; DataIdx < len; DataIdx++)
 8001478:	2300      	movs	r3, #0
 800147a:	617b      	str	r3, [r7, #20]
 800147c:	e00a      	b.n	8001494 <_read+0x28>
  {
    *ptr++ = __io_getchar();
 800147e:	f3af 8000 	nop.w
 8001482:	4601      	mov	r1, r0
 8001484:	68bb      	ldr	r3, [r7, #8]
 8001486:	1c5a      	adds	r2, r3, #1
 8001488:	60ba      	str	r2, [r7, #8]
 800148a:	b2ca      	uxtb	r2, r1
 800148c:	701a      	strb	r2, [r3, #0]
  for (DataIdx = 0; DataIdx < len; DataIdx++)
 800148e:	697b      	ldr	r3, [r7, #20]
 8001490:	3301      	adds	r3, #1
 8001492:	617b      	str	r3, [r7, #20]
 8001494:	697a      	ldr	r2, [r7, #20]
 8001496:	687b      	ldr	r3, [r7, #4]
 8001498:	429a      	cmp	r2, r3
 800149a:	dbf0      	blt.n	800147e <_read+0x12>
  }

  return len;
 800149c:	687b      	ldr	r3, [r7, #4]
}
 800149e:	4618      	mov	r0, r3
 80014a0:	3718      	adds	r7, #24
 80014a2:	46bd      	mov	sp, r7
 80014a4:	bd80      	pop	{r7, pc}

080014a6 <_write>:

__attribute__((weak)) int _write(int file, char *ptr, int len)
{
 80014a6:	b580      	push	{r7, lr}
 80014a8:	b086      	sub	sp, #24
 80014aa:	af00      	add	r7, sp, #0
 80014ac:	60f8      	str	r0, [r7, #12]
 80014ae:	60b9      	str	r1, [r7, #8]
 80014b0:	607a      	str	r2, [r7, #4]
  (void)file;
  int DataIdx;

  for (DataIdx = 0; DataIdx < len; DataIdx++)
 80014b2:	2300      	movs	r3, #0
 80014b4:	617b      	str	r3, [r7, #20]
 80014b6:	e009      	b.n	80014cc <_write+0x26>
  {
    __io_putchar(*ptr++);
 80014b8:	68bb      	ldr	r3, [r7, #8]
 80014ba:	1c5a      	adds	r2, r3, #1
 80014bc:	60ba      	str	r2, [r7, #8]
 80014be:	781b      	ldrb	r3, [r3, #0]
 80014c0:	4618      	mov	r0, r3
 80014c2:	f3af 8000 	nop.w
  for (DataIdx = 0; DataIdx < len; DataIdx++)
 80014c6:	697b      	ldr	r3, [r7, #20]
 80014c8:	3301      	adds	r3, #1
 80014ca:	617b      	str	r3, [r7, #20]
 80014cc:	697a      	ldr	r2, [r7, #20]
 80014ce:	687b      	ldr	r3, [r7, #4]
 80014d0:	429a      	cmp	r2, r3
 80014d2:	dbf1      	blt.n	80014b8 <_write+0x12>
  }
  return len;
 80014d4:	687b      	ldr	r3, [r7, #4]
}
 80014d6:	4618      	mov	r0, r3
 80014d8:	3718      	adds	r7, #24
 80014da:	46bd      	mov	sp, r7
 80014dc:	bd80      	pop	{r7, pc}

080014de <_close>:

int _close(int file)
{
 80014de:	b480      	push	{r7}
 80014e0:	b083      	sub	sp, #12
 80014e2:	af00      	add	r7, sp, #0
 80014e4:	6078      	str	r0, [r7, #4]
  (void)file;
  return -1;
 80014e6:	f04f 33ff 	mov.w	r3, #4294967295
}
 80014ea:	4618      	mov	r0, r3
 80014ec:	370c      	adds	r7, #12
 80014ee:	46bd      	mov	sp, r7
 80014f0:	f85d 7b04 	ldr.w	r7, [sp], #4
 80014f4:	4770      	bx	lr

080014f6 <_fstat>:


int _fstat(int file, struct stat *st)
{
 80014f6:	b480      	push	{r7}
 80014f8:	b083      	sub	sp, #12
 80014fa:	af00      	add	r7, sp, #0
 80014fc:	6078      	str	r0, [r7, #4]
 80014fe:	6039      	str	r1, [r7, #0]
  (void)file;
  st->st_mode = S_IFCHR;
 8001500:	683b      	ldr	r3, [r7, #0]
 8001502:	f44f 5200 	mov.w	r2, #8192	; 0x2000
 8001506:	605a      	str	r2, [r3, #4]
  return 0;
 8001508:	2300      	movs	r3, #0
}
 800150a:	4618      	mov	r0, r3
 800150c:	370c      	adds	r7, #12
 800150e:	46bd      	mov	sp, r7
 8001510:	f85d 7b04 	ldr.w	r7, [sp], #4
 8001514:	4770      	bx	lr

08001516 <_isatty>:

int _isatty(int file)
{
 8001516:	b480      	push	{r7}
 8001518:	b083      	sub	sp, #12
 800151a:	af00      	add	r7, sp, #0
 800151c:	6078      	str	r0, [r7, #4]
  (void)file;
  return 1;
 800151e:	2301      	movs	r3, #1
}
 8001520:	4618      	mov	r0, r3
 8001522:	370c      	adds	r7, #12
 8001524:	46bd      	mov	sp, r7
 8001526:	f85d 7b04 	ldr.w	r7, [sp], #4
 800152a:	4770      	bx	lr

0800152c <_lseek>:

int _lseek(int file, int ptr, int dir)
{
 800152c:	b480      	push	{r7}
 800152e:	b085      	sub	sp, #20
 8001530:	af00      	add	r7, sp, #0
 8001532:	60f8      	str	r0, [r7, #12]
 8001534:	60b9      	str	r1, [r7, #8]
 8001536:	607a      	str	r2, [r7, #4]
  (void)file;
  (void)ptr;
  (void)dir;
  return 0;
 8001538:	2300      	movs	r3, #0
}
 800153a:	4618      	mov	r0, r3
 800153c:	3714      	adds	r7, #20
 800153e:	46bd      	mov	sp, r7
 8001540:	f85d 7b04 	ldr.w	r7, [sp], #4
 8001544:	4770      	bx	lr
	...

08001548 <_sbrk>:
 *
 * @param incr Memory size
 * @return Pointer to allocated memory
 */
void *_sbrk(ptrdiff_t incr)
{
 8001548:	b580      	push	{r7, lr}
 800154a:	b086      	sub	sp, #24
 800154c:	af00      	add	r7, sp, #0
 800154e:	6078      	str	r0, [r7, #4]
  extern uint8_t _end; /* Symbol defined in the linker script */
  extern uint8_t _estack; /* Symbol defined in the linker script */
  extern uint32_t _Min_Stack_Size; /* Symbol defined in the linker script */
  const uint32_t stack_limit = (uint32_t)&_estack - (uint32_t)&_Min_Stack_Size;
 8001550:	4a14      	ldr	r2, [pc, #80]	; (80015a4 <_sbrk+0x5c>)
 8001552:	4b15      	ldr	r3, [pc, #84]	; (80015a8 <_sbrk+0x60>)
 8001554:	1ad3      	subs	r3, r2, r3
 8001556:	617b      	str	r3, [r7, #20]
  const uint8_t *max_heap = (uint8_t *)stack_limit;
 8001558:	697b      	ldr	r3, [r7, #20]
 800155a:	613b      	str	r3, [r7, #16]
  uint8_t *prev_heap_end;

  /* Initialize heap end at first call */
  if (NULL == __sbrk_heap_end)
 800155c:	4b13      	ldr	r3, [pc, #76]	; (80015ac <_sbrk+0x64>)
 800155e:	681b      	ldr	r3, [r3, #0]
 8001560:	2b00      	cmp	r3, #0
 8001562:	d102      	bne.n	800156a <_sbrk+0x22>
  {
    __sbrk_heap_end = &_end;
 8001564:	4b11      	ldr	r3, [pc, #68]	; (80015ac <_sbrk+0x64>)
 8001566:	4a12      	ldr	r2, [pc, #72]	; (80015b0 <_sbrk+0x68>)
 8001568:	601a      	str	r2, [r3, #0]
  }

  /* Protect heap from growing into the reserved MSP stack */
  if (__sbrk_heap_end + incr > max_heap)
 800156a:	4b10      	ldr	r3, [pc, #64]	; (80015ac <_sbrk+0x64>)
 800156c:	681a      	ldr	r2, [r3, #0]
 800156e:	687b      	ldr	r3, [r7, #4]
 8001570:	4413      	add	r3, r2
 8001572:	693a      	ldr	r2, [r7, #16]
 8001574:	429a      	cmp	r2, r3
 8001576:	d207      	bcs.n	8001588 <_sbrk+0x40>
  {
    errno = ENOMEM;
 8001578:	f003 f87e 	bl	8004678 <__errno>
 800157c:	4603      	mov	r3, r0
 800157e:	220c      	movs	r2, #12
 8001580:	601a      	str	r2, [r3, #0]
    return (void *)-1;
 8001582:	f04f 33ff 	mov.w	r3, #4294967295
 8001586:	e009      	b.n	800159c <_sbrk+0x54>
  }

  prev_heap_end = __sbrk_heap_end;
 8001588:	4b08      	ldr	r3, [pc, #32]	; (80015ac <_sbrk+0x64>)
 800158a:	681b      	ldr	r3, [r3, #0]
 800158c:	60fb      	str	r3, [r7, #12]
  __sbrk_heap_end += incr;
 800158e:	4b07      	ldr	r3, [pc, #28]	; (80015ac <_sbrk+0x64>)
 8001590:	681a      	ldr	r2, [r3, #0]
 8001592:	687b      	ldr	r3, [r7, #4]
 8001594:	4413      	add	r3, r2
 8001596:	4a05      	ldr	r2, [pc, #20]	; (80015ac <_sbrk+0x64>)
 8001598:	6013      	str	r3, [r2, #0]

  return (void *)prev_heap_end;
 800159a:	68fb      	ldr	r3, [r7, #12]
}
 800159c:	4618      	mov	r0, r3
 800159e:	3718      	adds	r7, #24
 80015a0:	46bd      	mov	sp, r7
 80015a2:	bd80      	pop	{r7, pc}
 80015a4:	20003000 	.word	0x20003000
 80015a8:	00000400 	.word	0x00000400
 80015ac:	200002e4 	.word	0x200002e4
 80015b0:	20000300 	.word	0x20000300

080015b4 <SystemInit>:
  * @brief  Setup the microcontroller system
  * @param  None
  * @retval None
  */
void SystemInit(void)
{
 80015b4:	b480      	push	{r7}
 80015b6:	af00      	add	r7, sp, #0
/* FPU settings --------------------------------------------------------------*/
#if (__FPU_PRESENT == 1) && (__FPU_USED == 1)
  SCB->CPACR |= ((3UL << 10*2)|(3UL << 11*2));  /* set CP10 and CP11 Full Access */
 80015b8:	4b06      	ldr	r3, [pc, #24]	; (80015d4 <SystemInit+0x20>)
 80015ba:	f8d3 3088 	ldr.w	r3, [r3, #136]	; 0x88
 80015be:	4a05      	ldr	r2, [pc, #20]	; (80015d4 <SystemInit+0x20>)
 80015c0:	f443 0370 	orr.w	r3, r3, #15728640	; 0xf00000
 80015c4:	f8c2 3088 	str.w	r3, [r2, #136]	; 0x88

  /* Configure the Vector Table location -------------------------------------*/
#if defined(USER_VECT_TAB_ADDRESS)
  SCB->VTOR = VECT_TAB_BASE_ADDRESS | VECT_TAB_OFFSET; /* Vector Table Relocation in Internal SRAM */
#endif /* USER_VECT_TAB_ADDRESS */
}
 80015c8:	bf00      	nop
 80015ca:	46bd      	mov	sp, r7
 80015cc:	f85d 7b04 	ldr.w	r7, [sp], #4
 80015d0:	4770      	bx	lr
 80015d2:	bf00      	nop
 80015d4:	e000ed00 	.word	0xe000ed00

080015d8 <Reset_Handler>:

    .section	.text.Reset_Handler
	.weak	Reset_Handler
	.type	Reset_Handler, %function
Reset_Handler:
  ldr   sp, =_estack    /* Atollic update: set stack pointer */
 80015d8:	f8df d034 	ldr.w	sp, [pc, #52]	; 8001610 <LoopForever+0x2>

/* Copy the data segment initializers from flash to SRAM */
  ldr r0, =_sdata
 80015dc:	480d      	ldr	r0, [pc, #52]	; (8001614 <LoopForever+0x6>)
  ldr r1, =_edata
 80015de:	490e      	ldr	r1, [pc, #56]	; (8001618 <LoopForever+0xa>)
  ldr r2, =_sidata
 80015e0:	4a0e      	ldr	r2, [pc, #56]	; (800161c <LoopForever+0xe>)
  movs r3, #0
 80015e2:	2300      	movs	r3, #0
  b LoopCopyDataInit
 80015e4:	e002      	b.n	80015ec <LoopCopyDataInit>

080015e6 <CopyDataInit>:

CopyDataInit:
  ldr r4, [r2, r3]
 80015e6:	58d4      	ldr	r4, [r2, r3]
  str r4, [r0, r3]
 80015e8:	50c4      	str	r4, [r0, r3]
  adds r3, r3, #4
 80015ea:	3304      	adds	r3, #4

080015ec <LoopCopyDataInit>:

LoopCopyDataInit:
  adds r4, r0, r3
 80015ec:	18c4      	adds	r4, r0, r3
  cmp r4, r1
 80015ee:	428c      	cmp	r4, r1
  bcc CopyDataInit
 80015f0:	d3f9      	bcc.n	80015e6 <CopyDataInit>
  
/* Zero fill the bss segment. */
  ldr r2, =_sbss
 80015f2:	4a0b      	ldr	r2, [pc, #44]	; (8001620 <LoopForever+0x12>)
  ldr r4, =_ebss
 80015f4:	4c0b      	ldr	r4, [pc, #44]	; (8001624 <LoopForever+0x16>)
  movs r3, #0
 80015f6:	2300      	movs	r3, #0
  b LoopFillZerobss
 80015f8:	e001      	b.n	80015fe <LoopFillZerobss>

080015fa <FillZerobss>:

FillZerobss:
  str  r3, [r2]
 80015fa:	6013      	str	r3, [r2, #0]
  adds r2, r2, #4
 80015fc:	3204      	adds	r2, #4

080015fe <LoopFillZerobss>:

LoopFillZerobss:
  cmp r2, r4
 80015fe:	42a2      	cmp	r2, r4
  bcc FillZerobss
 8001600:	d3fb      	bcc.n	80015fa <FillZerobss>

/* Call the clock system intitialization function.*/
    bl  SystemInit
 8001602:	f7ff ffd7 	bl	80015b4 <SystemInit>
/* Call static constructors */
    bl __libc_init_array
 8001606:	f003 f83d 	bl	8004684 <__libc_init_array>
/* Call the application's entry point.*/
	bl	main
 800160a:	f7ff fccb 	bl	8000fa4 <main>

0800160e <LoopForever>:

LoopForever:
    b LoopForever
 800160e:	e7fe      	b.n	800160e <LoopForever>
  ldr   sp, =_estack    /* Atollic update: set stack pointer */
 8001610:	20003000 	.word	0x20003000
  ldr r0, =_sdata
 8001614:	20000000 	.word	0x20000000
  ldr r1, =_edata
 8001618:	200001dc 	.word	0x200001dc
  ldr r2, =_sidata
 800161c:	080078fc 	.word	0x080078fc
  ldr r2, =_sbss
 8001620:	200001dc 	.word	0x200001dc
  ldr r4, =_ebss
 8001624:	200002fc 	.word	0x200002fc

08001628 <ADC1_2_IRQHandler>:
 * @retval : None
*/
    .section	.text.Default_Handler,"ax",%progbits
Default_Handler:
Infinite_Loop:
	b	Infinite_Loop
 8001628:	e7fe      	b.n	8001628 <ADC1_2_IRQHandler>
	...

0800162c <HAL_Init>:
  *         In the default implementation,Systick is used as source of time base.
  *       The tick variable is incremented each 1ms in its ISR.
  * @retval HAL status
  */
HAL_StatusTypeDef HAL_Init(void)
{
 800162c:	b580      	push	{r7, lr}
 800162e:	af00      	add	r7, sp, #0
  /* Configure Flash prefetch */
#if (PREFETCH_ENABLE != 0U)
  __HAL_FLASH_PREFETCH_BUFFER_ENABLE();
 8001630:	4b08      	ldr	r3, [pc, #32]	; (8001654 <HAL_Init+0x28>)
 8001632:	681b      	ldr	r3, [r3, #0]
 8001634:	4a07      	ldr	r2, [pc, #28]	; (8001654 <HAL_Init+0x28>)
 8001636:	f043 0310 	orr.w	r3, r3, #16
 800163a:	6013      	str	r3, [r2, #0]
#endif /* PREFETCH_ENABLE */

  /* Set Interrupt Group Priority */
  HAL_NVIC_SetPriorityGrouping(NVIC_PRIORITYGROUP_4);
 800163c:	2003      	movs	r0, #3
 800163e:	f000 f931 	bl	80018a4 <HAL_NVIC_SetPriorityGrouping>

  /* Enable systick and configure 1ms tick (default clock after Reset is HSI) */
  HAL_InitTick(TICK_INT_PRIORITY);
 8001642:	2000      	movs	r0, #0
 8001644:	f000 f808 	bl	8001658 <HAL_InitTick>

  /* Init the low level hardware */
  HAL_MspInit();
 8001648:	f7ff fe18 	bl	800127c <HAL_MspInit>

  /* Return function status */
  return HAL_OK;
 800164c:	2300      	movs	r3, #0
}
 800164e:	4618      	mov	r0, r3
 8001650:	bd80      	pop	{r7, pc}
 8001652:	bf00      	nop
 8001654:	40022000 	.word	0x40022000

08001658 <HAL_InitTick>:
  *         implementation  in user file.
  * @param TickPriority Tick interrupt priority.
  * @retval HAL status
  */
__weak HAL_StatusTypeDef HAL_InitTick(uint32_t TickPriority)
{
 8001658:	b580      	push	{r7, lr}
 800165a:	b082      	sub	sp, #8
 800165c:	af00      	add	r7, sp, #0
 800165e:	6078      	str	r0, [r7, #4]
  /* Configure the SysTick to have interrupt in 1ms time basis*/
  if (HAL_SYSTICK_Config(SystemCoreClock / (1000U / uwTickFreq)) > 0U)
 8001660:	4b12      	ldr	r3, [pc, #72]	; (80016ac <HAL_InitTick+0x54>)
 8001662:	681a      	ldr	r2, [r3, #0]
 8001664:	4b12      	ldr	r3, [pc, #72]	; (80016b0 <HAL_InitTick+0x58>)
 8001666:	781b      	ldrb	r3, [r3, #0]
 8001668:	4619      	mov	r1, r3
 800166a:	f44f 737a 	mov.w	r3, #1000	; 0x3e8
 800166e:	fbb3 f3f1 	udiv	r3, r3, r1
 8001672:	fbb2 f3f3 	udiv	r3, r2, r3
 8001676:	4618      	mov	r0, r3
 8001678:	f000 f93b 	bl	80018f2 <HAL_SYSTICK_Config>
 800167c:	4603      	mov	r3, r0
 800167e:	2b00      	cmp	r3, #0
 8001680:	d001      	beq.n	8001686 <HAL_InitTick+0x2e>
  {
    return HAL_ERROR;
 8001682:	2301      	movs	r3, #1
 8001684:	e00e      	b.n	80016a4 <HAL_InitTick+0x4c>
  }

  /* Configure the SysTick IRQ priority */
  if (TickPriority < (1UL << __NVIC_PRIO_BITS))
 8001686:	687b      	ldr	r3, [r7, #4]
 8001688:	2b0f      	cmp	r3, #15
 800168a:	d80a      	bhi.n	80016a2 <HAL_InitTick+0x4a>
  {
    HAL_NVIC_SetPriority(SysTick_IRQn, TickPriority, 0U);
 800168c:	2200      	movs	r2, #0
 800168e:	6879      	ldr	r1, [r7, #4]
 8001690:	f04f 30ff 	mov.w	r0, #4294967295
 8001694:	f000 f911 	bl	80018ba <HAL_NVIC_SetPriority>
    uwTickPrio = TickPriority;
 8001698:	4a06      	ldr	r2, [pc, #24]	; (80016b4 <HAL_InitTick+0x5c>)
 800169a:	687b      	ldr	r3, [r7, #4]
 800169c:	6013      	str	r3, [r2, #0]
  else
  {
    return HAL_ERROR;
  }
   /* Return function status */
  return HAL_OK;
 800169e:	2300      	movs	r3, #0
 80016a0:	e000      	b.n	80016a4 <HAL_InitTick+0x4c>
    return HAL_ERROR;
 80016a2:	2301      	movs	r3, #1
}
 80016a4:	4618      	mov	r0, r3
 80016a6:	3708      	adds	r7, #8
 80016a8:	46bd      	mov	sp, r7
 80016aa:	bd80      	pop	{r7, pc}
 80016ac:	20000000 	.word	0x20000000
 80016b0:	20000008 	.word	0x20000008
 80016b4:	20000004 	.word	0x20000004

080016b8 <HAL_IncTick>:
  * @note This function is declared as __weak to be overwritten in case of other 
  *         implementations  in user file.
  * @retval None
  */
__weak void HAL_IncTick(void)
{
 80016b8:	b480      	push	{r7}
 80016ba:	af00      	add	r7, sp, #0
  uwTick += uwTickFreq;
 80016bc:	4b06      	ldr	r3, [pc, #24]	; (80016d8 <HAL_IncTick+0x20>)
 80016be:	781b      	ldrb	r3, [r3, #0]
 80016c0:	461a      	mov	r2, r3
 80016c2:	4b06      	ldr	r3, [pc, #24]	; (80016dc <HAL_IncTick+0x24>)
 80016c4:	681b      	ldr	r3, [r3, #0]
 80016c6:	4413      	add	r3, r2
 80016c8:	4a04      	ldr	r2, [pc, #16]	; (80016dc <HAL_IncTick+0x24>)
 80016ca:	6013      	str	r3, [r2, #0]
}
 80016cc:	bf00      	nop
 80016ce:	46bd      	mov	sp, r7
 80016d0:	f85d 7b04 	ldr.w	r7, [sp], #4
 80016d4:	4770      	bx	lr
 80016d6:	bf00      	nop
 80016d8:	20000008 	.word	0x20000008
 80016dc:	200002e8 	.word	0x200002e8

080016e0 <HAL_GetTick>:
  * @note   The function is declared as __Weak  to be overwritten  in case of other 
  *         implementations  in user file.
  * @retval tick value
  */
__weak uint32_t HAL_GetTick(void)
{
 80016e0:	b480      	push	{r7}
 80016e2:	af00      	add	r7, sp, #0
  return uwTick;  
 80016e4:	4b03      	ldr	r3, [pc, #12]	; (80016f4 <HAL_GetTick+0x14>)
 80016e6:	681b      	ldr	r3, [r3, #0]
}
 80016e8:	4618      	mov	r0, r3
 80016ea:	46bd      	mov	sp, r7
 80016ec:	f85d 7b04 	ldr.w	r7, [sp], #4
 80016f0:	4770      	bx	lr
 80016f2:	bf00      	nop
 80016f4:	200002e8 	.word	0x200002e8

080016f8 <HAL_Delay>:
  *         implementations  in user file.
  * @param  Delay specifies the delay time length, in milliseconds.
  * @retval None
  */
__weak void HAL_Delay(uint32_t Delay)
{
 80016f8:	b580      	push	{r7, lr}
 80016fa:	b084      	sub	sp, #16
 80016fc:	af00      	add	r7, sp, #0
 80016fe:	6078      	str	r0, [r7, #4]
  uint32_t tickstart = HAL_GetTick();
 8001700:	f7ff ffee 	bl	80016e0 <HAL_GetTick>
 8001704:	60b8      	str	r0, [r7, #8]
  uint32_t wait = Delay;
 8001706:	687b      	ldr	r3, [r7, #4]
 8001708:	60fb      	str	r3, [r7, #12]
  
  /* Add freq to guarantee minimum wait */
  if (wait < HAL_MAX_DELAY)
 800170a:	68fb      	ldr	r3, [r7, #12]
 800170c:	f1b3 3fff 	cmp.w	r3, #4294967295
 8001710:	d005      	beq.n	800171e <HAL_Delay+0x26>
  {
    wait += (uint32_t)(uwTickFreq);
 8001712:	4b0a      	ldr	r3, [pc, #40]	; (800173c <HAL_Delay+0x44>)
 8001714:	781b      	ldrb	r3, [r3, #0]
 8001716:	461a      	mov	r2, r3
 8001718:	68fb      	ldr	r3, [r7, #12]
 800171a:	4413      	add	r3, r2
 800171c:	60fb      	str	r3, [r7, #12]
  }
  
  while((HAL_GetTick() - tickstart) < wait)
 800171e:	bf00      	nop
 8001720:	f7ff ffde 	bl	80016e0 <HAL_GetTick>
 8001724:	4602      	mov	r2, r0
 8001726:	68bb      	ldr	r3, [r7, #8]
 8001728:	1ad3      	subs	r3, r2, r3
 800172a:	68fa      	ldr	r2, [r7, #12]
 800172c:	429a      	cmp	r2, r3
 800172e:	d8f7      	bhi.n	8001720 <HAL_Delay+0x28>
  {
  }
}
 8001730:	bf00      	nop
 8001732:	bf00      	nop
 8001734:	3710      	adds	r7, #16
 8001736:	46bd      	mov	sp, r7
 8001738:	bd80      	pop	{r7, pc}
 800173a:	bf00      	nop
 800173c:	20000008 	.word	0x20000008

08001740 <__NVIC_SetPriorityGrouping>:
           In case of a conflict between priority grouping and available
           priority bits (__NVIC_PRIO_BITS), the smallest possible priority group is set.
  \param [in]      PriorityGroup  Priority grouping field.
 */
__STATIC_INLINE void __NVIC_SetPriorityGrouping(uint32_t PriorityGroup)
{
 8001740:	b480      	push	{r7}
 8001742:	b085      	sub	sp, #20
 8001744:	af00      	add	r7, sp, #0
 8001746:	6078      	str	r0, [r7, #4]
  uint32_t reg_value;
  uint32_t PriorityGroupTmp = (PriorityGroup & (uint32_t)0x07UL);             /* only values 0..7 are used          */
 8001748:	687b      	ldr	r3, [r7, #4]
 800174a:	f003 0307 	and.w	r3, r3, #7
 800174e:	60fb      	str	r3, [r7, #12]

  reg_value  =  SCB->AIRCR;                                                   /* read old register configuration    */
 8001750:	4b0c      	ldr	r3, [pc, #48]	; (8001784 <__NVIC_SetPriorityGrouping+0x44>)
 8001752:	68db      	ldr	r3, [r3, #12]
 8001754:	60bb      	str	r3, [r7, #8]
  reg_value &= ~((uint32_t)(SCB_AIRCR_VECTKEY_Msk | SCB_AIRCR_PRIGROUP_Msk)); /* clear bits to change               */
 8001756:	68ba      	ldr	r2, [r7, #8]
 8001758:	f64f 03ff 	movw	r3, #63743	; 0xf8ff
 800175c:	4013      	ands	r3, r2
 800175e:	60bb      	str	r3, [r7, #8]
  reg_value  =  (reg_value                                   |
                ((uint32_t)0x5FAUL << SCB_AIRCR_VECTKEY_Pos) |
                (PriorityGroupTmp << SCB_AIRCR_PRIGROUP_Pos)  );              /* Insert write key and priority group */
 8001760:	68fb      	ldr	r3, [r7, #12]
 8001762:	021a      	lsls	r2, r3, #8
                ((uint32_t)0x5FAUL << SCB_AIRCR_VECTKEY_Pos) |
 8001764:	68bb      	ldr	r3, [r7, #8]
 8001766:	4313      	orrs	r3, r2
  reg_value  =  (reg_value                                   |
 8001768:	f043 63bf 	orr.w	r3, r3, #100139008	; 0x5f80000
 800176c:	f443 3300 	orr.w	r3, r3, #131072	; 0x20000
 8001770:	60bb      	str	r3, [r7, #8]
  SCB->AIRCR =  reg_value;
 8001772:	4a04      	ldr	r2, [pc, #16]	; (8001784 <__NVIC_SetPriorityGrouping+0x44>)
 8001774:	68bb      	ldr	r3, [r7, #8]
 8001776:	60d3      	str	r3, [r2, #12]
}
 8001778:	bf00      	nop
 800177a:	3714      	adds	r7, #20
 800177c:	46bd      	mov	sp, r7
 800177e:	f85d 7b04 	ldr.w	r7, [sp], #4
 8001782:	4770      	bx	lr
 8001784:	e000ed00 	.word	0xe000ed00

08001788 <__NVIC_GetPriorityGrouping>:
  \brief   Get Priority Grouping
  \details Reads the priority grouping field from the NVIC Interrupt Controller.
  \return                Priority grouping field (SCB->AIRCR [10:8] PRIGROUP field).
 */
__STATIC_INLINE uint32_t __NVIC_GetPriorityGrouping(void)
{
 8001788:	b480      	push	{r7}
 800178a:	af00      	add	r7, sp, #0
  return ((uint32_t)((SCB->AIRCR & SCB_AIRCR_PRIGROUP_Msk) >> SCB_AIRCR_PRIGROUP_Pos));
 800178c:	4b04      	ldr	r3, [pc, #16]	; (80017a0 <__NVIC_GetPriorityGrouping+0x18>)
 800178e:	68db      	ldr	r3, [r3, #12]
 8001790:	0a1b      	lsrs	r3, r3, #8
 8001792:	f003 0307 	and.w	r3, r3, #7
}
 8001796:	4618      	mov	r0, r3
 8001798:	46bd      	mov	sp, r7
 800179a:	f85d 7b04 	ldr.w	r7, [sp], #4
 800179e:	4770      	bx	lr
 80017a0:	e000ed00 	.word	0xe000ed00

080017a4 <__NVIC_SetPriority>:
  \param [in]      IRQn  Interrupt number.
  \param [in]  priority  Priority to set.
  \note    The priority cannot be set for every processor exception.
 */
__STATIC_INLINE void __NVIC_SetPriority(IRQn_Type IRQn, uint32_t priority)
{
 80017a4:	b480      	push	{r7}
 80017a6:	b083      	sub	sp, #12
 80017a8:	af00      	add	r7, sp, #0
 80017aa:	4603      	mov	r3, r0
 80017ac:	6039      	str	r1, [r7, #0]
 80017ae:	71fb      	strb	r3, [r7, #7]
  if ((int32_t)(IRQn) >= 0)
 80017b0:	f997 3007 	ldrsb.w	r3, [r7, #7]
 80017b4:	2b00      	cmp	r3, #0
 80017b6:	db0a      	blt.n	80017ce <__NVIC_SetPriority+0x2a>
  {
    NVIC->IP[((uint32_t)IRQn)]               = (uint8_t)((priority << (8U - __NVIC_PRIO_BITS)) & (uint32_t)0xFFUL);
 80017b8:	683b      	ldr	r3, [r7, #0]
 80017ba:	b2da      	uxtb	r2, r3
 80017bc:	490c      	ldr	r1, [pc, #48]	; (80017f0 <__NVIC_SetPriority+0x4c>)
 80017be:	f997 3007 	ldrsb.w	r3, [r7, #7]
 80017c2:	0112      	lsls	r2, r2, #4
 80017c4:	b2d2      	uxtb	r2, r2
 80017c6:	440b      	add	r3, r1
 80017c8:	f883 2300 	strb.w	r2, [r3, #768]	; 0x300
  }
  else
  {
    SCB->SHP[(((uint32_t)IRQn) & 0xFUL)-4UL] = (uint8_t)((priority << (8U - __NVIC_PRIO_BITS)) & (uint32_t)0xFFUL);
  }
}
 80017cc:	e00a      	b.n	80017e4 <__NVIC_SetPriority+0x40>
    SCB->SHP[(((uint32_t)IRQn) & 0xFUL)-4UL] = (uint8_t)((priority << (8U - __NVIC_PRIO_BITS)) & (uint32_t)0xFFUL);
 80017ce:	683b      	ldr	r3, [r7, #0]
 80017d0:	b2da      	uxtb	r2, r3
 80017d2:	4908      	ldr	r1, [pc, #32]	; (80017f4 <__NVIC_SetPriority+0x50>)
 80017d4:	79fb      	ldrb	r3, [r7, #7]
 80017d6:	f003 030f 	and.w	r3, r3, #15
 80017da:	3b04      	subs	r3, #4
 80017dc:	0112      	lsls	r2, r2, #4
 80017de:	b2d2      	uxtb	r2, r2
 80017e0:	440b      	add	r3, r1
 80017e2:	761a      	strb	r2, [r3, #24]
}
 80017e4:	bf00      	nop
 80017e6:	370c      	adds	r7, #12
 80017e8:	46bd      	mov	sp, r7
 80017ea:	f85d 7b04 	ldr.w	r7, [sp], #4
 80017ee:	4770      	bx	lr
 80017f0:	e000e100 	.word	0xe000e100
 80017f4:	e000ed00 	.word	0xe000ed00

080017f8 <NVIC_EncodePriority>:
  \param [in]   PreemptPriority  Preemptive priority value (starting from 0).
  \param [in]       SubPriority  Subpriority value (starting from 0).
  \return                        Encoded priority. Value can be used in the function \ref NVIC_SetPriority().
 */
__STATIC_INLINE uint32_t NVIC_EncodePriority (uint32_t PriorityGroup, uint32_t PreemptPriority, uint32_t SubPriority)
{
 80017f8:	b480      	push	{r7}
 80017fa:	b089      	sub	sp, #36	; 0x24
 80017fc:	af00      	add	r7, sp, #0
 80017fe:	60f8      	str	r0, [r7, #12]
 8001800:	60b9      	str	r1, [r7, #8]
 8001802:	607a      	str	r2, [r7, #4]
  uint32_t PriorityGroupTmp = (PriorityGroup & (uint32_t)0x07UL);   /* only values 0..7 are used          */
 8001804:	68fb      	ldr	r3, [r7, #12]
 8001806:	f003 0307 	and.w	r3, r3, #7
 800180a:	61fb      	str	r3, [r7, #28]
  uint32_t PreemptPriorityBits;
  uint32_t SubPriorityBits;

  PreemptPriorityBits = ((7UL - PriorityGroupTmp) > (uint32_t)(__NVIC_PRIO_BITS)) ? (uint32_t)(__NVIC_PRIO_BITS) : (uint32_t)(7UL - PriorityGroupTmp);
 800180c:	69fb      	ldr	r3, [r7, #28]
 800180e:	f1c3 0307 	rsb	r3, r3, #7
 8001812:	2b04      	cmp	r3, #4
 8001814:	bf28      	it	cs
 8001816:	2304      	movcs	r3, #4
 8001818:	61bb      	str	r3, [r7, #24]
  SubPriorityBits     = ((PriorityGroupTmp + (uint32_t)(__NVIC_PRIO_BITS)) < (uint32_t)7UL) ? (uint32_t)0UL : (uint32_t)((PriorityGroupTmp - 7UL) + (uint32_t)(__NVIC_PRIO_BITS));
 800181a:	69fb      	ldr	r3, [r7, #28]
 800181c:	3304      	adds	r3, #4
 800181e:	2b06      	cmp	r3, #6
 8001820:	d902      	bls.n	8001828 <NVIC_EncodePriority+0x30>
 8001822:	69fb      	ldr	r3, [r7, #28]
 8001824:	3b03      	subs	r3, #3
 8001826:	e000      	b.n	800182a <NVIC_EncodePriority+0x32>
 8001828:	2300      	movs	r3, #0
 800182a:	617b      	str	r3, [r7, #20]

  return (
           ((PreemptPriority & (uint32_t)((1UL << (PreemptPriorityBits)) - 1UL)) << SubPriorityBits) |
 800182c:	f04f 32ff 	mov.w	r2, #4294967295
 8001830:	69bb      	ldr	r3, [r7, #24]
 8001832:	fa02 f303 	lsl.w	r3, r2, r3
 8001836:	43da      	mvns	r2, r3
 8001838:	68bb      	ldr	r3, [r7, #8]
 800183a:	401a      	ands	r2, r3
 800183c:	697b      	ldr	r3, [r7, #20]
 800183e:	409a      	lsls	r2, r3
           ((SubPriority     & (uint32_t)((1UL << (SubPriorityBits    )) - 1UL)))
 8001840:	f04f 31ff 	mov.w	r1, #4294967295
 8001844:	697b      	ldr	r3, [r7, #20]
 8001846:	fa01 f303 	lsl.w	r3, r1, r3
 800184a:	43d9      	mvns	r1, r3
 800184c:	687b      	ldr	r3, [r7, #4]
 800184e:	400b      	ands	r3, r1
           ((PreemptPriority & (uint32_t)((1UL << (PreemptPriorityBits)) - 1UL)) << SubPriorityBits) |
 8001850:	4313      	orrs	r3, r2
         );
}
 8001852:	4618      	mov	r0, r3
 8001854:	3724      	adds	r7, #36	; 0x24
 8001856:	46bd      	mov	sp, r7
 8001858:	f85d 7b04 	ldr.w	r7, [sp], #4
 800185c:	4770      	bx	lr
	...

08001860 <SysTick_Config>:
  \note    When the variable <b>__Vendor_SysTickConfig</b> is set to 1, then the
           function <b>SysTick_Config</b> is not included. In this case, the file <b><i>device</i>.h</b>
           must contain a vendor-specific implementation of this function.
 */
__STATIC_INLINE uint32_t SysTick_Config(uint32_t ticks)
{
 8001860:	b580      	push	{r7, lr}
 8001862:	b082      	sub	sp, #8
 8001864:	af00      	add	r7, sp, #0
 8001866:	6078      	str	r0, [r7, #4]
  if ((ticks - 1UL) > SysTick_LOAD_RELOAD_Msk)
 8001868:	687b      	ldr	r3, [r7, #4]
 800186a:	3b01      	subs	r3, #1
 800186c:	f1b3 7f80 	cmp.w	r3, #16777216	; 0x1000000
 8001870:	d301      	bcc.n	8001876 <SysTick_Config+0x16>
  {
    return (1UL);                                                   /* Reload value impossible */
 8001872:	2301      	movs	r3, #1
 8001874:	e00f      	b.n	8001896 <SysTick_Config+0x36>
  }

  SysTick->LOAD  = (uint32_t)(ticks - 1UL);                         /* set reload register */
 8001876:	4a0a      	ldr	r2, [pc, #40]	; (80018a0 <SysTick_Config+0x40>)
 8001878:	687b      	ldr	r3, [r7, #4]
 800187a:	3b01      	subs	r3, #1
 800187c:	6053      	str	r3, [r2, #4]
  NVIC_SetPriority (SysTick_IRQn, (1UL << __NVIC_PRIO_BITS) - 1UL); /* set Priority for Systick Interrupt */
 800187e:	210f      	movs	r1, #15
 8001880:	f04f 30ff 	mov.w	r0, #4294967295
 8001884:	f7ff ff8e 	bl	80017a4 <__NVIC_SetPriority>
  SysTick->VAL   = 0UL;                                             /* Load the SysTick Counter Value */
 8001888:	4b05      	ldr	r3, [pc, #20]	; (80018a0 <SysTick_Config+0x40>)
 800188a:	2200      	movs	r2, #0
 800188c:	609a      	str	r2, [r3, #8]
  SysTick->CTRL  = SysTick_CTRL_CLKSOURCE_Msk |
 800188e:	4b04      	ldr	r3, [pc, #16]	; (80018a0 <SysTick_Config+0x40>)
 8001890:	2207      	movs	r2, #7
 8001892:	601a      	str	r2, [r3, #0]
                   SysTick_CTRL_TICKINT_Msk   |
                   SysTick_CTRL_ENABLE_Msk;                         /* Enable SysTick IRQ and SysTick Timer */
  return (0UL);                                                     /* Function successful */
 8001894:	2300      	movs	r3, #0
}
 8001896:	4618      	mov	r0, r3
 8001898:	3708      	adds	r7, #8
 800189a:	46bd      	mov	sp, r7
 800189c:	bd80      	pop	{r7, pc}
 800189e:	bf00      	nop
 80018a0:	e000e010 	.word	0xe000e010

080018a4 <HAL_NVIC_SetPriorityGrouping>:
  * @note   When the NVIC_PriorityGroup_0 is selected, IRQ pre-emption is no more possible.
  *         The pending IRQ priority will be managed only by the subpriority.
  * @retval None
  */
void HAL_NVIC_SetPriorityGrouping(uint32_t PriorityGroup)
{
 80018a4:	b580      	push	{r7, lr}
 80018a6:	b082      	sub	sp, #8
 80018a8:	af00      	add	r7, sp, #0
 80018aa:	6078      	str	r0, [r7, #4]
  /* Check the parameters */
  assert_param(IS_NVIC_PRIORITY_GROUP(PriorityGroup));

  /* Set the PRIGROUP[10:8] bits according to the PriorityGroup parameter value */
  NVIC_SetPriorityGrouping(PriorityGroup);
 80018ac:	6878      	ldr	r0, [r7, #4]
 80018ae:	f7ff ff47 	bl	8001740 <__NVIC_SetPriorityGrouping>
}
 80018b2:	bf00      	nop
 80018b4:	3708      	adds	r7, #8
 80018b6:	46bd      	mov	sp, r7
 80018b8:	bd80      	pop	{r7, pc}

080018ba <HAL_NVIC_SetPriority>:
  *         This parameter can be a value between 0 and 15 as described in the table CORTEX_NVIC_Priority_Table
  *         A lower priority value indicates a higher priority.
  * @retval None
  */
void HAL_NVIC_SetPriority(IRQn_Type IRQn, uint32_t PreemptPriority, uint32_t SubPriority)
{
 80018ba:	b580      	push	{r7, lr}
 80018bc:	b086      	sub	sp, #24
 80018be:	af00      	add	r7, sp, #0
 80018c0:	4603      	mov	r3, r0
 80018c2:	60b9      	str	r1, [r7, #8]
 80018c4:	607a      	str	r2, [r7, #4]
 80018c6:	73fb      	strb	r3, [r7, #15]
  uint32_t prioritygroup = 0x00U;
 80018c8:	2300      	movs	r3, #0
 80018ca:	617b      	str	r3, [r7, #20]
  
  /* Check the parameters */
  assert_param(IS_NVIC_SUB_PRIORITY(SubPriority));
  assert_param(IS_NVIC_PREEMPTION_PRIORITY(PreemptPriority));
  
  prioritygroup = NVIC_GetPriorityGrouping();
 80018cc:	f7ff ff5c 	bl	8001788 <__NVIC_GetPriorityGrouping>
 80018d0:	6178      	str	r0, [r7, #20]
  
  NVIC_SetPriority(IRQn, NVIC_EncodePriority(prioritygroup, PreemptPriority, SubPriority));
 80018d2:	687a      	ldr	r2, [r7, #4]
 80018d4:	68b9      	ldr	r1, [r7, #8]
 80018d6:	6978      	ldr	r0, [r7, #20]
 80018d8:	f7ff ff8e 	bl	80017f8 <NVIC_EncodePriority>
 80018dc:	4602      	mov	r2, r0
 80018de:	f997 300f 	ldrsb.w	r3, [r7, #15]
 80018e2:	4611      	mov	r1, r2
 80018e4:	4618      	mov	r0, r3
 80018e6:	f7ff ff5d 	bl	80017a4 <__NVIC_SetPriority>
}
 80018ea:	bf00      	nop
 80018ec:	3718      	adds	r7, #24
 80018ee:	46bd      	mov	sp, r7
 80018f0:	bd80      	pop	{r7, pc}

080018f2 <HAL_SYSTICK_Config>:
  * @param  TicksNumb Specifies the ticks Number of ticks between two interrupts.
  * @retval status:  - 0  Function succeeded.
  *                  - 1  Function failed.
  */
uint32_t HAL_SYSTICK_Config(uint32_t TicksNumb)
{
 80018f2:	b580      	push	{r7, lr}
 80018f4:	b082      	sub	sp, #8
 80018f6:	af00      	add	r7, sp, #0
 80018f8:	6078      	str	r0, [r7, #4]
   return SysTick_Config(TicksNumb);
 80018fa:	6878      	ldr	r0, [r7, #4]
 80018fc:	f7ff ffb0 	bl	8001860 <SysTick_Config>
 8001900:	4603      	mov	r3, r0
}
 8001902:	4618      	mov	r0, r3
 8001904:	3708      	adds	r7, #8
 8001906:	46bd      	mov	sp, r7
 8001908:	bd80      	pop	{r7, pc}
	...

0800190c <HAL_GPIO_Init>:
  * @param  GPIO_Init pointer to a GPIO_InitTypeDef structure that contains
  *         the configuration information for the specified GPIO peripheral.
  * @retval None
  */
void HAL_GPIO_Init(GPIO_TypeDef  *GPIOx, GPIO_InitTypeDef *GPIO_Init)
{
 800190c:	b480      	push	{r7}
 800190e:	b087      	sub	sp, #28
 8001910:	af00      	add	r7, sp, #0
 8001912:	6078      	str	r0, [r7, #4]
 8001914:	6039      	str	r1, [r7, #0]
  uint32_t position = 0x00u;
 8001916:	2300      	movs	r3, #0
 8001918:	617b      	str	r3, [r7, #20]
  assert_param(IS_GPIO_ALL_INSTANCE(GPIOx));
  assert_param(IS_GPIO_PIN(GPIO_Init->Pin));
  assert_param(IS_GPIO_MODE(GPIO_Init->Mode));

  /* Configure the port pins */
  while (((GPIO_Init->Pin) >> position) != 0x00u)
 800191a:	e14e      	b.n	8001bba <HAL_GPIO_Init+0x2ae>
  {
    /* Get current io position */
    iocurrent = (GPIO_Init->Pin) & (1uL << position);
 800191c:	683b      	ldr	r3, [r7, #0]
 800191e:	681a      	ldr	r2, [r3, #0]
 8001920:	2101      	movs	r1, #1
 8001922:	697b      	ldr	r3, [r7, #20]
 8001924:	fa01 f303 	lsl.w	r3, r1, r3
 8001928:	4013      	ands	r3, r2
 800192a:	60fb      	str	r3, [r7, #12]

    if (iocurrent != 0x00u)
 800192c:	68fb      	ldr	r3, [r7, #12]
 800192e:	2b00      	cmp	r3, #0
 8001930:	f000 8140 	beq.w	8001bb4 <HAL_GPIO_Init+0x2a8>
    {
      /*--------------------- GPIO Mode Configuration ------------------------*/
      /* In case of Output or Alternate function mode selection */
      if(((GPIO_Init->Mode & GPIO_MODE) == MODE_OUTPUT) || ((GPIO_Init->Mode & GPIO_MODE) == MODE_AF))
 8001934:	683b      	ldr	r3, [r7, #0]
 8001936:	685b      	ldr	r3, [r3, #4]
 8001938:	f003 0303 	and.w	r3, r3, #3
 800193c:	2b01      	cmp	r3, #1
 800193e:	d005      	beq.n	800194c <HAL_GPIO_Init+0x40>
 8001940:	683b      	ldr	r3, [r7, #0]
 8001942:	685b      	ldr	r3, [r3, #4]
 8001944:	f003 0303 	and.w	r3, r3, #3
 8001948:	2b02      	cmp	r3, #2
 800194a:	d130      	bne.n	80019ae <HAL_GPIO_Init+0xa2>
      {
        /* Check the Speed parameter */
        assert_param(IS_GPIO_SPEED(GPIO_Init->Speed));
        /* Configure the IO Speed */
        temp = GPIOx->OSPEEDR;
 800194c:	687b      	ldr	r3, [r7, #4]
 800194e:	689b      	ldr	r3, [r3, #8]
 8001950:	613b      	str	r3, [r7, #16]
        temp &= ~(GPIO_OSPEEDER_OSPEEDR0 << (position * 2u));
 8001952:	697b      	ldr	r3, [r7, #20]
 8001954:	005b      	lsls	r3, r3, #1
 8001956:	2203      	movs	r2, #3
 8001958:	fa02 f303 	lsl.w	r3, r2, r3
 800195c:	43db      	mvns	r3, r3
 800195e:	693a      	ldr	r2, [r7, #16]
 8001960:	4013      	ands	r3, r2
 8001962:	613b      	str	r3, [r7, #16]
        temp |= (GPIO_Init->Speed << (position * 2u));
 8001964:	683b      	ldr	r3, [r7, #0]
 8001966:	68da      	ldr	r2, [r3, #12]
 8001968:	697b      	ldr	r3, [r7, #20]
 800196a:	005b      	lsls	r3, r3, #1
 800196c:	fa02 f303 	lsl.w	r3, r2, r3
 8001970:	693a      	ldr	r2, [r7, #16]
 8001972:	4313      	orrs	r3, r2
 8001974:	613b      	str	r3, [r7, #16]
        GPIOx->OSPEEDR = temp;
 8001976:	687b      	ldr	r3, [r7, #4]
 8001978:	693a      	ldr	r2, [r7, #16]
 800197a:	609a      	str	r2, [r3, #8]

        /* Configure the IO Output Type */
        temp = GPIOx->OTYPER;
 800197c:	687b      	ldr	r3, [r7, #4]
 800197e:	685b      	ldr	r3, [r3, #4]
 8001980:	613b      	str	r3, [r7, #16]
        temp &= ~(GPIO_OTYPER_OT_0 << position) ;
 8001982:	2201      	movs	r2, #1
 8001984:	697b      	ldr	r3, [r7, #20]
 8001986:	fa02 f303 	lsl.w	r3, r2, r3
 800198a:	43db      	mvns	r3, r3
 800198c:	693a      	ldr	r2, [r7, #16]
 800198e:	4013      	ands	r3, r2
 8001990:	613b      	str	r3, [r7, #16]
        temp |= (((GPIO_Init->Mode & OUTPUT_TYPE) >> OUTPUT_TYPE_Pos) << position);
 8001992:	683b      	ldr	r3, [r7, #0]
 8001994:	685b      	ldr	r3, [r3, #4]
 8001996:	091b      	lsrs	r3, r3, #4
 8001998:	f003 0201 	and.w	r2, r3, #1
 800199c:	697b      	ldr	r3, [r7, #20]
 800199e:	fa02 f303 	lsl.w	r3, r2, r3
 80019a2:	693a      	ldr	r2, [r7, #16]
 80019a4:	4313      	orrs	r3, r2
 80019a6:	613b      	str	r3, [r7, #16]
        GPIOx->OTYPER = temp;
 80019a8:	687b      	ldr	r3, [r7, #4]
 80019aa:	693a      	ldr	r2, [r7, #16]
 80019ac:	605a      	str	r2, [r3, #4]
      }

      if((GPIO_Init->Mode & GPIO_MODE) != MODE_ANALOG)
 80019ae:	683b      	ldr	r3, [r7, #0]
 80019b0:	685b      	ldr	r3, [r3, #4]
 80019b2:	f003 0303 	and.w	r3, r3, #3
 80019b6:	2b03      	cmp	r3, #3
 80019b8:	d017      	beq.n	80019ea <HAL_GPIO_Init+0xde>
      {
        /* Check the Pull parameter */
        assert_param(IS_GPIO_PULL(GPIO_Init->Pull));

        /* Activate the Pull-up or Pull down resistor for the current IO */
        temp = GPIOx->PUPDR;
 80019ba:	687b      	ldr	r3, [r7, #4]
 80019bc:	68db      	ldr	r3, [r3, #12]
 80019be:	613b      	str	r3, [r7, #16]
        temp &= ~(GPIO_PUPDR_PUPDR0 << (position * 2u));
 80019c0:	697b      	ldr	r3, [r7, #20]
 80019c2:	005b      	lsls	r3, r3, #1
 80019c4:	2203      	movs	r2, #3
 80019c6:	fa02 f303 	lsl.w	r3, r2, r3
 80019ca:	43db      	mvns	r3, r3
 80019cc:	693a      	ldr	r2, [r7, #16]
 80019ce:	4013      	ands	r3, r2
 80019d0:	613b      	str	r3, [r7, #16]
        temp |= ((GPIO_Init->Pull) << (position * 2u));
 80019d2:	683b      	ldr	r3, [r7, #0]
 80019d4:	689a      	ldr	r2, [r3, #8]
 80019d6:	697b      	ldr	r3, [r7, #20]
 80019d8:	005b      	lsls	r3, r3, #1
 80019da:	fa02 f303 	lsl.w	r3, r2, r3
 80019de:	693a      	ldr	r2, [r7, #16]
 80019e0:	4313      	orrs	r3, r2
 80019e2:	613b      	str	r3, [r7, #16]
        GPIOx->PUPDR = temp;
 80019e4:	687b      	ldr	r3, [r7, #4]
 80019e6:	693a      	ldr	r2, [r7, #16]
 80019e8:	60da      	str	r2, [r3, #12]
      }

      /*--------------------- GPIO Mode Configuration ------------------------*/
      /* In case of Alternate function mode selection */
      if((GPIO_Init->Mode & GPIO_MODE) == MODE_AF)
 80019ea:	683b      	ldr	r3, [r7, #0]
 80019ec:	685b      	ldr	r3, [r3, #4]
 80019ee:	f003 0303 	and.w	r3, r3, #3
 80019f2:	2b02      	cmp	r3, #2
 80019f4:	d123      	bne.n	8001a3e <HAL_GPIO_Init+0x132>
        /* Check the Alternate function parameters */
        assert_param(IS_GPIO_AF_INSTANCE(GPIOx));
        assert_param(IS_GPIO_AF(GPIO_Init->Alternate));

        /* Configure Alternate function mapped with the current IO */
        temp = GPIOx->AFR[position >> 3u];
 80019f6:	697b      	ldr	r3, [r7, #20]
 80019f8:	08da      	lsrs	r2, r3, #3
 80019fa:	687b      	ldr	r3, [r7, #4]
 80019fc:	3208      	adds	r2, #8
 80019fe:	f853 3022 	ldr.w	r3, [r3, r2, lsl #2]
 8001a02:	613b      	str	r3, [r7, #16]
        temp &= ~(0xFu << ((position & 0x07u) * 4u));
 8001a04:	697b      	ldr	r3, [r7, #20]
 8001a06:	f003 0307 	and.w	r3, r3, #7
 8001a0a:	009b      	lsls	r3, r3, #2
 8001a0c:	220f      	movs	r2, #15
 8001a0e:	fa02 f303 	lsl.w	r3, r2, r3
 8001a12:	43db      	mvns	r3, r3
 8001a14:	693a      	ldr	r2, [r7, #16]
 8001a16:	4013      	ands	r3, r2
 8001a18:	613b      	str	r3, [r7, #16]
        temp |= ((GPIO_Init->Alternate) << ((position & 0x07u) * 4u));
 8001a1a:	683b      	ldr	r3, [r7, #0]
 8001a1c:	691a      	ldr	r2, [r3, #16]
 8001a1e:	697b      	ldr	r3, [r7, #20]
 8001a20:	f003 0307 	and.w	r3, r3, #7
 8001a24:	009b      	lsls	r3, r3, #2
 8001a26:	fa02 f303 	lsl.w	r3, r2, r3
 8001a2a:	693a      	ldr	r2, [r7, #16]
 8001a2c:	4313      	orrs	r3, r2
 8001a2e:	613b      	str	r3, [r7, #16]
        GPIOx->AFR[position >> 3u] = temp;
 8001a30:	697b      	ldr	r3, [r7, #20]
 8001a32:	08da      	lsrs	r2, r3, #3
 8001a34:	687b      	ldr	r3, [r7, #4]
 8001a36:	3208      	adds	r2, #8
 8001a38:	6939      	ldr	r1, [r7, #16]
 8001a3a:	f843 1022 	str.w	r1, [r3, r2, lsl #2]
      }

      /* Configure IO Direction mode (Input, Output, Alternate or Analog) */
      temp = GPIOx->MODER;
 8001a3e:	687b      	ldr	r3, [r7, #4]
 8001a40:	681b      	ldr	r3, [r3, #0]
 8001a42:	613b      	str	r3, [r7, #16]
      temp &= ~(GPIO_MODER_MODER0 << (position * 2u));
 8001a44:	697b      	ldr	r3, [r7, #20]
 8001a46:	005b      	lsls	r3, r3, #1
 8001a48:	2203      	movs	r2, #3
 8001a4a:	fa02 f303 	lsl.w	r3, r2, r3
 8001a4e:	43db      	mvns	r3, r3
 8001a50:	693a      	ldr	r2, [r7, #16]
 8001a52:	4013      	ands	r3, r2
 8001a54:	613b      	str	r3, [r7, #16]
      temp |= ((GPIO_Init->Mode & GPIO_MODE) << (position * 2u));
 8001a56:	683b      	ldr	r3, [r7, #0]
 8001a58:	685b      	ldr	r3, [r3, #4]
 8001a5a:	f003 0203 	and.w	r2, r3, #3
 8001a5e:	697b      	ldr	r3, [r7, #20]
 8001a60:	005b      	lsls	r3, r3, #1
 8001a62:	fa02 f303 	lsl.w	r3, r2, r3
 8001a66:	693a      	ldr	r2, [r7, #16]
 8001a68:	4313      	orrs	r3, r2
 8001a6a:	613b      	str	r3, [r7, #16]
      GPIOx->MODER = temp;
 8001a6c:	687b      	ldr	r3, [r7, #4]
 8001a6e:	693a      	ldr	r2, [r7, #16]
 8001a70:	601a      	str	r2, [r3, #0]

      /*--------------------- EXTI Mode Configuration ------------------------*/
      /* Configure the External Interrupt or event for the current IO */
      if((GPIO_Init->Mode & EXTI_MODE) != 0x00u)
 8001a72:	683b      	ldr	r3, [r7, #0]
 8001a74:	685b      	ldr	r3, [r3, #4]
 8001a76:	f403 3340 	and.w	r3, r3, #196608	; 0x30000
 8001a7a:	2b00      	cmp	r3, #0
 8001a7c:	f000 809a 	beq.w	8001bb4 <HAL_GPIO_Init+0x2a8>
      {
        /* Enable SYSCFG Clock */
        __HAL_RCC_SYSCFG_CLK_ENABLE();
 8001a80:	4b55      	ldr	r3, [pc, #340]	; (8001bd8 <HAL_GPIO_Init+0x2cc>)
 8001a82:	699b      	ldr	r3, [r3, #24]
 8001a84:	4a54      	ldr	r2, [pc, #336]	; (8001bd8 <HAL_GPIO_Init+0x2cc>)
 8001a86:	f043 0301 	orr.w	r3, r3, #1
 8001a8a:	6193      	str	r3, [r2, #24]
 8001a8c:	4b52      	ldr	r3, [pc, #328]	; (8001bd8 <HAL_GPIO_Init+0x2cc>)
 8001a8e:	699b      	ldr	r3, [r3, #24]
 8001a90:	f003 0301 	and.w	r3, r3, #1
 8001a94:	60bb      	str	r3, [r7, #8]
 8001a96:	68bb      	ldr	r3, [r7, #8]

        temp = SYSCFG->EXTICR[position >> 2u];
 8001a98:	4a50      	ldr	r2, [pc, #320]	; (8001bdc <HAL_GPIO_Init+0x2d0>)
 8001a9a:	697b      	ldr	r3, [r7, #20]
 8001a9c:	089b      	lsrs	r3, r3, #2
 8001a9e:	3302      	adds	r3, #2
 8001aa0:	f852 3023 	ldr.w	r3, [r2, r3, lsl #2]
 8001aa4:	613b      	str	r3, [r7, #16]
        temp &= ~(0x0FuL << (4u * (position & 0x03u)));
 8001aa6:	697b      	ldr	r3, [r7, #20]
 8001aa8:	f003 0303 	and.w	r3, r3, #3
 8001aac:	009b      	lsls	r3, r3, #2
 8001aae:	220f      	movs	r2, #15
 8001ab0:	fa02 f303 	lsl.w	r3, r2, r3
 8001ab4:	43db      	mvns	r3, r3
 8001ab6:	693a      	ldr	r2, [r7, #16]
 8001ab8:	4013      	ands	r3, r2
 8001aba:	613b      	str	r3, [r7, #16]
        temp |= (GPIO_GET_INDEX(GPIOx) << (4u * (position & 0x03u)));
 8001abc:	687b      	ldr	r3, [r7, #4]
 8001abe:	f1b3 4f90 	cmp.w	r3, #1207959552	; 0x48000000
 8001ac2:	d013      	beq.n	8001aec <HAL_GPIO_Init+0x1e0>
 8001ac4:	687b      	ldr	r3, [r7, #4]
 8001ac6:	4a46      	ldr	r2, [pc, #280]	; (8001be0 <HAL_GPIO_Init+0x2d4>)
 8001ac8:	4293      	cmp	r3, r2
 8001aca:	d00d      	beq.n	8001ae8 <HAL_GPIO_Init+0x1dc>
 8001acc:	687b      	ldr	r3, [r7, #4]
 8001ace:	4a45      	ldr	r2, [pc, #276]	; (8001be4 <HAL_GPIO_Init+0x2d8>)
 8001ad0:	4293      	cmp	r3, r2
 8001ad2:	d007      	beq.n	8001ae4 <HAL_GPIO_Init+0x1d8>
 8001ad4:	687b      	ldr	r3, [r7, #4]
 8001ad6:	4a44      	ldr	r2, [pc, #272]	; (8001be8 <HAL_GPIO_Init+0x2dc>)
 8001ad8:	4293      	cmp	r3, r2
 8001ada:	d101      	bne.n	8001ae0 <HAL_GPIO_Init+0x1d4>
 8001adc:	2303      	movs	r3, #3
 8001ade:	e006      	b.n	8001aee <HAL_GPIO_Init+0x1e2>
 8001ae0:	2305      	movs	r3, #5
 8001ae2:	e004      	b.n	8001aee <HAL_GPIO_Init+0x1e2>
 8001ae4:	2302      	movs	r3, #2
 8001ae6:	e002      	b.n	8001aee <HAL_GPIO_Init+0x1e2>
 8001ae8:	2301      	movs	r3, #1
 8001aea:	e000      	b.n	8001aee <HAL_GPIO_Init+0x1e2>
 8001aec:	2300      	movs	r3, #0
 8001aee:	697a      	ldr	r2, [r7, #20]
 8001af0:	f002 0203 	and.w	r2, r2, #3
 8001af4:	0092      	lsls	r2, r2, #2
 8001af6:	4093      	lsls	r3, r2
 8001af8:	693a      	ldr	r2, [r7, #16]
 8001afa:	4313      	orrs	r3, r2
 8001afc:	613b      	str	r3, [r7, #16]
        SYSCFG->EXTICR[position >> 2u] = temp;
 8001afe:	4937      	ldr	r1, [pc, #220]	; (8001bdc <HAL_GPIO_Init+0x2d0>)
 8001b00:	697b      	ldr	r3, [r7, #20]
 8001b02:	089b      	lsrs	r3, r3, #2
 8001b04:	3302      	adds	r3, #2
 8001b06:	693a      	ldr	r2, [r7, #16]
 8001b08:	f841 2023 	str.w	r2, [r1, r3, lsl #2]

        /* Clear EXTI line configuration */
        temp = EXTI->IMR;
 8001b0c:	4b37      	ldr	r3, [pc, #220]	; (8001bec <HAL_GPIO_Init+0x2e0>)
 8001b0e:	681b      	ldr	r3, [r3, #0]
 8001b10:	613b      	str	r3, [r7, #16]
        temp &= ~(iocurrent);
 8001b12:	68fb      	ldr	r3, [r7, #12]
 8001b14:	43db      	mvns	r3, r3
 8001b16:	693a      	ldr	r2, [r7, #16]
 8001b18:	4013      	ands	r3, r2
 8001b1a:	613b      	str	r3, [r7, #16]
        if((GPIO_Init->Mode & EXTI_IT) != 0x00u)
 8001b1c:	683b      	ldr	r3, [r7, #0]
 8001b1e:	685b      	ldr	r3, [r3, #4]
 8001b20:	f403 3380 	and.w	r3, r3, #65536	; 0x10000
 8001b24:	2b00      	cmp	r3, #0
 8001b26:	d003      	beq.n	8001b30 <HAL_GPIO_Init+0x224>
        {
          temp |= iocurrent;
 8001b28:	693a      	ldr	r2, [r7, #16]
 8001b2a:	68fb      	ldr	r3, [r7, #12]
 8001b2c:	4313      	orrs	r3, r2
 8001b2e:	613b      	str	r3, [r7, #16]
        }
        EXTI->IMR = temp;
 8001b30:	4a2e      	ldr	r2, [pc, #184]	; (8001bec <HAL_GPIO_Init+0x2e0>)
 8001b32:	693b      	ldr	r3, [r7, #16]
 8001b34:	6013      	str	r3, [r2, #0]

        temp = EXTI->EMR;
 8001b36:	4b2d      	ldr	r3, [pc, #180]	; (8001bec <HAL_GPIO_Init+0x2e0>)
 8001b38:	685b      	ldr	r3, [r3, #4]
 8001b3a:	613b      	str	r3, [r7, #16]
        temp &= ~(iocurrent);
 8001b3c:	68fb      	ldr	r3, [r7, #12]
 8001b3e:	43db      	mvns	r3, r3
 8001b40:	693a      	ldr	r2, [r7, #16]
 8001b42:	4013      	ands	r3, r2
 8001b44:	613b      	str	r3, [r7, #16]
        if((GPIO_Init->Mode & EXTI_EVT) != 0x00u)
 8001b46:	683b      	ldr	r3, [r7, #0]
 8001b48:	685b      	ldr	r3, [r3, #4]
 8001b4a:	f403 3300 	and.w	r3, r3, #131072	; 0x20000
 8001b4e:	2b00      	cmp	r3, #0
 8001b50:	d003      	beq.n	8001b5a <HAL_GPIO_Init+0x24e>
        {
          temp |= iocurrent;
 8001b52:	693a      	ldr	r2, [r7, #16]
 8001b54:	68fb      	ldr	r3, [r7, #12]
 8001b56:	4313      	orrs	r3, r2
 8001b58:	613b      	str	r3, [r7, #16]
        }
        EXTI->EMR = temp;
 8001b5a:	4a24      	ldr	r2, [pc, #144]	; (8001bec <HAL_GPIO_Init+0x2e0>)
 8001b5c:	693b      	ldr	r3, [r7, #16]
 8001b5e:	6053      	str	r3, [r2, #4]

        /* Clear Rising Falling edge configuration */
        temp = EXTI->RTSR;
 8001b60:	4b22      	ldr	r3, [pc, #136]	; (8001bec <HAL_GPIO_Init+0x2e0>)
 8001b62:	689b      	ldr	r3, [r3, #8]
 8001b64:	613b      	str	r3, [r7, #16]
        temp &= ~(iocurrent);
 8001b66:	68fb      	ldr	r3, [r7, #12]
 8001b68:	43db      	mvns	r3, r3
 8001b6a:	693a      	ldr	r2, [r7, #16]
 8001b6c:	4013      	ands	r3, r2
 8001b6e:	613b      	str	r3, [r7, #16]
        if((GPIO_Init->Mode & TRIGGER_RISING) != 0x00u)
 8001b70:	683b      	ldr	r3, [r7, #0]
 8001b72:	685b      	ldr	r3, [r3, #4]
 8001b74:	f403 1380 	and.w	r3, r3, #1048576	; 0x100000
 8001b78:	2b00      	cmp	r3, #0
 8001b7a:	d003      	beq.n	8001b84 <HAL_GPIO_Init+0x278>
        {
          temp |= iocurrent;
 8001b7c:	693a      	ldr	r2, [r7, #16]
 8001b7e:	68fb      	ldr	r3, [r7, #12]
 8001b80:	4313      	orrs	r3, r2
 8001b82:	613b      	str	r3, [r7, #16]
        }
        EXTI->RTSR = temp;
 8001b84:	4a19      	ldr	r2, [pc, #100]	; (8001bec <HAL_GPIO_Init+0x2e0>)
 8001b86:	693b      	ldr	r3, [r7, #16]
 8001b88:	6093      	str	r3, [r2, #8]

        temp = EXTI->FTSR;
 8001b8a:	4b18      	ldr	r3, [pc, #96]	; (8001bec <HAL_GPIO_Init+0x2e0>)
 8001b8c:	68db      	ldr	r3, [r3, #12]
 8001b8e:	613b      	str	r3, [r7, #16]
        temp &= ~(iocurrent);
 8001b90:	68fb      	ldr	r3, [r7, #12]
 8001b92:	43db      	mvns	r3, r3
 8001b94:	693a      	ldr	r2, [r7, #16]
 8001b96:	4013      	ands	r3, r2
 8001b98:	613b      	str	r3, [r7, #16]
        if((GPIO_Init->Mode & TRIGGER_FALLING) != 0x00u)
 8001b9a:	683b      	ldr	r3, [r7, #0]
 8001b9c:	685b      	ldr	r3, [r3, #4]
 8001b9e:	f403 1300 	and.w	r3, r3, #2097152	; 0x200000
 8001ba2:	2b00      	cmp	r3, #0
 8001ba4:	d003      	beq.n	8001bae <HAL_GPIO_Init+0x2a2>
        {
          temp |= iocurrent;
 8001ba6:	693a      	ldr	r2, [r7, #16]
 8001ba8:	68fb      	ldr	r3, [r7, #12]
 8001baa:	4313      	orrs	r3, r2
 8001bac:	613b      	str	r3, [r7, #16]
        }
        EXTI->FTSR = temp;
 8001bae:	4a0f      	ldr	r2, [pc, #60]	; (8001bec <HAL_GPIO_Init+0x2e0>)
 8001bb0:	693b      	ldr	r3, [r7, #16]
 8001bb2:	60d3      	str	r3, [r2, #12]
      }
    }

    position++;
 8001bb4:	697b      	ldr	r3, [r7, #20]
 8001bb6:	3301      	adds	r3, #1
 8001bb8:	617b      	str	r3, [r7, #20]
  while (((GPIO_Init->Pin) >> position) != 0x00u)
 8001bba:	683b      	ldr	r3, [r7, #0]
 8001bbc:	681a      	ldr	r2, [r3, #0]
 8001bbe:	697b      	ldr	r3, [r7, #20]
 8001bc0:	fa22 f303 	lsr.w	r3, r2, r3
 8001bc4:	2b00      	cmp	r3, #0
 8001bc6:	f47f aea9 	bne.w	800191c <HAL_GPIO_Init+0x10>
  }
}
 8001bca:	bf00      	nop
 8001bcc:	bf00      	nop
 8001bce:	371c      	adds	r7, #28
 8001bd0:	46bd      	mov	sp, r7
 8001bd2:	f85d 7b04 	ldr.w	r7, [sp], #4
 8001bd6:	4770      	bx	lr
 8001bd8:	40021000 	.word	0x40021000
 8001bdc:	40010000 	.word	0x40010000
 8001be0:	48000400 	.word	0x48000400
 8001be4:	48000800 	.word	0x48000800
 8001be8:	48000c00 	.word	0x48000c00
 8001bec:	40010400 	.word	0x40010400

08001bf0 <HAL_I2C_Init>:
  * @param  hi2c Pointer to a I2C_HandleTypeDef structure that contains
  *                the configuration information for the specified I2C.
  * @retval HAL status
  */
HAL_StatusTypeDef HAL_I2C_Init(I2C_HandleTypeDef *hi2c)
{
 8001bf0:	b580      	push	{r7, lr}
 8001bf2:	b082      	sub	sp, #8
 8001bf4:	af00      	add	r7, sp, #0
 8001bf6:	6078      	str	r0, [r7, #4]
  /* Check the I2C handle allocation */
  if (hi2c == NULL)
 8001bf8:	687b      	ldr	r3, [r7, #4]
 8001bfa:	2b00      	cmp	r3, #0
 8001bfc:	d101      	bne.n	8001c02 <HAL_I2C_Init+0x12>
  {
    return HAL_ERROR;
 8001bfe:	2301      	movs	r3, #1
 8001c00:	e081      	b.n	8001d06 <HAL_I2C_Init+0x116>
  assert_param(IS_I2C_OWN_ADDRESS2(hi2c->Init.OwnAddress2));
  assert_param(IS_I2C_OWN_ADDRESS2_MASK(hi2c->Init.OwnAddress2Masks));
  assert_param(IS_I2C_GENERAL_CALL(hi2c->Init.GeneralCallMode));
  assert_param(IS_I2C_NO_STRETCH(hi2c->Init.NoStretchMode));

  if (hi2c->State == HAL_I2C_STATE_RESET)
 8001c02:	687b      	ldr	r3, [r7, #4]
 8001c04:	f893 3041 	ldrb.w	r3, [r3, #65]	; 0x41
 8001c08:	b2db      	uxtb	r3, r3
 8001c0a:	2b00      	cmp	r3, #0
 8001c0c:	d106      	bne.n	8001c1c <HAL_I2C_Init+0x2c>
  {
    /* Allocate lock resource and initialize it */
    hi2c->Lock = HAL_UNLOCKED;
 8001c0e:	687b      	ldr	r3, [r7, #4]
 8001c10:	2200      	movs	r2, #0
 8001c12:	f883 2040 	strb.w	r2, [r3, #64]	; 0x40

    /* Init the low level hardware : GPIO, CLOCK, CORTEX...etc */
    hi2c->MspInitCallback(hi2c);
#else
    /* Init the low level hardware : GPIO, CLOCK, CORTEX...etc */
    HAL_I2C_MspInit(hi2c);
 8001c16:	6878      	ldr	r0, [r7, #4]
 8001c18:	f7ff fb54 	bl	80012c4 <HAL_I2C_MspInit>
#endif /* USE_HAL_I2C_REGISTER_CALLBACKS */
  }

  hi2c->State = HAL_I2C_STATE_BUSY;
 8001c1c:	687b      	ldr	r3, [r7, #4]
 8001c1e:	2224      	movs	r2, #36	; 0x24
 8001c20:	f883 2041 	strb.w	r2, [r3, #65]	; 0x41

  /* Disable the selected I2C peripheral */
  __HAL_I2C_DISABLE(hi2c);
 8001c24:	687b      	ldr	r3, [r7, #4]
 8001c26:	681b      	ldr	r3, [r3, #0]
 8001c28:	681a      	ldr	r2, [r3, #0]
 8001c2a:	687b      	ldr	r3, [r7, #4]
 8001c2c:	681b      	ldr	r3, [r3, #0]
 8001c2e:	f022 0201 	bic.w	r2, r2, #1
 8001c32:	601a      	str	r2, [r3, #0]

  /*---------------------------- I2Cx TIMINGR Configuration ------------------*/
  /* Configure I2Cx: Frequency range */
  hi2c->Instance->TIMINGR = hi2c->Init.Timing & TIMING_CLEAR_MASK;
 8001c34:	687b      	ldr	r3, [r7, #4]
 8001c36:	685a      	ldr	r2, [r3, #4]
 8001c38:	687b      	ldr	r3, [r7, #4]
 8001c3a:	681b      	ldr	r3, [r3, #0]
 8001c3c:	f022 6270 	bic.w	r2, r2, #251658240	; 0xf000000
 8001c40:	611a      	str	r2, [r3, #16]

  /*---------------------------- I2Cx OAR1 Configuration ---------------------*/
  /* Disable Own Address1 before set the Own Address1 configuration */
  hi2c->Instance->OAR1 &= ~I2C_OAR1_OA1EN;
 8001c42:	687b      	ldr	r3, [r7, #4]
 8001c44:	681b      	ldr	r3, [r3, #0]
 8001c46:	689a      	ldr	r2, [r3, #8]
 8001c48:	687b      	ldr	r3, [r7, #4]
 8001c4a:	681b      	ldr	r3, [r3, #0]
 8001c4c:	f422 4200 	bic.w	r2, r2, #32768	; 0x8000
 8001c50:	609a      	str	r2, [r3, #8]

  /* Configure I2Cx: Own Address1 and ack own address1 mode */
  if (hi2c->Init.AddressingMode == I2C_ADDRESSINGMODE_7BIT)
 8001c52:	687b      	ldr	r3, [r7, #4]
 8001c54:	68db      	ldr	r3, [r3, #12]
 8001c56:	2b01      	cmp	r3, #1
 8001c58:	d107      	bne.n	8001c6a <HAL_I2C_Init+0x7a>
  {
    hi2c->Instance->OAR1 = (I2C_OAR1_OA1EN | hi2c->Init.OwnAddress1);
 8001c5a:	687b      	ldr	r3, [r7, #4]
 8001c5c:	689a      	ldr	r2, [r3, #8]
 8001c5e:	687b      	ldr	r3, [r7, #4]
 8001c60:	681b      	ldr	r3, [r3, #0]
 8001c62:	f442 4200 	orr.w	r2, r2, #32768	; 0x8000
 8001c66:	609a      	str	r2, [r3, #8]
 8001c68:	e006      	b.n	8001c78 <HAL_I2C_Init+0x88>
  }
  else /* I2C_ADDRESSINGMODE_10BIT */
  {
    hi2c->Instance->OAR1 = (I2C_OAR1_OA1EN | I2C_OAR1_OA1MODE | hi2c->Init.OwnAddress1);
 8001c6a:	687b      	ldr	r3, [r7, #4]
 8001c6c:	689a      	ldr	r2, [r3, #8]
 8001c6e:	687b      	ldr	r3, [r7, #4]
 8001c70:	681b      	ldr	r3, [r3, #0]
 8001c72:	f442 4204 	orr.w	r2, r2, #33792	; 0x8400
 8001c76:	609a      	str	r2, [r3, #8]
  }

  /*---------------------------- I2Cx CR2 Configuration ----------------------*/
  /* Configure I2Cx: Addressing Master mode */
  if (hi2c->Init.AddressingMode == I2C_ADDRESSINGMODE_10BIT)
 8001c78:	687b      	ldr	r3, [r7, #4]
 8001c7a:	68db      	ldr	r3, [r3, #12]
 8001c7c:	2b02      	cmp	r3, #2
 8001c7e:	d104      	bne.n	8001c8a <HAL_I2C_Init+0x9a>
  {
    hi2c->Instance->CR2 = (I2C_CR2_ADD10);
 8001c80:	687b      	ldr	r3, [r7, #4]
 8001c82:	681b      	ldr	r3, [r3, #0]
 8001c84:	f44f 6200 	mov.w	r2, #2048	; 0x800
 8001c88:	605a      	str	r2, [r3, #4]
  }
  /* Enable the AUTOEND by default, and enable NACK (should be disable only during Slave process */
  hi2c->Instance->CR2 |= (I2C_CR2_AUTOEND | I2C_CR2_NACK);
 8001c8a:	687b      	ldr	r3, [r7, #4]
 8001c8c:	681b      	ldr	r3, [r3, #0]
 8001c8e:	685b      	ldr	r3, [r3, #4]
 8001c90:	687a      	ldr	r2, [r7, #4]
 8001c92:	6812      	ldr	r2, [r2, #0]
 8001c94:	f043 7300 	orr.w	r3, r3, #33554432	; 0x2000000
 8001c98:	f443 4300 	orr.w	r3, r3, #32768	; 0x8000
 8001c9c:	6053      	str	r3, [r2, #4]

  /*---------------------------- I2Cx OAR2 Configuration ---------------------*/
  /* Disable Own Address2 before set the Own Address2 configuration */
  hi2c->Instance->OAR2 &= ~I2C_DUALADDRESS_ENABLE;
 8001c9e:	687b      	ldr	r3, [r7, #4]
 8001ca0:	681b      	ldr	r3, [r3, #0]
 8001ca2:	68da      	ldr	r2, [r3, #12]
 8001ca4:	687b      	ldr	r3, [r7, #4]
 8001ca6:	681b      	ldr	r3, [r3, #0]
 8001ca8:	f422 4200 	bic.w	r2, r2, #32768	; 0x8000
 8001cac:	60da      	str	r2, [r3, #12]

  /* Configure I2Cx: Dual mode and Own Address2 */
  hi2c->Instance->OAR2 = (hi2c->Init.DualAddressMode | hi2c->Init.OwnAddress2 | \
 8001cae:	687b      	ldr	r3, [r7, #4]
 8001cb0:	691a      	ldr	r2, [r3, #16]
 8001cb2:	687b      	ldr	r3, [r7, #4]
 8001cb4:	695b      	ldr	r3, [r3, #20]
 8001cb6:	ea42 0103 	orr.w	r1, r2, r3
                          (hi2c->Init.OwnAddress2Masks << 8));
 8001cba:	687b      	ldr	r3, [r7, #4]
 8001cbc:	699b      	ldr	r3, [r3, #24]
 8001cbe:	021a      	lsls	r2, r3, #8
  hi2c->Instance->OAR2 = (hi2c->Init.DualAddressMode | hi2c->Init.OwnAddress2 | \
 8001cc0:	687b      	ldr	r3, [r7, #4]
 8001cc2:	681b      	ldr	r3, [r3, #0]
 8001cc4:	430a      	orrs	r2, r1
 8001cc6:	60da      	str	r2, [r3, #12]

  /*---------------------------- I2Cx CR1 Configuration ----------------------*/
  /* Configure I2Cx: Generalcall and NoStretch mode */
  hi2c->Instance->CR1 = (hi2c->Init.GeneralCallMode | hi2c->Init.NoStretchMode);
 8001cc8:	687b      	ldr	r3, [r7, #4]
 8001cca:	69d9      	ldr	r1, [r3, #28]
 8001ccc:	687b      	ldr	r3, [r7, #4]
 8001cce:	6a1a      	ldr	r2, [r3, #32]
 8001cd0:	687b      	ldr	r3, [r7, #4]
 8001cd2:	681b      	ldr	r3, [r3, #0]
 8001cd4:	430a      	orrs	r2, r1
 8001cd6:	601a      	str	r2, [r3, #0]

  /* Enable the selected I2C peripheral */
  __HAL_I2C_ENABLE(hi2c);
 8001cd8:	687b      	ldr	r3, [r7, #4]
 8001cda:	681b      	ldr	r3, [r3, #0]
 8001cdc:	681a      	ldr	r2, [r3, #0]
 8001cde:	687b      	ldr	r3, [r7, #4]
 8001ce0:	681b      	ldr	r3, [r3, #0]
 8001ce2:	f042 0201 	orr.w	r2, r2, #1
 8001ce6:	601a      	str	r2, [r3, #0]

  hi2c->ErrorCode = HAL_I2C_ERROR_NONE;
 8001ce8:	687b      	ldr	r3, [r7, #4]
 8001cea:	2200      	movs	r2, #0
 8001cec:	645a      	str	r2, [r3, #68]	; 0x44
  hi2c->State = HAL_I2C_STATE_READY;
 8001cee:	687b      	ldr	r3, [r7, #4]
 8001cf0:	2220      	movs	r2, #32
 8001cf2:	f883 2041 	strb.w	r2, [r3, #65]	; 0x41
  hi2c->PreviousState = I2C_STATE_NONE;
 8001cf6:	687b      	ldr	r3, [r7, #4]
 8001cf8:	2200      	movs	r2, #0
 8001cfa:	631a      	str	r2, [r3, #48]	; 0x30
  hi2c->Mode = HAL_I2C_MODE_NONE;
 8001cfc:	687b      	ldr	r3, [r7, #4]
 8001cfe:	2200      	movs	r2, #0
 8001d00:	f883 2042 	strb.w	r2, [r3, #66]	; 0x42

  return HAL_OK;
 8001d04:	2300      	movs	r3, #0
}
 8001d06:	4618      	mov	r0, r3
 8001d08:	3708      	adds	r7, #8
 8001d0a:	46bd      	mov	sp, r7
 8001d0c:	bd80      	pop	{r7, pc}
	...

08001d10 <HAL_I2C_Master_Transmit>:
  * @param  Timeout Timeout duration
  * @retval HAL status
  */
HAL_StatusTypeDef HAL_I2C_Master_Transmit(I2C_HandleTypeDef *hi2c, uint16_t DevAddress, uint8_t *pData,
                                          uint16_t Size, uint32_t Timeout)
{
 8001d10:	b580      	push	{r7, lr}
 8001d12:	b088      	sub	sp, #32
 8001d14:	af02      	add	r7, sp, #8
 8001d16:	60f8      	str	r0, [r7, #12]
 8001d18:	607a      	str	r2, [r7, #4]
 8001d1a:	461a      	mov	r2, r3
 8001d1c:	460b      	mov	r3, r1
 8001d1e:	817b      	strh	r3, [r7, #10]
 8001d20:	4613      	mov	r3, r2
 8001d22:	813b      	strh	r3, [r7, #8]
  uint32_t tickstart;

  if (hi2c->State == HAL_I2C_STATE_READY)
 8001d24:	68fb      	ldr	r3, [r7, #12]
 8001d26:	f893 3041 	ldrb.w	r3, [r3, #65]	; 0x41
 8001d2a:	b2db      	uxtb	r3, r3
 8001d2c:	2b20      	cmp	r3, #32
 8001d2e:	f040 80da 	bne.w	8001ee6 <HAL_I2C_Master_Transmit+0x1d6>
  {
    /* Process Locked */
    __HAL_LOCK(hi2c);
 8001d32:	68fb      	ldr	r3, [r7, #12]
 8001d34:	f893 3040 	ldrb.w	r3, [r3, #64]	; 0x40
 8001d38:	2b01      	cmp	r3, #1
 8001d3a:	d101      	bne.n	8001d40 <HAL_I2C_Master_Transmit+0x30>
 8001d3c:	2302      	movs	r3, #2
 8001d3e:	e0d3      	b.n	8001ee8 <HAL_I2C_Master_Transmit+0x1d8>
 8001d40:	68fb      	ldr	r3, [r7, #12]
 8001d42:	2201      	movs	r2, #1
 8001d44:	f883 2040 	strb.w	r2, [r3, #64]	; 0x40

    /* Init tickstart for timeout management*/
    tickstart = HAL_GetTick();
 8001d48:	f7ff fcca 	bl	80016e0 <HAL_GetTick>
 8001d4c:	6178      	str	r0, [r7, #20]

    if (I2C_WaitOnFlagUntilTimeout(hi2c, I2C_FLAG_BUSY, SET, I2C_TIMEOUT_BUSY, tickstart) != HAL_OK)
 8001d4e:	697b      	ldr	r3, [r7, #20]
 8001d50:	9300      	str	r3, [sp, #0]
 8001d52:	2319      	movs	r3, #25
 8001d54:	2201      	movs	r2, #1
 8001d56:	f44f 4100 	mov.w	r1, #32768	; 0x8000
 8001d5a:	68f8      	ldr	r0, [r7, #12]
 8001d5c:	f000 fbc6 	bl	80024ec <I2C_WaitOnFlagUntilTimeout>
 8001d60:	4603      	mov	r3, r0
 8001d62:	2b00      	cmp	r3, #0
 8001d64:	d001      	beq.n	8001d6a <HAL_I2C_Master_Transmit+0x5a>
    {
      return HAL_ERROR;
 8001d66:	2301      	movs	r3, #1
 8001d68:	e0be      	b.n	8001ee8 <HAL_I2C_Master_Transmit+0x1d8>
    }

    hi2c->State     = HAL_I2C_STATE_BUSY_TX;
 8001d6a:	68fb      	ldr	r3, [r7, #12]
 8001d6c:	2221      	movs	r2, #33	; 0x21
 8001d6e:	f883 2041 	strb.w	r2, [r3, #65]	; 0x41
    hi2c->Mode      = HAL_I2C_MODE_MASTER;
 8001d72:	68fb      	ldr	r3, [r7, #12]
 8001d74:	2210      	movs	r2, #16
 8001d76:	f883 2042 	strb.w	r2, [r3, #66]	; 0x42
    hi2c->ErrorCode = HAL_I2C_ERROR_NONE;
 8001d7a:	68fb      	ldr	r3, [r7, #12]
 8001d7c:	2200      	movs	r2, #0
 8001d7e:	645a      	str	r2, [r3, #68]	; 0x44

    /* Prepare transfer parameters */
    hi2c->pBuffPtr  = pData;
 8001d80:	68fb      	ldr	r3, [r7, #12]
 8001d82:	687a      	ldr	r2, [r7, #4]
 8001d84:	625a      	str	r2, [r3, #36]	; 0x24
    hi2c->XferCount = Size;
 8001d86:	68fb      	ldr	r3, [r7, #12]
 8001d88:	893a      	ldrh	r2, [r7, #8]
 8001d8a:	855a      	strh	r2, [r3, #42]	; 0x2a
    hi2c->XferISR   = NULL;
 8001d8c:	68fb      	ldr	r3, [r7, #12]
 8001d8e:	2200      	movs	r2, #0
 8001d90:	635a      	str	r2, [r3, #52]	; 0x34

    /* Send Slave Address */
    /* Set NBYTES to write and reload if hi2c->XferCount > MAX_NBYTE_SIZE and generate RESTART */
    if (hi2c->XferCount > MAX_NBYTE_SIZE)
 8001d92:	68fb      	ldr	r3, [r7, #12]
 8001d94:	8d5b      	ldrh	r3, [r3, #42]	; 0x2a
 8001d96:	b29b      	uxth	r3, r3
 8001d98:	2bff      	cmp	r3, #255	; 0xff
 8001d9a:	d90e      	bls.n	8001dba <HAL_I2C_Master_Transmit+0xaa>
    {
      hi2c->XferSize = MAX_NBYTE_SIZE;
 8001d9c:	68fb      	ldr	r3, [r7, #12]
 8001d9e:	22ff      	movs	r2, #255	; 0xff
 8001da0:	851a      	strh	r2, [r3, #40]	; 0x28
      I2C_TransferConfig(hi2c, DevAddress, (uint8_t)hi2c->XferSize, I2C_RELOAD_MODE,
 8001da2:	68fb      	ldr	r3, [r7, #12]
 8001da4:	8d1b      	ldrh	r3, [r3, #40]	; 0x28
 8001da6:	b2da      	uxtb	r2, r3
 8001da8:	8979      	ldrh	r1, [r7, #10]
 8001daa:	4b51      	ldr	r3, [pc, #324]	; (8001ef0 <HAL_I2C_Master_Transmit+0x1e0>)
 8001dac:	9300      	str	r3, [sp, #0]
 8001dae:	f04f 7380 	mov.w	r3, #16777216	; 0x1000000
 8001db2:	68f8      	ldr	r0, [r7, #12]
 8001db4:	f000 fccc 	bl	8002750 <I2C_TransferConfig>
 8001db8:	e06c      	b.n	8001e94 <HAL_I2C_Master_Transmit+0x184>
                         I2C_GENERATE_START_WRITE);
    }
    else
    {
      hi2c->XferSize = hi2c->XferCount;
 8001dba:	68fb      	ldr	r3, [r7, #12]
 8001dbc:	8d5b      	ldrh	r3, [r3, #42]	; 0x2a
 8001dbe:	b29a      	uxth	r2, r3
 8001dc0:	68fb      	ldr	r3, [r7, #12]
 8001dc2:	851a      	strh	r2, [r3, #40]	; 0x28
      I2C_TransferConfig(hi2c, DevAddress, (uint8_t)hi2c->XferSize, I2C_AUTOEND_MODE,
 8001dc4:	68fb      	ldr	r3, [r7, #12]
 8001dc6:	8d1b      	ldrh	r3, [r3, #40]	; 0x28
 8001dc8:	b2da      	uxtb	r2, r3
 8001dca:	8979      	ldrh	r1, [r7, #10]
 8001dcc:	4b48      	ldr	r3, [pc, #288]	; (8001ef0 <HAL_I2C_Master_Transmit+0x1e0>)
 8001dce:	9300      	str	r3, [sp, #0]
 8001dd0:	f04f 7300 	mov.w	r3, #33554432	; 0x2000000
 8001dd4:	68f8      	ldr	r0, [r7, #12]
 8001dd6:	f000 fcbb 	bl	8002750 <I2C_TransferConfig>
                         I2C_GENERATE_START_WRITE);
    }

    while (hi2c->XferCount > 0U)
 8001dda:	e05b      	b.n	8001e94 <HAL_I2C_Master_Transmit+0x184>
    {
      /* Wait until TXIS flag is set */
      if (I2C_WaitOnTXISFlagUntilTimeout(hi2c, Timeout, tickstart) != HAL_OK)
 8001ddc:	697a      	ldr	r2, [r7, #20]
 8001dde:	6a39      	ldr	r1, [r7, #32]
 8001de0:	68f8      	ldr	r0, [r7, #12]
 8001de2:	f000 fbc3 	bl	800256c <I2C_WaitOnTXISFlagUntilTimeout>
 8001de6:	4603      	mov	r3, r0
 8001de8:	2b00      	cmp	r3, #0
 8001dea:	d001      	beq.n	8001df0 <HAL_I2C_Master_Transmit+0xe0>
      {
        return HAL_ERROR;
 8001dec:	2301      	movs	r3, #1
 8001dee:	e07b      	b.n	8001ee8 <HAL_I2C_Master_Transmit+0x1d8>
      }
      /* Write data to TXDR */
      hi2c->Instance->TXDR = *hi2c->pBuffPtr;
 8001df0:	68fb      	ldr	r3, [r7, #12]
 8001df2:	6a5b      	ldr	r3, [r3, #36]	; 0x24
 8001df4:	781a      	ldrb	r2, [r3, #0]
 8001df6:	68fb      	ldr	r3, [r7, #12]
 8001df8:	681b      	ldr	r3, [r3, #0]
 8001dfa:	629a      	str	r2, [r3, #40]	; 0x28

      /* Increment Buffer pointer */
      hi2c->pBuffPtr++;
 8001dfc:	68fb      	ldr	r3, [r7, #12]
 8001dfe:	6a5b      	ldr	r3, [r3, #36]	; 0x24
 8001e00:	1c5a      	adds	r2, r3, #1
 8001e02:	68fb      	ldr	r3, [r7, #12]
 8001e04:	625a      	str	r2, [r3, #36]	; 0x24

      hi2c->XferCount--;
 8001e06:	68fb      	ldr	r3, [r7, #12]
 8001e08:	8d5b      	ldrh	r3, [r3, #42]	; 0x2a
 8001e0a:	b29b      	uxth	r3, r3
 8001e0c:	3b01      	subs	r3, #1
 8001e0e:	b29a      	uxth	r2, r3
 8001e10:	68fb      	ldr	r3, [r7, #12]
 8001e12:	855a      	strh	r2, [r3, #42]	; 0x2a
      hi2c->XferSize--;
 8001e14:	68fb      	ldr	r3, [r7, #12]
 8001e16:	8d1b      	ldrh	r3, [r3, #40]	; 0x28
 8001e18:	3b01      	subs	r3, #1
 8001e1a:	b29a      	uxth	r2, r3
 8001e1c:	68fb      	ldr	r3, [r7, #12]
 8001e1e:	851a      	strh	r2, [r3, #40]	; 0x28

      if ((hi2c->XferCount != 0U) && (hi2c->XferSize == 0U))
 8001e20:	68fb      	ldr	r3, [r7, #12]
 8001e22:	8d5b      	ldrh	r3, [r3, #42]	; 0x2a
 8001e24:	b29b      	uxth	r3, r3
 8001e26:	2b00      	cmp	r3, #0
 8001e28:	d034      	beq.n	8001e94 <HAL_I2C_Master_Transmit+0x184>
 8001e2a:	68fb      	ldr	r3, [r7, #12]
 8001e2c:	8d1b      	ldrh	r3, [r3, #40]	; 0x28
 8001e2e:	2b00      	cmp	r3, #0
 8001e30:	d130      	bne.n	8001e94 <HAL_I2C_Master_Transmit+0x184>
      {
        /* Wait until TCR flag is set */
        if (I2C_WaitOnFlagUntilTimeout(hi2c, I2C_FLAG_TCR, RESET, Timeout, tickstart) != HAL_OK)
 8001e32:	697b      	ldr	r3, [r7, #20]
 8001e34:	9300      	str	r3, [sp, #0]
 8001e36:	6a3b      	ldr	r3, [r7, #32]
 8001e38:	2200      	movs	r2, #0
 8001e3a:	2180      	movs	r1, #128	; 0x80
 8001e3c:	68f8      	ldr	r0, [r7, #12]
 8001e3e:	f000 fb55 	bl	80024ec <I2C_WaitOnFlagUntilTimeout>
 8001e42:	4603      	mov	r3, r0
 8001e44:	2b00      	cmp	r3, #0
 8001e46:	d001      	beq.n	8001e4c <HAL_I2C_Master_Transmit+0x13c>
        {
          return HAL_ERROR;
 8001e48:	2301      	movs	r3, #1
 8001e4a:	e04d      	b.n	8001ee8 <HAL_I2C_Master_Transmit+0x1d8>
        }

        if (hi2c->XferCount > MAX_NBYTE_SIZE)
 8001e4c:	68fb      	ldr	r3, [r7, #12]
 8001e4e:	8d5b      	ldrh	r3, [r3, #42]	; 0x2a
 8001e50:	b29b      	uxth	r3, r3
 8001e52:	2bff      	cmp	r3, #255	; 0xff
 8001e54:	d90e      	bls.n	8001e74 <HAL_I2C_Master_Transmit+0x164>
        {
          hi2c->XferSize = MAX_NBYTE_SIZE;
 8001e56:	68fb      	ldr	r3, [r7, #12]
 8001e58:	22ff      	movs	r2, #255	; 0xff
 8001e5a:	851a      	strh	r2, [r3, #40]	; 0x28
          I2C_TransferConfig(hi2c, DevAddress, (uint8_t)hi2c->XferSize, I2C_RELOAD_MODE,
 8001e5c:	68fb      	ldr	r3, [r7, #12]
 8001e5e:	8d1b      	ldrh	r3, [r3, #40]	; 0x28
 8001e60:	b2da      	uxtb	r2, r3
 8001e62:	8979      	ldrh	r1, [r7, #10]
 8001e64:	2300      	movs	r3, #0
 8001e66:	9300      	str	r3, [sp, #0]
 8001e68:	f04f 7380 	mov.w	r3, #16777216	; 0x1000000
 8001e6c:	68f8      	ldr	r0, [r7, #12]
 8001e6e:	f000 fc6f 	bl	8002750 <I2C_TransferConfig>
 8001e72:	e00f      	b.n	8001e94 <HAL_I2C_Master_Transmit+0x184>
                             I2C_NO_STARTSTOP);
        }
        else
        {
          hi2c->XferSize = hi2c->XferCount;
 8001e74:	68fb      	ldr	r3, [r7, #12]
 8001e76:	8d5b      	ldrh	r3, [r3, #42]	; 0x2a
 8001e78:	b29a      	uxth	r2, r3
 8001e7a:	68fb      	ldr	r3, [r7, #12]
 8001e7c:	851a      	strh	r2, [r3, #40]	; 0x28
          I2C_TransferConfig(hi2c, DevAddress, (uint8_t)hi2c->XferSize, I2C_AUTOEND_MODE,
 8001e7e:	68fb      	ldr	r3, [r7, #12]
 8001e80:	8d1b      	ldrh	r3, [r3, #40]	; 0x28
 8001e82:	b2da      	uxtb	r2, r3
 8001e84:	8979      	ldrh	r1, [r7, #10]
 8001e86:	2300      	movs	r3, #0
 8001e88:	9300      	str	r3, [sp, #0]
 8001e8a:	f04f 7300 	mov.w	r3, #33554432	; 0x2000000
 8001e8e:	68f8      	ldr	r0, [r7, #12]
 8001e90:	f000 fc5e 	bl	8002750 <I2C_TransferConfig>
    while (hi2c->XferCount > 0U)
 8001e94:	68fb      	ldr	r3, [r7, #12]
 8001e96:	8d5b      	ldrh	r3, [r3, #42]	; 0x2a
 8001e98:	b29b      	uxth	r3, r3
 8001e9a:	2b00      	cmp	r3, #0
 8001e9c:	d19e      	bne.n	8001ddc <HAL_I2C_Master_Transmit+0xcc>
      }
    }

    /* No need to Check TC flag, with AUTOEND mode the stop is automatically generated */
    /* Wait until STOPF flag is set */
    if (I2C_WaitOnSTOPFlagUntilTimeout(hi2c, Timeout, tickstart) != HAL_OK)
 8001e9e:	697a      	ldr	r2, [r7, #20]
 8001ea0:	6a39      	ldr	r1, [r7, #32]
 8001ea2:	68f8      	ldr	r0, [r7, #12]
 8001ea4:	f000 fba2 	bl	80025ec <I2C_WaitOnSTOPFlagUntilTimeout>
 8001ea8:	4603      	mov	r3, r0
 8001eaa:	2b00      	cmp	r3, #0
 8001eac:	d001      	beq.n	8001eb2 <HAL_I2C_Master_Transmit+0x1a2>
    {
      return HAL_ERROR;
 8001eae:	2301      	movs	r3, #1
 8001eb0:	e01a      	b.n	8001ee8 <HAL_I2C_Master_Transmit+0x1d8>
    }

    /* Clear STOP Flag */
    __HAL_I2C_CLEAR_FLAG(hi2c, I2C_FLAG_STOPF);
 8001eb2:	68fb      	ldr	r3, [r7, #12]
 8001eb4:	681b      	ldr	r3, [r3, #0]
 8001eb6:	2220      	movs	r2, #32
 8001eb8:	61da      	str	r2, [r3, #28]

    /* Clear Configuration Register 2 */
    I2C_RESET_CR2(hi2c);
 8001eba:	68fb      	ldr	r3, [r7, #12]
 8001ebc:	681b      	ldr	r3, [r3, #0]
 8001ebe:	6859      	ldr	r1, [r3, #4]
 8001ec0:	68fb      	ldr	r3, [r7, #12]
 8001ec2:	681a      	ldr	r2, [r3, #0]
 8001ec4:	4b0b      	ldr	r3, [pc, #44]	; (8001ef4 <HAL_I2C_Master_Transmit+0x1e4>)
 8001ec6:	400b      	ands	r3, r1
 8001ec8:	6053      	str	r3, [r2, #4]

    hi2c->State = HAL_I2C_STATE_READY;
 8001eca:	68fb      	ldr	r3, [r7, #12]
 8001ecc:	2220      	movs	r2, #32
 8001ece:	f883 2041 	strb.w	r2, [r3, #65]	; 0x41
    hi2c->Mode  = HAL_I2C_MODE_NONE;
 8001ed2:	68fb      	ldr	r3, [r7, #12]
 8001ed4:	2200      	movs	r2, #0
 8001ed6:	f883 2042 	strb.w	r2, [r3, #66]	; 0x42

    /* Process Unlocked */
    __HAL_UNLOCK(hi2c);
 8001eda:	68fb      	ldr	r3, [r7, #12]
 8001edc:	2200      	movs	r2, #0
 8001ede:	f883 2040 	strb.w	r2, [r3, #64]	; 0x40

    return HAL_OK;
 8001ee2:	2300      	movs	r3, #0
 8001ee4:	e000      	b.n	8001ee8 <HAL_I2C_Master_Transmit+0x1d8>
  }
  else
  {
    return HAL_BUSY;
 8001ee6:	2302      	movs	r3, #2
  }
}
 8001ee8:	4618      	mov	r0, r3
 8001eea:	3718      	adds	r7, #24
 8001eec:	46bd      	mov	sp, r7
 8001eee:	bd80      	pop	{r7, pc}
 8001ef0:	80002000 	.word	0x80002000
 8001ef4:	fe00e800 	.word	0xfe00e800

08001ef8 <HAL_I2C_Mem_Write>:
  * @param  Timeout Timeout duration
  * @retval HAL status
  */
HAL_StatusTypeDef HAL_I2C_Mem_Write(I2C_HandleTypeDef *hi2c, uint16_t DevAddress, uint16_t MemAddress,
                                    uint16_t MemAddSize, uint8_t *pData, uint16_t Size, uint32_t Timeout)
{
 8001ef8:	b580      	push	{r7, lr}
 8001efa:	b088      	sub	sp, #32
 8001efc:	af02      	add	r7, sp, #8
 8001efe:	60f8      	str	r0, [r7, #12]
 8001f00:	4608      	mov	r0, r1
 8001f02:	4611      	mov	r1, r2
 8001f04:	461a      	mov	r2, r3
 8001f06:	4603      	mov	r3, r0
 8001f08:	817b      	strh	r3, [r7, #10]
 8001f0a:	460b      	mov	r3, r1
 8001f0c:	813b      	strh	r3, [r7, #8]
 8001f0e:	4613      	mov	r3, r2
 8001f10:	80fb      	strh	r3, [r7, #6]
  uint32_t tickstart;

  /* Check the parameters */
  assert_param(IS_I2C_MEMADD_SIZE(MemAddSize));

  if (hi2c->State == HAL_I2C_STATE_READY)
 8001f12:	68fb      	ldr	r3, [r7, #12]
 8001f14:	f893 3041 	ldrb.w	r3, [r3, #65]	; 0x41
 8001f18:	b2db      	uxtb	r3, r3
 8001f1a:	2b20      	cmp	r3, #32
 8001f1c:	f040 80f9 	bne.w	8002112 <HAL_I2C_Mem_Write+0x21a>
  {
    if ((pData == NULL) || (Size == 0U))
 8001f20:	6a3b      	ldr	r3, [r7, #32]
 8001f22:	2b00      	cmp	r3, #0
 8001f24:	d002      	beq.n	8001f2c <HAL_I2C_Mem_Write+0x34>
 8001f26:	8cbb      	ldrh	r3, [r7, #36]	; 0x24
 8001f28:	2b00      	cmp	r3, #0
 8001f2a:	d105      	bne.n	8001f38 <HAL_I2C_Mem_Write+0x40>
    {
      hi2c->ErrorCode = HAL_I2C_ERROR_INVALID_PARAM;
 8001f2c:	68fb      	ldr	r3, [r7, #12]
 8001f2e:	f44f 7200 	mov.w	r2, #512	; 0x200
 8001f32:	645a      	str	r2, [r3, #68]	; 0x44
      return  HAL_ERROR;
 8001f34:	2301      	movs	r3, #1
 8001f36:	e0ed      	b.n	8002114 <HAL_I2C_Mem_Write+0x21c>
    }

    /* Process Locked */
    __HAL_LOCK(hi2c);
 8001f38:	68fb      	ldr	r3, [r7, #12]
 8001f3a:	f893 3040 	ldrb.w	r3, [r3, #64]	; 0x40
 8001f3e:	2b01      	cmp	r3, #1
 8001f40:	d101      	bne.n	8001f46 <HAL_I2C_Mem_Write+0x4e>
 8001f42:	2302      	movs	r3, #2
 8001f44:	e0e6      	b.n	8002114 <HAL_I2C_Mem_Write+0x21c>
 8001f46:	68fb      	ldr	r3, [r7, #12]
 8001f48:	2201      	movs	r2, #1
 8001f4a:	f883 2040 	strb.w	r2, [r3, #64]	; 0x40

    /* Init tickstart for timeout management*/
    tickstart = HAL_GetTick();
 8001f4e:	f7ff fbc7 	bl	80016e0 <HAL_GetTick>
 8001f52:	6178      	str	r0, [r7, #20]

    if (I2C_WaitOnFlagUntilTimeout(hi2c, I2C_FLAG_BUSY, SET, I2C_TIMEOUT_BUSY, tickstart) != HAL_OK)
 8001f54:	697b      	ldr	r3, [r7, #20]
 8001f56:	9300      	str	r3, [sp, #0]
 8001f58:	2319      	movs	r3, #25
 8001f5a:	2201      	movs	r2, #1
 8001f5c:	f44f 4100 	mov.w	r1, #32768	; 0x8000
 8001f60:	68f8      	ldr	r0, [r7, #12]
 8001f62:	f000 fac3 	bl	80024ec <I2C_WaitOnFlagUntilTimeout>
 8001f66:	4603      	mov	r3, r0
 8001f68:	2b00      	cmp	r3, #0
 8001f6a:	d001      	beq.n	8001f70 <HAL_I2C_Mem_Write+0x78>
    {
      return HAL_ERROR;
 8001f6c:	2301      	movs	r3, #1
 8001f6e:	e0d1      	b.n	8002114 <HAL_I2C_Mem_Write+0x21c>
    }

    hi2c->State     = HAL_I2C_STATE_BUSY_TX;
 8001f70:	68fb      	ldr	r3, [r7, #12]
 8001f72:	2221      	movs	r2, #33	; 0x21
 8001f74:	f883 2041 	strb.w	r2, [r3, #65]	; 0x41
    hi2c->Mode      = HAL_I2C_MODE_MEM;
 8001f78:	68fb      	ldr	r3, [r7, #12]
 8001f7a:	2240      	movs	r2, #64	; 0x40
 8001f7c:	f883 2042 	strb.w	r2, [r3, #66]	; 0x42
    hi2c->ErrorCode = HAL_I2C_ERROR_NONE;
 8001f80:	68fb      	ldr	r3, [r7, #12]
 8001f82:	2200      	movs	r2, #0
 8001f84:	645a      	str	r2, [r3, #68]	; 0x44

    /* Prepare transfer parameters */
    hi2c->pBuffPtr  = pData;
 8001f86:	68fb      	ldr	r3, [r7, #12]
 8001f88:	6a3a      	ldr	r2, [r7, #32]
 8001f8a:	625a      	str	r2, [r3, #36]	; 0x24
    hi2c->XferCount = Size;
 8001f8c:	68fb      	ldr	r3, [r7, #12]
 8001f8e:	8cba      	ldrh	r2, [r7, #36]	; 0x24
 8001f90:	855a      	strh	r2, [r3, #42]	; 0x2a
    hi2c->XferISR   = NULL;
 8001f92:	68fb      	ldr	r3, [r7, #12]
 8001f94:	2200      	movs	r2, #0
 8001f96:	635a      	str	r2, [r3, #52]	; 0x34

    /* Send Slave Address and Memory Address */
    if (I2C_RequestMemoryWrite(hi2c, DevAddress, MemAddress, MemAddSize, Timeout, tickstart) != HAL_OK)
 8001f98:	88f8      	ldrh	r0, [r7, #6]
 8001f9a:	893a      	ldrh	r2, [r7, #8]
 8001f9c:	8979      	ldrh	r1, [r7, #10]
 8001f9e:	697b      	ldr	r3, [r7, #20]
 8001fa0:	9301      	str	r3, [sp, #4]
 8001fa2:	6abb      	ldr	r3, [r7, #40]	; 0x28
 8001fa4:	9300      	str	r3, [sp, #0]
 8001fa6:	4603      	mov	r3, r0
 8001fa8:	68f8      	ldr	r0, [r7, #12]
 8001faa:	f000 f9d3 	bl	8002354 <I2C_RequestMemoryWrite>
 8001fae:	4603      	mov	r3, r0
 8001fb0:	2b00      	cmp	r3, #0
 8001fb2:	d005      	beq.n	8001fc0 <HAL_I2C_Mem_Write+0xc8>
    {
      /* Process Unlocked */
      __HAL_UNLOCK(hi2c);
 8001fb4:	68fb      	ldr	r3, [r7, #12]
 8001fb6:	2200      	movs	r2, #0
 8001fb8:	f883 2040 	strb.w	r2, [r3, #64]	; 0x40
      return HAL_ERROR;
 8001fbc:	2301      	movs	r3, #1
 8001fbe:	e0a9      	b.n	8002114 <HAL_I2C_Mem_Write+0x21c>
    }

    /* Set NBYTES to write and reload if hi2c->XferCount > MAX_NBYTE_SIZE */
    if (hi2c->XferCount > MAX_NBYTE_SIZE)
 8001fc0:	68fb      	ldr	r3, [r7, #12]
 8001fc2:	8d5b      	ldrh	r3, [r3, #42]	; 0x2a
 8001fc4:	b29b      	uxth	r3, r3
 8001fc6:	2bff      	cmp	r3, #255	; 0xff
 8001fc8:	d90e      	bls.n	8001fe8 <HAL_I2C_Mem_Write+0xf0>
    {
      hi2c->XferSize = MAX_NBYTE_SIZE;
 8001fca:	68fb      	ldr	r3, [r7, #12]
 8001fcc:	22ff      	movs	r2, #255	; 0xff
 8001fce:	851a      	strh	r2, [r3, #40]	; 0x28
      I2C_TransferConfig(hi2c, DevAddress, (uint8_t)hi2c->XferSize, I2C_RELOAD_MODE, I2C_NO_STARTSTOP);
 8001fd0:	68fb      	ldr	r3, [r7, #12]
 8001fd2:	8d1b      	ldrh	r3, [r3, #40]	; 0x28
 8001fd4:	b2da      	uxtb	r2, r3
 8001fd6:	8979      	ldrh	r1, [r7, #10]
 8001fd8:	2300      	movs	r3, #0
 8001fda:	9300      	str	r3, [sp, #0]
 8001fdc:	f04f 7380 	mov.w	r3, #16777216	; 0x1000000
 8001fe0:	68f8      	ldr	r0, [r7, #12]
 8001fe2:	f000 fbb5 	bl	8002750 <I2C_TransferConfig>
 8001fe6:	e00f      	b.n	8002008 <HAL_I2C_Mem_Write+0x110>
    }
    else
    {
      hi2c->XferSize = hi2c->XferCount;
 8001fe8:	68fb      	ldr	r3, [r7, #12]
 8001fea:	8d5b      	ldrh	r3, [r3, #42]	; 0x2a
 8001fec:	b29a      	uxth	r2, r3
 8001fee:	68fb      	ldr	r3, [r7, #12]
 8001ff0:	851a      	strh	r2, [r3, #40]	; 0x28
      I2C_TransferConfig(hi2c, DevAddress, (uint8_t)hi2c->XferSize, I2C_AUTOEND_MODE, I2C_NO_STARTSTOP);
 8001ff2:	68fb      	ldr	r3, [r7, #12]
 8001ff4:	8d1b      	ldrh	r3, [r3, #40]	; 0x28
 8001ff6:	b2da      	uxtb	r2, r3
 8001ff8:	8979      	ldrh	r1, [r7, #10]
 8001ffa:	2300      	movs	r3, #0
 8001ffc:	9300      	str	r3, [sp, #0]
 8001ffe:	f04f 7300 	mov.w	r3, #33554432	; 0x2000000
 8002002:	68f8      	ldr	r0, [r7, #12]
 8002004:	f000 fba4 	bl	8002750 <I2C_TransferConfig>
    }

    do
    {
      /* Wait until TXIS flag is set */
      if (I2C_WaitOnTXISFlagUntilTimeout(hi2c, Timeout, tickstart) != HAL_OK)
 8002008:	697a      	ldr	r2, [r7, #20]
 800200a:	6ab9      	ldr	r1, [r7, #40]	; 0x28
 800200c:	68f8      	ldr	r0, [r7, #12]
 800200e:	f000 faad 	bl	800256c <I2C_WaitOnTXISFlagUntilTimeout>
 8002012:	4603      	mov	r3, r0
 8002014:	2b00      	cmp	r3, #0
 8002016:	d001      	beq.n	800201c <HAL_I2C_Mem_Write+0x124>
      {
        return HAL_ERROR;
 8002018:	2301      	movs	r3, #1
 800201a:	e07b      	b.n	8002114 <HAL_I2C_Mem_Write+0x21c>
      }

      /* Write data to TXDR */
      hi2c->Instance->TXDR = *hi2c->pBuffPtr;
 800201c:	68fb      	ldr	r3, [r7, #12]
 800201e:	6a5b      	ldr	r3, [r3, #36]	; 0x24
 8002020:	781a      	ldrb	r2, [r3, #0]
 8002022:	68fb      	ldr	r3, [r7, #12]
 8002024:	681b      	ldr	r3, [r3, #0]
 8002026:	629a      	str	r2, [r3, #40]	; 0x28

      /* Increment Buffer pointer */
      hi2c->pBuffPtr++;
 8002028:	68fb      	ldr	r3, [r7, #12]
 800202a:	6a5b      	ldr	r3, [r3, #36]	; 0x24
 800202c:	1c5a      	adds	r2, r3, #1
 800202e:	68fb      	ldr	r3, [r7, #12]
 8002030:	625a      	str	r2, [r3, #36]	; 0x24

      hi2c->XferCount--;
 8002032:	68fb      	ldr	r3, [r7, #12]
 8002034:	8d5b      	ldrh	r3, [r3, #42]	; 0x2a
 8002036:	b29b      	uxth	r3, r3
 8002038:	3b01      	subs	r3, #1
 800203a:	b29a      	uxth	r2, r3
 800203c:	68fb      	ldr	r3, [r7, #12]
 800203e:	855a      	strh	r2, [r3, #42]	; 0x2a
      hi2c->XferSize--;
 8002040:	68fb      	ldr	r3, [r7, #12]
 8002042:	8d1b      	ldrh	r3, [r3, #40]	; 0x28
 8002044:	3b01      	subs	r3, #1
 8002046:	b29a      	uxth	r2, r3
 8002048:	68fb      	ldr	r3, [r7, #12]
 800204a:	851a      	strh	r2, [r3, #40]	; 0x28

      if ((hi2c->XferCount != 0U) && (hi2c->XferSize == 0U))
 800204c:	68fb      	ldr	r3, [r7, #12]
 800204e:	8d5b      	ldrh	r3, [r3, #42]	; 0x2a
 8002050:	b29b      	uxth	r3, r3
 8002052:	2b00      	cmp	r3, #0
 8002054:	d034      	beq.n	80020c0 <HAL_I2C_Mem_Write+0x1c8>
 8002056:	68fb      	ldr	r3, [r7, #12]
 8002058:	8d1b      	ldrh	r3, [r3, #40]	; 0x28
 800205a:	2b00      	cmp	r3, #0
 800205c:	d130      	bne.n	80020c0 <HAL_I2C_Mem_Write+0x1c8>
      {
        /* Wait until TCR flag is set */
        if (I2C_WaitOnFlagUntilTimeout(hi2c, I2C_FLAG_TCR, RESET, Timeout, tickstart) != HAL_OK)
 800205e:	697b      	ldr	r3, [r7, #20]
 8002060:	9300      	str	r3, [sp, #0]
 8002062:	6abb      	ldr	r3, [r7, #40]	; 0x28
 8002064:	2200      	movs	r2, #0
 8002066:	2180      	movs	r1, #128	; 0x80
 8002068:	68f8      	ldr	r0, [r7, #12]
 800206a:	f000 fa3f 	bl	80024ec <I2C_WaitOnFlagUntilTimeout>
 800206e:	4603      	mov	r3, r0
 8002070:	2b00      	cmp	r3, #0
 8002072:	d001      	beq.n	8002078 <HAL_I2C_Mem_Write+0x180>
        {
          return HAL_ERROR;
 8002074:	2301      	movs	r3, #1
 8002076:	e04d      	b.n	8002114 <HAL_I2C_Mem_Write+0x21c>
        }

        if (hi2c->XferCount > MAX_NBYTE_SIZE)
 8002078:	68fb      	ldr	r3, [r7, #12]
 800207a:	8d5b      	ldrh	r3, [r3, #42]	; 0x2a
 800207c:	b29b      	uxth	r3, r3
 800207e:	2bff      	cmp	r3, #255	; 0xff
 8002080:	d90e      	bls.n	80020a0 <HAL_I2C_Mem_Write+0x1a8>
        {
          hi2c->XferSize = MAX_NBYTE_SIZE;
 8002082:	68fb      	ldr	r3, [r7, #12]
 8002084:	22ff      	movs	r2, #255	; 0xff
 8002086:	851a      	strh	r2, [r3, #40]	; 0x28
          I2C_TransferConfig(hi2c, DevAddress, (uint8_t)hi2c->XferSize, I2C_RELOAD_MODE,
 8002088:	68fb      	ldr	r3, [r7, #12]
 800208a:	8d1b      	ldrh	r3, [r3, #40]	; 0x28
 800208c:	b2da      	uxtb	r2, r3
 800208e:	8979      	ldrh	r1, [r7, #10]
 8002090:	2300      	movs	r3, #0
 8002092:	9300      	str	r3, [sp, #0]
 8002094:	f04f 7380 	mov.w	r3, #16777216	; 0x1000000
 8002098:	68f8      	ldr	r0, [r7, #12]
 800209a:	f000 fb59 	bl	8002750 <I2C_TransferConfig>
 800209e:	e00f      	b.n	80020c0 <HAL_I2C_Mem_Write+0x1c8>
                             I2C_NO_STARTSTOP);
        }
        else
        {
          hi2c->XferSize = hi2c->XferCount;
 80020a0:	68fb      	ldr	r3, [r7, #12]
 80020a2:	8d5b      	ldrh	r3, [r3, #42]	; 0x2a
 80020a4:	b29a      	uxth	r2, r3
 80020a6:	68fb      	ldr	r3, [r7, #12]
 80020a8:	851a      	strh	r2, [r3, #40]	; 0x28
          I2C_TransferConfig(hi2c, DevAddress, (uint8_t)hi2c->XferSize, I2C_AUTOEND_MODE,
 80020aa:	68fb      	ldr	r3, [r7, #12]
 80020ac:	8d1b      	ldrh	r3, [r3, #40]	; 0x28
 80020ae:	b2da      	uxtb	r2, r3
 80020b0:	8979      	ldrh	r1, [r7, #10]
 80020b2:	2300      	movs	r3, #0
 80020b4:	9300      	str	r3, [sp, #0]
 80020b6:	f04f 7300 	mov.w	r3, #33554432	; 0x2000000
 80020ba:	68f8      	ldr	r0, [r7, #12]
 80020bc:	f000 fb48 	bl	8002750 <I2C_TransferConfig>
                             I2C_NO_STARTSTOP);
        }
      }

    } while (hi2c->XferCount > 0U);
 80020c0:	68fb      	ldr	r3, [r7, #12]
 80020c2:	8d5b      	ldrh	r3, [r3, #42]	; 0x2a
 80020c4:	b29b      	uxth	r3, r3
 80020c6:	2b00      	cmp	r3, #0
 80020c8:	d19e      	bne.n	8002008 <HAL_I2C_Mem_Write+0x110>

    /* No need to Check TC flag, with AUTOEND mode the stop is automatically generated */
    /* Wait until STOPF flag is reset */
    if (I2C_WaitOnSTOPFlagUntilTimeout(hi2c, Timeout, tickstart) != HAL_OK)
 80020ca:	697a      	ldr	r2, [r7, #20]
 80020cc:	6ab9      	ldr	r1, [r7, #40]	; 0x28
 80020ce:	68f8      	ldr	r0, [r7, #12]
 80020d0:	f000 fa8c 	bl	80025ec <I2C_WaitOnSTOPFlagUntilTimeout>
 80020d4:	4603      	mov	r3, r0
 80020d6:	2b00      	cmp	r3, #0
 80020d8:	d001      	beq.n	80020de <HAL_I2C_Mem_Write+0x1e6>
    {
      return HAL_ERROR;
 80020da:	2301      	movs	r3, #1
 80020dc:	e01a      	b.n	8002114 <HAL_I2C_Mem_Write+0x21c>
    }

    /* Clear STOP Flag */
    __HAL_I2C_CLEAR_FLAG(hi2c, I2C_FLAG_STOPF);
 80020de:	68fb      	ldr	r3, [r7, #12]
 80020e0:	681b      	ldr	r3, [r3, #0]
 80020e2:	2220      	movs	r2, #32
 80020e4:	61da      	str	r2, [r3, #28]

    /* Clear Configuration Register 2 */
    I2C_RESET_CR2(hi2c);
 80020e6:	68fb      	ldr	r3, [r7, #12]
 80020e8:	681b      	ldr	r3, [r3, #0]
 80020ea:	6859      	ldr	r1, [r3, #4]
 80020ec:	68fb      	ldr	r3, [r7, #12]
 80020ee:	681a      	ldr	r2, [r3, #0]
 80020f0:	4b0a      	ldr	r3, [pc, #40]	; (800211c <HAL_I2C_Mem_Write+0x224>)
 80020f2:	400b      	ands	r3, r1
 80020f4:	6053      	str	r3, [r2, #4]

    hi2c->State = HAL_I2C_STATE_READY;
 80020f6:	68fb      	ldr	r3, [r7, #12]
 80020f8:	2220      	movs	r2, #32
 80020fa:	f883 2041 	strb.w	r2, [r3, #65]	; 0x41
    hi2c->Mode  = HAL_I2C_MODE_NONE;
 80020fe:	68fb      	ldr	r3, [r7, #12]
 8002100:	2200      	movs	r2, #0
 8002102:	f883 2042 	strb.w	r2, [r3, #66]	; 0x42

    /* Process Unlocked */
    __HAL_UNLOCK(hi2c);
 8002106:	68fb      	ldr	r3, [r7, #12]
 8002108:	2200      	movs	r2, #0
 800210a:	f883 2040 	strb.w	r2, [r3, #64]	; 0x40

    return HAL_OK;
 800210e:	2300      	movs	r3, #0
 8002110:	e000      	b.n	8002114 <HAL_I2C_Mem_Write+0x21c>
  }
  else
  {
    return HAL_BUSY;
 8002112:	2302      	movs	r3, #2
  }
}
 8002114:	4618      	mov	r0, r3
 8002116:	3718      	adds	r7, #24
 8002118:	46bd      	mov	sp, r7
 800211a:	bd80      	pop	{r7, pc}
 800211c:	fe00e800 	.word	0xfe00e800

08002120 <HAL_I2C_Mem_Read>:
  * @param  Timeout Timeout duration
  * @retval HAL status
  */
HAL_StatusTypeDef HAL_I2C_Mem_Read(I2C_HandleTypeDef *hi2c, uint16_t DevAddress, uint16_t MemAddress,
                                   uint16_t MemAddSize, uint8_t *pData, uint16_t Size, uint32_t Timeout)
{
 8002120:	b580      	push	{r7, lr}
 8002122:	b088      	sub	sp, #32
 8002124:	af02      	add	r7, sp, #8
 8002126:	60f8      	str	r0, [r7, #12]
 8002128:	4608      	mov	r0, r1
 800212a:	4611      	mov	r1, r2
 800212c:	461a      	mov	r2, r3
 800212e:	4603      	mov	r3, r0
 8002130:	817b      	strh	r3, [r7, #10]
 8002132:	460b      	mov	r3, r1
 8002134:	813b      	strh	r3, [r7, #8]
 8002136:	4613      	mov	r3, r2
 8002138:	80fb      	strh	r3, [r7, #6]
  uint32_t tickstart;

  /* Check the parameters */
  assert_param(IS_I2C_MEMADD_SIZE(MemAddSize));

  if (hi2c->State == HAL_I2C_STATE_READY)
 800213a:	68fb      	ldr	r3, [r7, #12]
 800213c:	f893 3041 	ldrb.w	r3, [r3, #65]	; 0x41
 8002140:	b2db      	uxtb	r3, r3
 8002142:	2b20      	cmp	r3, #32
 8002144:	f040 80fd 	bne.w	8002342 <HAL_I2C_Mem_Read+0x222>
  {
    if ((pData == NULL) || (Size == 0U))
 8002148:	6a3b      	ldr	r3, [r7, #32]
 800214a:	2b00      	cmp	r3, #0
 800214c:	d002      	beq.n	8002154 <HAL_I2C_Mem_Read+0x34>
 800214e:	8cbb      	ldrh	r3, [r7, #36]	; 0x24
 8002150:	2b00      	cmp	r3, #0
 8002152:	d105      	bne.n	8002160 <HAL_I2C_Mem_Read+0x40>
    {
      hi2c->ErrorCode = HAL_I2C_ERROR_INVALID_PARAM;
 8002154:	68fb      	ldr	r3, [r7, #12]
 8002156:	f44f 7200 	mov.w	r2, #512	; 0x200
 800215a:	645a      	str	r2, [r3, #68]	; 0x44
      return  HAL_ERROR;
 800215c:	2301      	movs	r3, #1
 800215e:	e0f1      	b.n	8002344 <HAL_I2C_Mem_Read+0x224>
    }

    /* Process Locked */
    __HAL_LOCK(hi2c);
 8002160:	68fb      	ldr	r3, [r7, #12]
 8002162:	f893 3040 	ldrb.w	r3, [r3, #64]	; 0x40
 8002166:	2b01      	cmp	r3, #1
 8002168:	d101      	bne.n	800216e <HAL_I2C_Mem_Read+0x4e>
 800216a:	2302      	movs	r3, #2
 800216c:	e0ea      	b.n	8002344 <HAL_I2C_Mem_Read+0x224>
 800216e:	68fb      	ldr	r3, [r7, #12]
 8002170:	2201      	movs	r2, #1
 8002172:	f883 2040 	strb.w	r2, [r3, #64]	; 0x40

    /* Init tickstart for timeout management*/
    tickstart = HAL_GetTick();
 8002176:	f7ff fab3 	bl	80016e0 <HAL_GetTick>
 800217a:	6178      	str	r0, [r7, #20]

    if (I2C_WaitOnFlagUntilTimeout(hi2c, I2C_FLAG_BUSY, SET, I2C_TIMEOUT_BUSY, tickstart) != HAL_OK)
 800217c:	697b      	ldr	r3, [r7, #20]
 800217e:	9300      	str	r3, [sp, #0]
 8002180:	2319      	movs	r3, #25
 8002182:	2201      	movs	r2, #1
 8002184:	f44f 4100 	mov.w	r1, #32768	; 0x8000
 8002188:	68f8      	ldr	r0, [r7, #12]
 800218a:	f000 f9af 	bl	80024ec <I2C_WaitOnFlagUntilTimeout>
 800218e:	4603      	mov	r3, r0
 8002190:	2b00      	cmp	r3, #0
 8002192:	d001      	beq.n	8002198 <HAL_I2C_Mem_Read+0x78>
    {
      return HAL_ERROR;
 8002194:	2301      	movs	r3, #1
 8002196:	e0d5      	b.n	8002344 <HAL_I2C_Mem_Read+0x224>
    }

    hi2c->State     = HAL_I2C_STATE_BUSY_RX;
 8002198:	68fb      	ldr	r3, [r7, #12]
 800219a:	2222      	movs	r2, #34	; 0x22
 800219c:	f883 2041 	strb.w	r2, [r3, #65]	; 0x41
    hi2c->Mode      = HAL_I2C_MODE_MEM;
 80021a0:	68fb      	ldr	r3, [r7, #12]
 80021a2:	2240      	movs	r2, #64	; 0x40
 80021a4:	f883 2042 	strb.w	r2, [r3, #66]	; 0x42
    hi2c->ErrorCode = HAL_I2C_ERROR_NONE;
 80021a8:	68fb      	ldr	r3, [r7, #12]
 80021aa:	2200      	movs	r2, #0
 80021ac:	645a      	str	r2, [r3, #68]	; 0x44

    /* Prepare transfer parameters */
    hi2c->pBuffPtr  = pData;
 80021ae:	68fb      	ldr	r3, [r7, #12]
 80021b0:	6a3a      	ldr	r2, [r7, #32]
 80021b2:	625a      	str	r2, [r3, #36]	; 0x24
    hi2c->XferCount = Size;
 80021b4:	68fb      	ldr	r3, [r7, #12]
 80021b6:	8cba      	ldrh	r2, [r7, #36]	; 0x24
 80021b8:	855a      	strh	r2, [r3, #42]	; 0x2a
    hi2c->XferISR   = NULL;
 80021ba:	68fb      	ldr	r3, [r7, #12]
 80021bc:	2200      	movs	r2, #0
 80021be:	635a      	str	r2, [r3, #52]	; 0x34

    /* Send Slave Address and Memory Address */
    if (I2C_RequestMemoryRead(hi2c, DevAddress, MemAddress, MemAddSize, Timeout, tickstart) != HAL_OK)
 80021c0:	88f8      	ldrh	r0, [r7, #6]
 80021c2:	893a      	ldrh	r2, [r7, #8]
 80021c4:	8979      	ldrh	r1, [r7, #10]
 80021c6:	697b      	ldr	r3, [r7, #20]
 80021c8:	9301      	str	r3, [sp, #4]
 80021ca:	6abb      	ldr	r3, [r7, #40]	; 0x28
 80021cc:	9300      	str	r3, [sp, #0]
 80021ce:	4603      	mov	r3, r0
 80021d0:	68f8      	ldr	r0, [r7, #12]
 80021d2:	f000 f913 	bl	80023fc <I2C_RequestMemoryRead>
 80021d6:	4603      	mov	r3, r0
 80021d8:	2b00      	cmp	r3, #0
 80021da:	d005      	beq.n	80021e8 <HAL_I2C_Mem_Read+0xc8>
    {
      /* Process Unlocked */
      __HAL_UNLOCK(hi2c);
 80021dc:	68fb      	ldr	r3, [r7, #12]
 80021de:	2200      	movs	r2, #0
 80021e0:	f883 2040 	strb.w	r2, [r3, #64]	; 0x40
      return HAL_ERROR;
 80021e4:	2301      	movs	r3, #1
 80021e6:	e0ad      	b.n	8002344 <HAL_I2C_Mem_Read+0x224>
    }

    /* Send Slave Address */
    /* Set NBYTES to write and reload if hi2c->XferCount > MAX_NBYTE_SIZE and generate RESTART */
    if (hi2c->XferCount > MAX_NBYTE_SIZE)
 80021e8:	68fb      	ldr	r3, [r7, #12]
 80021ea:	8d5b      	ldrh	r3, [r3, #42]	; 0x2a
 80021ec:	b29b      	uxth	r3, r3
 80021ee:	2bff      	cmp	r3, #255	; 0xff
 80021f0:	d90e      	bls.n	8002210 <HAL_I2C_Mem_Read+0xf0>
    {
      hi2c->XferSize = MAX_NBYTE_SIZE;
 80021f2:	68fb      	ldr	r3, [r7, #12]
 80021f4:	22ff      	movs	r2, #255	; 0xff
 80021f6:	851a      	strh	r2, [r3, #40]	; 0x28
      I2C_TransferConfig(hi2c, DevAddress, (uint8_t)hi2c->XferSize, I2C_RELOAD_MODE,
 80021f8:	68fb      	ldr	r3, [r7, #12]
 80021fa:	8d1b      	ldrh	r3, [r3, #40]	; 0x28
 80021fc:	b2da      	uxtb	r2, r3
 80021fe:	8979      	ldrh	r1, [r7, #10]
 8002200:	4b52      	ldr	r3, [pc, #328]	; (800234c <HAL_I2C_Mem_Read+0x22c>)
 8002202:	9300      	str	r3, [sp, #0]
 8002204:	f04f 7380 	mov.w	r3, #16777216	; 0x1000000
 8002208:	68f8      	ldr	r0, [r7, #12]
 800220a:	f000 faa1 	bl	8002750 <I2C_TransferConfig>
 800220e:	e00f      	b.n	8002230 <HAL_I2C_Mem_Read+0x110>
                         I2C_GENERATE_START_READ);
    }
    else
    {
      hi2c->XferSize = hi2c->XferCount;
 8002210:	68fb      	ldr	r3, [r7, #12]
 8002212:	8d5b      	ldrh	r3, [r3, #42]	; 0x2a
 8002214:	b29a      	uxth	r2, r3
 8002216:	68fb      	ldr	r3, [r7, #12]
 8002218:	851a      	strh	r2, [r3, #40]	; 0x28
      I2C_TransferConfig(hi2c, DevAddress, (uint8_t)hi2c->XferSize, I2C_AUTOEND_MODE,
 800221a:	68fb      	ldr	r3, [r7, #12]
 800221c:	8d1b      	ldrh	r3, [r3, #40]	; 0x28
 800221e:	b2da      	uxtb	r2, r3
 8002220:	8979      	ldrh	r1, [r7, #10]
 8002222:	4b4a      	ldr	r3, [pc, #296]	; (800234c <HAL_I2C_Mem_Read+0x22c>)
 8002224:	9300      	str	r3, [sp, #0]
 8002226:	f04f 7300 	mov.w	r3, #33554432	; 0x2000000
 800222a:	68f8      	ldr	r0, [r7, #12]
 800222c:	f000 fa90 	bl	8002750 <I2C_TransferConfig>
    }

    do
    {
      /* Wait until RXNE flag is set */
      if (I2C_WaitOnFlagUntilTimeout(hi2c, I2C_FLAG_RXNE, RESET, Timeout, tickstart) != HAL_OK)
 8002230:	697b      	ldr	r3, [r7, #20]
 8002232:	9300      	str	r3, [sp, #0]
 8002234:	6abb      	ldr	r3, [r7, #40]	; 0x28
 8002236:	2200      	movs	r2, #0
 8002238:	2104      	movs	r1, #4
 800223a:	68f8      	ldr	r0, [r7, #12]
 800223c:	f000 f956 	bl	80024ec <I2C_WaitOnFlagUntilTimeout>
 8002240:	4603      	mov	r3, r0
 8002242:	2b00      	cmp	r3, #0
 8002244:	d001      	beq.n	800224a <HAL_I2C_Mem_Read+0x12a>
      {
        return HAL_ERROR;
 8002246:	2301      	movs	r3, #1
 8002248:	e07c      	b.n	8002344 <HAL_I2C_Mem_Read+0x224>
      }

      /* Read data from RXDR */
      *hi2c->pBuffPtr = (uint8_t)hi2c->Instance->RXDR;
 800224a:	68fb      	ldr	r3, [r7, #12]
 800224c:	681b      	ldr	r3, [r3, #0]
 800224e:	6a5a      	ldr	r2, [r3, #36]	; 0x24
 8002250:	68fb      	ldr	r3, [r7, #12]
 8002252:	6a5b      	ldr	r3, [r3, #36]	; 0x24
 8002254:	b2d2      	uxtb	r2, r2
 8002256:	701a      	strb	r2, [r3, #0]

      /* Increment Buffer pointer */
      hi2c->pBuffPtr++;
 8002258:	68fb      	ldr	r3, [r7, #12]
 800225a:	6a5b      	ldr	r3, [r3, #36]	; 0x24
 800225c:	1c5a      	adds	r2, r3, #1
 800225e:	68fb      	ldr	r3, [r7, #12]
 8002260:	625a      	str	r2, [r3, #36]	; 0x24

      hi2c->XferSize--;
 8002262:	68fb      	ldr	r3, [r7, #12]
 8002264:	8d1b      	ldrh	r3, [r3, #40]	; 0x28
 8002266:	3b01      	subs	r3, #1
 8002268:	b29a      	uxth	r2, r3
 800226a:	68fb      	ldr	r3, [r7, #12]
 800226c:	851a      	strh	r2, [r3, #40]	; 0x28
      hi2c->XferCount--;
 800226e:	68fb      	ldr	r3, [r7, #12]
 8002270:	8d5b      	ldrh	r3, [r3, #42]	; 0x2a
 8002272:	b29b      	uxth	r3, r3
 8002274:	3b01      	subs	r3, #1
 8002276:	b29a      	uxth	r2, r3
 8002278:	68fb      	ldr	r3, [r7, #12]
 800227a:	855a      	strh	r2, [r3, #42]	; 0x2a

      if ((hi2c->XferCount != 0U) && (hi2c->XferSize == 0U))
 800227c:	68fb      	ldr	r3, [r7, #12]
 800227e:	8d5b      	ldrh	r3, [r3, #42]	; 0x2a
 8002280:	b29b      	uxth	r3, r3
 8002282:	2b00      	cmp	r3, #0
 8002284:	d034      	beq.n	80022f0 <HAL_I2C_Mem_Read+0x1d0>
 8002286:	68fb      	ldr	r3, [r7, #12]
 8002288:	8d1b      	ldrh	r3, [r3, #40]	; 0x28
 800228a:	2b00      	cmp	r3, #0
 800228c:	d130      	bne.n	80022f0 <HAL_I2C_Mem_Read+0x1d0>
      {
        /* Wait until TCR flag is set */
        if (I2C_WaitOnFlagUntilTimeout(hi2c, I2C_FLAG_TCR, RESET, Timeout, tickstart) != HAL_OK)
 800228e:	697b      	ldr	r3, [r7, #20]
 8002290:	9300      	str	r3, [sp, #0]
 8002292:	6abb      	ldr	r3, [r7, #40]	; 0x28
 8002294:	2200      	movs	r2, #0
 8002296:	2180      	movs	r1, #128	; 0x80
 8002298:	68f8      	ldr	r0, [r7, #12]
 800229a:	f000 f927 	bl	80024ec <I2C_WaitOnFlagUntilTimeout>
 800229e:	4603      	mov	r3, r0
 80022a0:	2b00      	cmp	r3, #0
 80022a2:	d001      	beq.n	80022a8 <HAL_I2C_Mem_Read+0x188>
        {
          return HAL_ERROR;
 80022a4:	2301      	movs	r3, #1
 80022a6:	e04d      	b.n	8002344 <HAL_I2C_Mem_Read+0x224>
        }

        if (hi2c->XferCount > MAX_NBYTE_SIZE)
 80022a8:	68fb      	ldr	r3, [r7, #12]
 80022aa:	8d5b      	ldrh	r3, [r3, #42]	; 0x2a
 80022ac:	b29b      	uxth	r3, r3
 80022ae:	2bff      	cmp	r3, #255	; 0xff
 80022b0:	d90e      	bls.n	80022d0 <HAL_I2C_Mem_Read+0x1b0>
        {
          hi2c->XferSize = MAX_NBYTE_SIZE;
 80022b2:	68fb      	ldr	r3, [r7, #12]
 80022b4:	22ff      	movs	r2, #255	; 0xff
 80022b6:	851a      	strh	r2, [r3, #40]	; 0x28
          I2C_TransferConfig(hi2c, DevAddress, (uint8_t) hi2c->XferSize, I2C_RELOAD_MODE,
 80022b8:	68fb      	ldr	r3, [r7, #12]
 80022ba:	8d1b      	ldrh	r3, [r3, #40]	; 0x28
 80022bc:	b2da      	uxtb	r2, r3
 80022be:	8979      	ldrh	r1, [r7, #10]
 80022c0:	2300      	movs	r3, #0
 80022c2:	9300      	str	r3, [sp, #0]
 80022c4:	f04f 7380 	mov.w	r3, #16777216	; 0x1000000
 80022c8:	68f8      	ldr	r0, [r7, #12]
 80022ca:	f000 fa41 	bl	8002750 <I2C_TransferConfig>
 80022ce:	e00f      	b.n	80022f0 <HAL_I2C_Mem_Read+0x1d0>
                             I2C_NO_STARTSTOP);
        }
        else
        {
          hi2c->XferSize = hi2c->XferCount;
 80022d0:	68fb      	ldr	r3, [r7, #12]
 80022d2:	8d5b      	ldrh	r3, [r3, #42]	; 0x2a
 80022d4:	b29a      	uxth	r2, r3
 80022d6:	68fb      	ldr	r3, [r7, #12]
 80022d8:	851a      	strh	r2, [r3, #40]	; 0x28
          I2C_TransferConfig(hi2c, DevAddress, (uint8_t)hi2c->XferSize, I2C_AUTOEND_MODE,
 80022da:	68fb      	ldr	r3, [r7, #12]
 80022dc:	8d1b      	ldrh	r3, [r3, #40]	; 0x28
 80022de:	b2da      	uxtb	r2, r3
 80022e0:	8979      	ldrh	r1, [r7, #10]
 80022e2:	2300      	movs	r3, #0
 80022e4:	9300      	str	r3, [sp, #0]
 80022e6:	f04f 7300 	mov.w	r3, #33554432	; 0x2000000
 80022ea:	68f8      	ldr	r0, [r7, #12]
 80022ec:	f000 fa30 	bl	8002750 <I2C_TransferConfig>
                             I2C_NO_STARTSTOP);
        }
      }
    } while (hi2c->XferCount > 0U);
 80022f0:	68fb      	ldr	r3, [r7, #12]
 80022f2:	8d5b      	ldrh	r3, [r3, #42]	; 0x2a
 80022f4:	b29b      	uxth	r3, r3
 80022f6:	2b00      	cmp	r3, #0
 80022f8:	d19a      	bne.n	8002230 <HAL_I2C_Mem_Read+0x110>

    /* No need to Check TC flag, with AUTOEND mode the stop is automatically generated */
    /* Wait until STOPF flag is reset */
    if (I2C_WaitOnSTOPFlagUntilTimeout(hi2c, Timeout, tickstart) != HAL_OK)
 80022fa:	697a      	ldr	r2, [r7, #20]
 80022fc:	6ab9      	ldr	r1, [r7, #40]	; 0x28
 80022fe:	68f8      	ldr	r0, [r7, #12]
 8002300:	f000 f974 	bl	80025ec <I2C_WaitOnSTOPFlagUntilTimeout>
 8002304:	4603      	mov	r3, r0
 8002306:	2b00      	cmp	r3, #0
 8002308:	d001      	beq.n	800230e <HAL_I2C_Mem_Read+0x1ee>
    {
      return HAL_ERROR;
 800230a:	2301      	movs	r3, #1
 800230c:	e01a      	b.n	8002344 <HAL_I2C_Mem_Read+0x224>
    }

    /* Clear STOP Flag */
    __HAL_I2C_CLEAR_FLAG(hi2c, I2C_FLAG_STOPF);
 800230e:	68fb      	ldr	r3, [r7, #12]
 8002310:	681b      	ldr	r3, [r3, #0]
 8002312:	2220      	movs	r2, #32
 8002314:	61da      	str	r2, [r3, #28]

    /* Clear Configuration Register 2 */
    I2C_RESET_CR2(hi2c);
 8002316:	68fb      	ldr	r3, [r7, #12]
 8002318:	681b      	ldr	r3, [r3, #0]
 800231a:	6859      	ldr	r1, [r3, #4]
 800231c:	68fb      	ldr	r3, [r7, #12]
 800231e:	681a      	ldr	r2, [r3, #0]
 8002320:	4b0b      	ldr	r3, [pc, #44]	; (8002350 <HAL_I2C_Mem_Read+0x230>)
 8002322:	400b      	ands	r3, r1
 8002324:	6053      	str	r3, [r2, #4]

    hi2c->State = HAL_I2C_STATE_READY;
 8002326:	68fb      	ldr	r3, [r7, #12]
 8002328:	2220      	movs	r2, #32
 800232a:	f883 2041 	strb.w	r2, [r3, #65]	; 0x41
    hi2c->Mode  = HAL_I2C_MODE_NONE;
 800232e:	68fb      	ldr	r3, [r7, #12]
 8002330:	2200      	movs	r2, #0
 8002332:	f883 2042 	strb.w	r2, [r3, #66]	; 0x42

    /* Process Unlocked */
    __HAL_UNLOCK(hi2c);
 8002336:	68fb      	ldr	r3, [r7, #12]
 8002338:	2200      	movs	r2, #0
 800233a:	f883 2040 	strb.w	r2, [r3, #64]	; 0x40

    return HAL_OK;
 800233e:	2300      	movs	r3, #0
 8002340:	e000      	b.n	8002344 <HAL_I2C_Mem_Read+0x224>
  }
  else
  {
    return HAL_BUSY;
 8002342:	2302      	movs	r3, #2
  }
}
 8002344:	4618      	mov	r0, r3
 8002346:	3718      	adds	r7, #24
 8002348:	46bd      	mov	sp, r7
 800234a:	bd80      	pop	{r7, pc}
 800234c:	80002400 	.word	0x80002400
 8002350:	fe00e800 	.word	0xfe00e800

08002354 <I2C_RequestMemoryWrite>:
  * @retval HAL status
  */
static HAL_StatusTypeDef I2C_RequestMemoryWrite(I2C_HandleTypeDef *hi2c, uint16_t DevAddress,
                                                uint16_t MemAddress, uint16_t MemAddSize, uint32_t Timeout,
                                                uint32_t Tickstart)
{
 8002354:	b580      	push	{r7, lr}
 8002356:	b086      	sub	sp, #24
 8002358:	af02      	add	r7, sp, #8
 800235a:	60f8      	str	r0, [r7, #12]
 800235c:	4608      	mov	r0, r1
 800235e:	4611      	mov	r1, r2
 8002360:	461a      	mov	r2, r3
 8002362:	4603      	mov	r3, r0
 8002364:	817b      	strh	r3, [r7, #10]
 8002366:	460b      	mov	r3, r1
 8002368:	813b      	strh	r3, [r7, #8]
 800236a:	4613      	mov	r3, r2
 800236c:	80fb      	strh	r3, [r7, #6]
  I2C_TransferConfig(hi2c, DevAddress, (uint8_t)MemAddSize, I2C_RELOAD_MODE, I2C_GENERATE_START_WRITE);
 800236e:	88fb      	ldrh	r3, [r7, #6]
 8002370:	b2da      	uxtb	r2, r3
 8002372:	8979      	ldrh	r1, [r7, #10]
 8002374:	4b20      	ldr	r3, [pc, #128]	; (80023f8 <I2C_RequestMemoryWrite+0xa4>)
 8002376:	9300      	str	r3, [sp, #0]
 8002378:	f04f 7380 	mov.w	r3, #16777216	; 0x1000000
 800237c:	68f8      	ldr	r0, [r7, #12]
 800237e:	f000 f9e7 	bl	8002750 <I2C_TransferConfig>

  /* Wait until TXIS flag is set */
  if (I2C_WaitOnTXISFlagUntilTimeout(hi2c, Timeout, Tickstart) != HAL_OK)
 8002382:	69fa      	ldr	r2, [r7, #28]
 8002384:	69b9      	ldr	r1, [r7, #24]
 8002386:	68f8      	ldr	r0, [r7, #12]
 8002388:	f000 f8f0 	bl	800256c <I2C_WaitOnTXISFlagUntilTimeout>
 800238c:	4603      	mov	r3, r0
 800238e:	2b00      	cmp	r3, #0
 8002390:	d001      	beq.n	8002396 <I2C_RequestMemoryWrite+0x42>
  {
    return HAL_ERROR;
 8002392:	2301      	movs	r3, #1
 8002394:	e02c      	b.n	80023f0 <I2C_RequestMemoryWrite+0x9c>
  }

  /* If Memory address size is 8Bit */
  if (MemAddSize == I2C_MEMADD_SIZE_8BIT)
 8002396:	88fb      	ldrh	r3, [r7, #6]
 8002398:	2b01      	cmp	r3, #1
 800239a:	d105      	bne.n	80023a8 <I2C_RequestMemoryWrite+0x54>
  {
    /* Send Memory Address */
    hi2c->Instance->TXDR = I2C_MEM_ADD_LSB(MemAddress);
 800239c:	893b      	ldrh	r3, [r7, #8]
 800239e:	b2da      	uxtb	r2, r3
 80023a0:	68fb      	ldr	r3, [r7, #12]
 80023a2:	681b      	ldr	r3, [r3, #0]
 80023a4:	629a      	str	r2, [r3, #40]	; 0x28
 80023a6:	e015      	b.n	80023d4 <I2C_RequestMemoryWrite+0x80>
  }
  /* If Memory address size is 16Bit */
  else
  {
    /* Send MSB of Memory Address */
    hi2c->Instance->TXDR = I2C_MEM_ADD_MSB(MemAddress);
 80023a8:	893b      	ldrh	r3, [r7, #8]
 80023aa:	0a1b      	lsrs	r3, r3, #8
 80023ac:	b29b      	uxth	r3, r3
 80023ae:	b2da      	uxtb	r2, r3
 80023b0:	68fb      	ldr	r3, [r7, #12]
 80023b2:	681b      	ldr	r3, [r3, #0]
 80023b4:	629a      	str	r2, [r3, #40]	; 0x28

    /* Wait until TXIS flag is set */
    if (I2C_WaitOnTXISFlagUntilTimeout(hi2c, Timeout, Tickstart) != HAL_OK)
 80023b6:	69fa      	ldr	r2, [r7, #28]
 80023b8:	69b9      	ldr	r1, [r7, #24]
 80023ba:	68f8      	ldr	r0, [r7, #12]
 80023bc:	f000 f8d6 	bl	800256c <I2C_WaitOnTXISFlagUntilTimeout>
 80023c0:	4603      	mov	r3, r0
 80023c2:	2b00      	cmp	r3, #0
 80023c4:	d001      	beq.n	80023ca <I2C_RequestMemoryWrite+0x76>
    {
      return HAL_ERROR;
 80023c6:	2301      	movs	r3, #1
 80023c8:	e012      	b.n	80023f0 <I2C_RequestMemoryWrite+0x9c>
    }

    /* Send LSB of Memory Address */
    hi2c->Instance->TXDR = I2C_MEM_ADD_LSB(MemAddress);
 80023ca:	893b      	ldrh	r3, [r7, #8]
 80023cc:	b2da      	uxtb	r2, r3
 80023ce:	68fb      	ldr	r3, [r7, #12]
 80023d0:	681b      	ldr	r3, [r3, #0]
 80023d2:	629a      	str	r2, [r3, #40]	; 0x28
  }

  /* Wait until TCR flag is set */
  if (I2C_WaitOnFlagUntilTimeout(hi2c, I2C_FLAG_TCR, RESET, Timeout, Tickstart) != HAL_OK)
 80023d4:	69fb      	ldr	r3, [r7, #28]
 80023d6:	9300      	str	r3, [sp, #0]
 80023d8:	69bb      	ldr	r3, [r7, #24]
 80023da:	2200      	movs	r2, #0
 80023dc:	2180      	movs	r1, #128	; 0x80
 80023de:	68f8      	ldr	r0, [r7, #12]
 80023e0:	f000 f884 	bl	80024ec <I2C_WaitOnFlagUntilTimeout>
 80023e4:	4603      	mov	r3, r0
 80023e6:	2b00      	cmp	r3, #0
 80023e8:	d001      	beq.n	80023ee <I2C_RequestMemoryWrite+0x9a>
  {
    return HAL_ERROR;
 80023ea:	2301      	movs	r3, #1
 80023ec:	e000      	b.n	80023f0 <I2C_RequestMemoryWrite+0x9c>
  }

  return HAL_OK;
 80023ee:	2300      	movs	r3, #0
}
 80023f0:	4618      	mov	r0, r3
 80023f2:	3710      	adds	r7, #16
 80023f4:	46bd      	mov	sp, r7
 80023f6:	bd80      	pop	{r7, pc}
 80023f8:	80002000 	.word	0x80002000

080023fc <I2C_RequestMemoryRead>:
  * @retval HAL status
  */
static HAL_StatusTypeDef I2C_RequestMemoryRead(I2C_HandleTypeDef *hi2c, uint16_t DevAddress,
                                               uint16_t MemAddress, uint16_t MemAddSize, uint32_t Timeout,
                                               uint32_t Tickstart)
{
 80023fc:	b580      	push	{r7, lr}
 80023fe:	b086      	sub	sp, #24
 8002400:	af02      	add	r7, sp, #8
 8002402:	60f8      	str	r0, [r7, #12]
 8002404:	4608      	mov	r0, r1
 8002406:	4611      	mov	r1, r2
 8002408:	461a      	mov	r2, r3
 800240a:	4603      	mov	r3, r0
 800240c:	817b      	strh	r3, [r7, #10]
 800240e:	460b      	mov	r3, r1
 8002410:	813b      	strh	r3, [r7, #8]
 8002412:	4613      	mov	r3, r2
 8002414:	80fb      	strh	r3, [r7, #6]
  I2C_TransferConfig(hi2c, DevAddress, (uint8_t)MemAddSize, I2C_SOFTEND_MODE, I2C_GENERATE_START_WRITE);
 8002416:	88fb      	ldrh	r3, [r7, #6]
 8002418:	b2da      	uxtb	r2, r3
 800241a:	8979      	ldrh	r1, [r7, #10]
 800241c:	4b20      	ldr	r3, [pc, #128]	; (80024a0 <I2C_RequestMemoryRead+0xa4>)
 800241e:	9300      	str	r3, [sp, #0]
 8002420:	2300      	movs	r3, #0
 8002422:	68f8      	ldr	r0, [r7, #12]
 8002424:	f000 f994 	bl	8002750 <I2C_TransferConfig>

  /* Wait until TXIS flag is set */
  if (I2C_WaitOnTXISFlagUntilTimeout(hi2c, Timeout, Tickstart) != HAL_OK)
 8002428:	69fa      	ldr	r2, [r7, #28]
 800242a:	69b9      	ldr	r1, [r7, #24]
 800242c:	68f8      	ldr	r0, [r7, #12]
 800242e:	f000 f89d 	bl	800256c <I2C_WaitOnTXISFlagUntilTimeout>
 8002432:	4603      	mov	r3, r0
 8002434:	2b00      	cmp	r3, #0
 8002436:	d001      	beq.n	800243c <I2C_RequestMemoryRead+0x40>
  {
    return HAL_ERROR;
 8002438:	2301      	movs	r3, #1
 800243a:	e02c      	b.n	8002496 <I2C_RequestMemoryRead+0x9a>
  }

  /* If Memory address size is 8Bit */
  if (MemAddSize == I2C_MEMADD_SIZE_8BIT)
 800243c:	88fb      	ldrh	r3, [r7, #6]
 800243e:	2b01      	cmp	r3, #1
 8002440:	d105      	bne.n	800244e <I2C_RequestMemoryRead+0x52>
  {
    /* Send Memory Address */
    hi2c->Instance->TXDR = I2C_MEM_ADD_LSB(MemAddress);
 8002442:	893b      	ldrh	r3, [r7, #8]
 8002444:	b2da      	uxtb	r2, r3
 8002446:	68fb      	ldr	r3, [r7, #12]
 8002448:	681b      	ldr	r3, [r3, #0]
 800244a:	629a      	str	r2, [r3, #40]	; 0x28
 800244c:	e015      	b.n	800247a <I2C_RequestMemoryRead+0x7e>
  }
  /* If Memory address size is 16Bit */
  else
  {
    /* Send MSB of Memory Address */
    hi2c->Instance->TXDR = I2C_MEM_ADD_MSB(MemAddress);
 800244e:	893b      	ldrh	r3, [r7, #8]
 8002450:	0a1b      	lsrs	r3, r3, #8
 8002452:	b29b      	uxth	r3, r3
 8002454:	b2da      	uxtb	r2, r3
 8002456:	68fb      	ldr	r3, [r7, #12]
 8002458:	681b      	ldr	r3, [r3, #0]
 800245a:	629a      	str	r2, [r3, #40]	; 0x28

    /* Wait until TXIS flag is set */
    if (I2C_WaitOnTXISFlagUntilTimeout(hi2c, Timeout, Tickstart) != HAL_OK)
 800245c:	69fa      	ldr	r2, [r7, #28]
 800245e:	69b9      	ldr	r1, [r7, #24]
 8002460:	68f8      	ldr	r0, [r7, #12]
 8002462:	f000 f883 	bl	800256c <I2C_WaitOnTXISFlagUntilTimeout>
 8002466:	4603      	mov	r3, r0
 8002468:	2b00      	cmp	r3, #0
 800246a:	d001      	beq.n	8002470 <I2C_RequestMemoryRead+0x74>
    {
      return HAL_ERROR;
 800246c:	2301      	movs	r3, #1
 800246e:	e012      	b.n	8002496 <I2C_RequestMemoryRead+0x9a>
    }

    /* Send LSB of Memory Address */
    hi2c->Instance->TXDR = I2C_MEM_ADD_LSB(MemAddress);
 8002470:	893b      	ldrh	r3, [r7, #8]
 8002472:	b2da      	uxtb	r2, r3
 8002474:	68fb      	ldr	r3, [r7, #12]
 8002476:	681b      	ldr	r3, [r3, #0]
 8002478:	629a      	str	r2, [r3, #40]	; 0x28
  }

  /* Wait until TC flag is set */
  if (I2C_WaitOnFlagUntilTimeout(hi2c, I2C_FLAG_TC, RESET, Timeout, Tickstart) != HAL_OK)
 800247a:	69fb      	ldr	r3, [r7, #28]
 800247c:	9300      	str	r3, [sp, #0]
 800247e:	69bb      	ldr	r3, [r7, #24]
 8002480:	2200      	movs	r2, #0
 8002482:	2140      	movs	r1, #64	; 0x40
 8002484:	68f8      	ldr	r0, [r7, #12]
 8002486:	f000 f831 	bl	80024ec <I2C_WaitOnFlagUntilTimeout>
 800248a:	4603      	mov	r3, r0
 800248c:	2b00      	cmp	r3, #0
 800248e:	d001      	beq.n	8002494 <I2C_RequestMemoryRead+0x98>
  {
    return HAL_ERROR;
 8002490:	2301      	movs	r3, #1
 8002492:	e000      	b.n	8002496 <I2C_RequestMemoryRead+0x9a>
  }

  return HAL_OK;
 8002494:	2300      	movs	r3, #0
}
 8002496:	4618      	mov	r0, r3
 8002498:	3710      	adds	r7, #16
 800249a:	46bd      	mov	sp, r7
 800249c:	bd80      	pop	{r7, pc}
 800249e:	bf00      	nop
 80024a0:	80002000 	.word	0x80002000

080024a4 <I2C_Flush_TXDR>:
  * @brief  I2C Tx data register flush process.
  * @param  hi2c I2C handle.
  * @retval None
  */
static void I2C_Flush_TXDR(I2C_HandleTypeDef *hi2c)
{
 80024a4:	b480      	push	{r7}
 80024a6:	b083      	sub	sp, #12
 80024a8:	af00      	add	r7, sp, #0
 80024aa:	6078      	str	r0, [r7, #4]
  /* If a pending TXIS flag is set */
  /* Write a dummy data in TXDR to clear it */
  if (__HAL_I2C_GET_FLAG(hi2c, I2C_FLAG_TXIS) != RESET)
 80024ac:	687b      	ldr	r3, [r7, #4]
 80024ae:	681b      	ldr	r3, [r3, #0]
 80024b0:	699b      	ldr	r3, [r3, #24]
 80024b2:	f003 0302 	and.w	r3, r3, #2
 80024b6:	2b02      	cmp	r3, #2
 80024b8:	d103      	bne.n	80024c2 <I2C_Flush_TXDR+0x1e>
  {
    hi2c->Instance->TXDR = 0x00U;
 80024ba:	687b      	ldr	r3, [r7, #4]
 80024bc:	681b      	ldr	r3, [r3, #0]
 80024be:	2200      	movs	r2, #0
 80024c0:	629a      	str	r2, [r3, #40]	; 0x28
  }

  /* Flush TX register if not empty */
  if (__HAL_I2C_GET_FLAG(hi2c, I2C_FLAG_TXE) == RESET)
 80024c2:	687b      	ldr	r3, [r7, #4]
 80024c4:	681b      	ldr	r3, [r3, #0]
 80024c6:	699b      	ldr	r3, [r3, #24]
 80024c8:	f003 0301 	and.w	r3, r3, #1
 80024cc:	2b01      	cmp	r3, #1
 80024ce:	d007      	beq.n	80024e0 <I2C_Flush_TXDR+0x3c>
  {
    __HAL_I2C_CLEAR_FLAG(hi2c, I2C_FLAG_TXE);
 80024d0:	687b      	ldr	r3, [r7, #4]
 80024d2:	681b      	ldr	r3, [r3, #0]
 80024d4:	699a      	ldr	r2, [r3, #24]
 80024d6:	687b      	ldr	r3, [r7, #4]
 80024d8:	681b      	ldr	r3, [r3, #0]
 80024da:	f042 0201 	orr.w	r2, r2, #1
 80024de:	619a      	str	r2, [r3, #24]
  }
}
 80024e0:	bf00      	nop
 80024e2:	370c      	adds	r7, #12
 80024e4:	46bd      	mov	sp, r7
 80024e6:	f85d 7b04 	ldr.w	r7, [sp], #4
 80024ea:	4770      	bx	lr

080024ec <I2C_WaitOnFlagUntilTimeout>:
  * @param  Tickstart Tick start value
  * @retval HAL status
  */
static HAL_StatusTypeDef I2C_WaitOnFlagUntilTimeout(I2C_HandleTypeDef *hi2c, uint32_t Flag, FlagStatus Status,
                                                    uint32_t Timeout, uint32_t Tickstart)
{
 80024ec:	b580      	push	{r7, lr}
 80024ee:	b084      	sub	sp, #16
 80024f0:	af00      	add	r7, sp, #0
 80024f2:	60f8      	str	r0, [r7, #12]
 80024f4:	60b9      	str	r1, [r7, #8]
 80024f6:	603b      	str	r3, [r7, #0]
 80024f8:	4613      	mov	r3, r2
 80024fa:	71fb      	strb	r3, [r7, #7]
  while (__HAL_I2C_GET_FLAG(hi2c, Flag) == Status)
 80024fc:	e022      	b.n	8002544 <I2C_WaitOnFlagUntilTimeout+0x58>
  {
    /* Check for the Timeout */
    if (Timeout != HAL_MAX_DELAY)
 80024fe:	683b      	ldr	r3, [r7, #0]
 8002500:	f1b3 3fff 	cmp.w	r3, #4294967295
 8002504:	d01e      	beq.n	8002544 <I2C_WaitOnFlagUntilTimeout+0x58>
    {
      if (((HAL_GetTick() - Tickstart) > Timeout) || (Timeout == 0U))
 8002506:	f7ff f8eb 	bl	80016e0 <HAL_GetTick>
 800250a:	4602      	mov	r2, r0
 800250c:	69bb      	ldr	r3, [r7, #24]
 800250e:	1ad3      	subs	r3, r2, r3
 8002510:	683a      	ldr	r2, [r7, #0]
 8002512:	429a      	cmp	r2, r3
 8002514:	d302      	bcc.n	800251c <I2C_WaitOnFlagUntilTimeout+0x30>
 8002516:	683b      	ldr	r3, [r7, #0]
 8002518:	2b00      	cmp	r3, #0
 800251a:	d113      	bne.n	8002544 <I2C_WaitOnFlagUntilTimeout+0x58>
      {
        hi2c->ErrorCode |= HAL_I2C_ERROR_TIMEOUT;
 800251c:	68fb      	ldr	r3, [r7, #12]
 800251e:	6c5b      	ldr	r3, [r3, #68]	; 0x44
 8002520:	f043 0220 	orr.w	r2, r3, #32
 8002524:	68fb      	ldr	r3, [r7, #12]
 8002526:	645a      	str	r2, [r3, #68]	; 0x44
        hi2c->State = HAL_I2C_STATE_READY;
 8002528:	68fb      	ldr	r3, [r7, #12]
 800252a:	2220      	movs	r2, #32
 800252c:	f883 2041 	strb.w	r2, [r3, #65]	; 0x41
        hi2c->Mode = HAL_I2C_MODE_NONE;
 8002530:	68fb      	ldr	r3, [r7, #12]
 8002532:	2200      	movs	r2, #0
 8002534:	f883 2042 	strb.w	r2, [r3, #66]	; 0x42

        /* Process Unlocked */
        __HAL_UNLOCK(hi2c);
 8002538:	68fb      	ldr	r3, [r7, #12]
 800253a:	2200      	movs	r2, #0
 800253c:	f883 2040 	strb.w	r2, [r3, #64]	; 0x40
        return HAL_ERROR;
 8002540:	2301      	movs	r3, #1
 8002542:	e00f      	b.n	8002564 <I2C_WaitOnFlagUntilTimeout+0x78>
  while (__HAL_I2C_GET_FLAG(hi2c, Flag) == Status)
 8002544:	68fb      	ldr	r3, [r7, #12]
 8002546:	681b      	ldr	r3, [r3, #0]
 8002548:	699a      	ldr	r2, [r3, #24]
 800254a:	68bb      	ldr	r3, [r7, #8]
 800254c:	4013      	ands	r3, r2
 800254e:	68ba      	ldr	r2, [r7, #8]
